:020000040800F2
:10000000080E0020BD7A0008513F0008C77A00089A
:10001000533F0008573F00085B3F00080000000006
:100020000000000000000000000000005F3F00082A
:10003000613F000800000000D37A0008633F000819
:10004000D77A0008D77A0008D77A0008D77A00084C
:10005000D77A0008D77A0008D77A0008D77A00083C
:10006000D77A0008D77A0008D77A0008D77A00082C
:10007000D77A0008D77A0008D77A0008D77A00081C
:10008000D77A0008D77A0008D77A0008D77A00080C
:10009000D77A0008D77A0008D77A0008D77A0008FC
:1000A000D77A0008D77A0008D77A0008D77A0008EC
:1000B000D77A0008D77A0008D77A0008D77A0008DC
:1000C000D77A0008D77A0008D77A0008D77A0008CC
:1000D000D77A00086B3F0008D77A00086D3F000808
:1000E000D77A0008D77A0008D77A000800F002F81B
:1000F00000F03CF80AA090E8000C82448344AAF186
:100100000107DA4501D100F031F8AFF2090EBAE883
:100110000F0013F0010F18BFFB1A43F0010318473B
:10012000BCA20000DCA20000103A24BF78C878C14D
:10013000FAD8520724BF30C830C144BF04680C60ED
:10014000704700000023002400250026103A28BF35
:1001500078C1FBD8520728BF30C148BF0B60704739
:100160001FB507F055FE1FBD10B510BD07F076FE98
:100170001146FFF7F5FF00F009F807F094FE03B40D
:10018000FFF7F2FF03BC07F095FE000003F089FEC5
:10019000064802F0B7FF064800F0E5FA054803F00C
:1001A00043F801E000F099F8FCE700003C00002073
:1001B000E0000020380300200122C272704710B511
:1001C0000446607AE0B1207BD0B926480078401C14
:1001D0002449087008460078012804D0142806D065
:1001E00028280CD107E0204805F0D0F807E01E4889
:1001F00005F0DCF803E000201A49087000BF2AE08F
:10020000607A10B3207B00B318480078401C17496F
:10021000087008460078012804D0142809D028283E
:1002200012D10DE0104805F0B1F80F4805F0C6F8FE
:100230000AE00D4805F0BAF80B4805F0AFF803E006
:1002400000200A49087000BF05E0074805F09EF845
:10025000054805F0A3F810BD00B50548FFF7ACFF51
:1002600000BD0000000000208800002001000020E8
:10027000C400002010B5364800F092FE344801F06A
:10028000A9FB10BD10B5334800F076FA314800F0F4
:100290004DFB314802F07CFA304802F0CEFF10BD31
:1002A00010B52D4802F0E9F910BD704710B52C4883
:1002B00001F00FFF2A4801F0F3FF294802F06BF824
:1002C000234801F042FD2748FFF779FF224802F05A
:1002D00015FB214802F09FFB10BD10B52248008895
:1002E000012804DBFFF7C6FF00201F4908801E48D5
:1002F0004088022804DBFFF7C5FF00201A49488028
:1003000019488088052804DBFFF7CAFF002016493A
:1003100088801548C0880A2804DBFFF7C6FF002044
:100320001149C88010480089142804DBFFF7BEFF7C
:1003300000200D49088110BD00210181C18081800C
:1003400041800180704700B50748FFF7F5FF00BD09
:10035000AC010020E00000203C0200203803002017
:10036000FA010020C4000020D40000202DE9F0474D
:1003700081460C4615462946C34809F0BDFC804617
:1003800041464FF07E5009F0FBFA0746214609F03E
:1003900083FA06463146204609F0F2FABDE8F087B6
:1003A0002DE9F84F0F4615461C462946B64809F078
:1003B000A3FC8146394609F09FFC804641464FF038
:1003C0007E5009F0DDFA06463146B04809F094FC4B
:1003D00082463146304609F08FFC8346514609F08B
:1003E0005BFA81464FF07E5109F056FA804641464D
:1003F0004FF07E5009F0C4FA20603146A34809F05E
:100400007BFC83463146304609F076FC5946009025
:1004100009F042FA82464FF07E5109F03DFA8046DB
:1004200031469A4809F068FC314600904FF0804010
:1004300009F062FC8346314609F05EFC8246009971
:1004400009F02AFA8146414609F09AFA606031467D
:100450008E4809F051FC83463146304609F04CFC89
:100460005946009009F018FA81464FF07E5109F084
:1004700013FA80463146304609F03EFC824641463A
:1004800009F07EFAA060BDE8F88F2DE9F04107463B
:100490000D4614462146284609F0FEF90646314627
:1004A000204609F06DFABDE8F0810FB4F0B58DB0CB
:1004B00005460F461A9C224617A904A808F031FEEB
:1004C00004A807C807AB07C321464FF07E5009F0C8
:1004D000D3FD0646324614A901A808F022FE01A861
:1004E00007C80AAB07C307AA0AA9284608F035FEC1
:1004F0000DB0F0BC5DF814FB0FB470B59EB00546AE
:100500000E4614460FA8002181604160016000BFC3
:1005100004F10C010CA8A26808F003FE0CA807C89F
:1005200012AB07C304F1180109A8626808F0F9FDCD
:1005300009A807C815AB07C325A906A8226808F0B3
:10054000F0FD06A807C818AB07C315AA18A903A889
:1005500008F003FE03A807C81BAB07C312AA1BA918
:10056000684608F0A6FD9DE807000FAB07C3D4E975
:100570000712A069C4E90412E0600FA807C8C4E923
:100580000712A0610FA807C885E807001EB070BC5D
:100590005DF814FB2DE9F05F83460C4615463C4898
:1005A000A168006809F0A8FB80463A4861680068C5
:1005B00009F0A2FB81462846216809F09DFB82468E
:1005C000494609F069F90746414609F055FD0646D6
:1005D000304800682E4908602E480660304609F011
:1005E000C5FABDE8F09F2DE9F05F83460C4615463D
:1005F0002948A168006809F07FFB804627486168A8
:10060000006809F079FB81462846216809F074FBEF
:100610008246494609F040F90746414609F02CFD5B
:1006200006461E4800681C4908601C4806603046A3
:1006300009F09CFABDE8F09F0FB4F0B58DB0054607
:100640000F461A9C21464FF07E5009F015FD0646D4
:10065000324617A904A808F064FD04A807C807AB30
:1006600007C3224614A901A808F05BFD01A807C82A
:100670000AAB07C307AA0AA9284608F06EFD0DB009
:10068000F0BC5DF814FB0000DB0FC94000004040E7
:100690000800002004000020100000200C000020B2
:1006A00010B50446204600BF0446204608F052FC20
:1006B000044604F10C0008F04DFCA0F10C0404F118
:1006C000180008F047FCA0F1180404F1240008F019
:1006D00041FCA0F1240404F1300008F03BFCA0F13F
:1006E000300404F13C0007F0ECFBA0F13C0404F101
:1006F000600007F0E6FBA0F1600404F188004FF011
:100700007E5101600021C1608160416000BFA0F1A5
:100710008804204610BD10B5044662224FF47A7159
:10072000F74803F043FE10BD10B50446F54AF649FC
:100730002046FFF71BFEF549086004F13C03F14A2F
:10074000F1492046FFF72CFE04F16003F04AEE4920
:100750002046FFF725FEEF4AEB492046FFF795FEBE
:10076000EA49486010BD10B504462046FFF7DCFF9B
:100770002046FFF7D0FF10BD3EB50446E04803F029
:10078000E7FEDF4803F0B7FFDD49684604F017F8DD
:100790009DE80700C4E90412E060D949684604F006
:1007A00007F89DE80700C4E90A1260623EBD3FB544
:1007B00099B00446239DD848007800F0010048B95C
:1007C000D54807F0C6FB28B1D44808F0C3FBD2488F
:1007D000AFF30080D248007800F0010048B9D0485B
:1007E00007F0B7FB28B1CF4808F0B4FBCC48AFF313
:1007F0000080CD48007800F0010068B9CA4807F0D1
:10080000A8FB48B14FF08B4300221146C74808F0BF
:100810009DFBC548AFF30080C548007800F001009B
:1008200060B9C34807F095FB40B100231A46C1499F
:10083000C14808F08BFBBE48AFF300800AA808F05F
:1008400033FBB84A1AA907A808F087FC07A807C80D
:1008500013AB07C34FF07C5213A904A808F061FC46
:1008600004A807C816AB07C32A4616A901A808F0B2
:1008700058FCAA4801A90EC90EC0AA481AA90EC957
:100880000EC0A6490AA808F08BFAA84A0AA907A828
:1008900008F09AFBA54807A90EC90EC0A64A0AA9E6
:1008A00007A808F091FBA44807A90EC90EC0B4F828
:1008B000980080B2322818DDB4F8980080B29628EB
:1008C00013DA92484068049020A807C801AB07C318
:1008D000964880680090954821460CC807A8FFF705
:1008E000ABFE924807A90EC90EC021468F4808F0FA
:1008F000F7FA2146904808F01DFB1DB030BD2DE9E8
:10090000F04782460C468D490968601A08F09CFD44
:1009100007468B4A8B4B08F0ABFD054608F074FC8C
:100920008146864804604846BDE8F0872DE9F043DB
:1009300095B004460EA808F0CBFA08A808F0C8FA4B
:10094000D4E90A01CDE9000104F13C02214605A8E1
:10095000636AFFF7D1FD05A807C8C4E90D1220633B
:10096000D4E90401CDE9000104F16002214605A8A3
:10097000E368FFF7C1FD05A807C8C4E90712A06135
:1009800004F130052946284608F0AFFB81466E4940
:1009900009F0B2F980464FF0974108F0F1FF0746A1
:1009A00009F0E4F8C4F8980003F046FA0546294631
:1009B0002046FFF7A4FF0646206A0090504905A88C
:1009C000D4E9062303F002FF0396D4E90D12206B4D
:1009D0008DE80700204605A90EC9FFF7E8FE15B00F
:1009E000BDE8F0832DE9F0418CB080460C4603A8A9
:1009F00008F05AFA684608F0ADFA206802F035FEB1
:100A000080F00045606802F030FE80F00046A0688B
:100A100002F02BFE074600950196029700BF69463B
:100A200003A808F0BDF904F1300203A9404608F01C
:100A3000CBFA0CB0BDE8F081F0B599B00446219E28
:100A40000DA808F087FA0AA808F084FA07A808F0A9
:100A500081FA1EAD284608F009FB074639462846AC
:100A600008F081FA00BF0DA904F1880002F02EFF02
:100A70000DAA1EA904A808F08CFB04A807C80AAB9D
:100A800007C3324A0AA904A808F04BFB04A807C808
:100A900016AB07C316A907A808F079FA4FF08042F1
:100AA0000AA904A808F03DFB04A807C810AB07C3B7
:100AB00007AA10A901A808F050FB01A807C813ABAA
:100AC00007C313A904F10C0008F061FA324604F1DF
:100AD0000C0104F1880002F06AFF04F1880002F0C2
:100AE0003BFE04F10803221D214604F1880003F0B7
:100AF000F0F819B0F0BD10B51548FFF7D1FD10BDE5
:100B0000F4030020000048426F12033BC4000020A1
:100B1000000002436666E63F240000207C010020BE
:100B200020000020880100201C00002094010020EB
:100B30001800002000004843A001002014000020FD
:100B40008DEDB5A0F7C6B03E0000C8426F12833AE3
:100B5000E000002070B504460E4615462A4604F112
:100B60000F01FE4803F0D6FF70BD2DE9F0410446A9
:100B70000D461646AA20E073AA212174EF21617464
:100B80000221A174E57426750027002006E004F117
:100B90000F01095C3944CFB2411CC8B20628F6DB0C
:100BA0006775082204F10F012046FFF7D3FFBDE867
:100BB000F0812DE9F04105460C461646002700203D
:100BC00004E0215C3944CFB2411CC8B2711E81429D
:100BD000F7DCA01910F8010CB84201D0BDE8F08193
:100BE0002078AA2802D16078AF2800D0F6E700214B
:100BF000DB488172A078012811D12079012801D128
:100C0000D84908702079022802D10120D5494870BE
:100C10002079032803D10120D24908704870A078B8
:100C2000022816D12079012805D128716871A87190
:100C3000E871287268722079A02801D101202870FB
:100C40002079A12805D1C84801F0ACFCC74802F0C2
:100C500040F9A07803282FD12079617941EA00205A
:100C6000C349C880A079E17941EA0020C049888061
:100C7000207A617A41EA0020BD490880A07AE17AB1
:100C800041EA0020BA494880207B617B41EA00208C
:100C9000B7490881A07BE17B41EA0020B449488143
:100CA000207C617C41EA0020B1498881A07CE17C04
:100CB00041EA0020AE49C881A07810287ED1217970
:100CC000090209B2627941EA020008F0B5FF8046E4
:100CD000A84908F055FEA4490860A179090209B2A3
:100CE000E27941EA020008F0A7FF8046A14908F036
:100CF00047FE9D494860217A090209B2627A41EAB9
:100D0000020008F099FF80469A4908F039FE96499A
:100D10008860A17A090209B2E27A41EA020008F089
:100D20008BFF8046934908F02BFE8F49C861217BD9
:100D3000090209B2627B41EA020008F07DFF8046A9
:100D40008C4908F01DFE88490862A17B090209B29E
:100D5000E27B41EA020008F06FFF8046854908F017
:100D60000FFE81494862217C090209B2627C41EA96
:100D7000020008F061FF80467E4908F001FE7A49D2
:100D80008863A17C090209B2E27C41EA020008F012
:100D900053FF8046774908F0F3FD7349C863217D0E
:100DA000090209B2627D41EA020008F045FF80466F
:100DB000704908F0E5FD6C49086400E004E0A178A2
:100DC0003A462846FFF7D1FEA07811287ED1217936
:100DD000090209B2627941EA020008F02DFF80465B
:100DE000644908F0CDFD60494865A179090209B25E
:100DF000E27941EA020008F01FFF80465D4908F0F1
:100E0000BFFD59498865217A090209B2627A41EA2F
:100E1000020008F011FF8046564908F0B1FD524922
:100E2000C865A17A090209B2E27A41EA020008F033
:100E300003FF80464F4908F0A3FD4B490867217B1B
:100E4000090209B2627B41EA020008F0F5FE804621
:100E5000484908F095FD44494867A17B090209B259
:100E6000E27B41EA020008F0E7FE8046414908F0D3
:100E700087FD3D498867217C090209B2627C41EA0D
:100E8000020008F0D9FE80463A4908F079FD36495B
:100E9000C1F88C00A17C090209B2E27C41EA02009F
:100EA00008F0CAFE8046334908F06AFD2E49C1F8B1
:100EB0009000217D090209B2627D41EA020008F03A
:100EC000BBFE80462B4908F05BFD00E007E02649A9
:100ED000C1F89400A1783A462846FFF746FEA0786C
:100EE000122834D12179090209B2627941EA02005B
:100EF00008F0A2FE80461F4908F042FD1A49C1F8D9
:100F0000A800A179090209B2E27941EA020008F0D9
:100F100093FE8046174908F033FD1349C1F8AC0031
:100F2000217A090209B2627A41EA020008F084FEDD
:100F30008046104908F024FD0B49C1F8B000A178A3
:100F40003A462846FFF711FE084801F0C2FFA07894
:100F5000132813D1A1783A4628460DE04C0400200E
:100F6000C4000020F40300203C0200203C000020CC
:100F7000FA01002000007A44FFF7F7FDA07814285A
:100F800004D1A1783A462846FFF7EFFDA07815284E
:100F900004D1A1783A462846FFF7E7FD00BF1DE6D9
:100FA00010B50446FB4803F032FE10BD2DE9FC5F8E
:100FB00004460E4617469846DDE90CAB0025AA22EA
:100FC00029466D1C04F10F00425429466D1C425401
:100FD00006F10F00C2B229466D1C04F10F00425405
:100FE000002229466D1C4254EB49384608F084FE25
:100FF000009008F0BBFD00B201909DF80520294645
:101000006D1C04F10F0042549DF8042029466D1C0C
:101010004254E149404608F06FFE009008F0A6FDFA
:1010200000B201909DF8052029466D1C04F10F00C7
:1010300042549DF804202846691CCDB204F10F01EA
:101040000A54D549504608F057FE009008F08EFD2E
:1010500000B201909DF805202846691CCDB204F12C
:101060000F010A549DF804202846691CCDB204F1F2
:101070000F010A54C849584608F03EFE009008F097
:1010800075FD00B201909DF805202846691CCDB27F
:1010900004F10F010A549DF804202846691CCDB2C2
:1010A00004F10F010A54BC490E9808F025FE009087
:1010B00008F05CFD00B201909DF805202846691CEF
:1010C000CDB204F10F010A549DF804202846691C92
:1010D000CDB204F10F010A54AF490F9808F00CFE8D
:1010E000009008F043FD00B201909DF805202846CD
:1010F000691CCDB204F10F010A549DF80420284662
:10110000691CCDB204F10F010A54A349109808F0EC
:10111000F3FD009008F02AFD00B201909DF8052033
:101120002846691CCDB204F10F010A549DF8042031
:101130002846691CCDB204F10F010A549649119852
:1011400008F0DAFD009008F011FD00B201909DF862
:1011500005202846691CCDB204F10F010A549DF800
:1011600004202846691CCDB204F10F010A548A49B3
:10117000129808F0C1FD009008F0F8FC00B2019050
:101180009DF805202846691CCDB204F10F010A54D0
:101190009DF804202846691CCDB204F10F010A54C1
:1011A000281FA0744FF00009002007E004F10F0190
:1011B000095C494401F0FF09411CC8B2A842F5DBB3
:1011C0002846691CCDB204F10F0101F800902A46AF
:1011D0002046FFF7BFFCBDE8FC9F2DE9F84304461D
:1011E0000E4617460025AA2229466D1C04F10F0061
:1011F000425429466D1C4254052229466D1C425416
:10120000002229466D1C425400969DF80120294673
:101210006D1C42549DF8002029466D1C42540097D5
:101220009DF8012029466D1C42549DF80020284657
:10123000691CCDB204F10F010A54281FA0744FF0AD
:101240000008002007E004F10F01095C414401F0AF
:10125000FF08411CC8B2A842F5DB2846691CCDB284
:1012600004F10F0101F800802A462046FFF772FCC6
:10127000BDE8F8837FB504460025AA2229466D1CE7
:1012800004F10F00425429466D1C4254062229469F
:101290006D1C4254002229466D1C42549DF80520C5
:1012A00029466D1C42549DF8042029466D1C425469
:1012B0009DF8092029466D1C42549DF808202846B7
:1012C000691CCDB204F10F010A549DF80D20284687
:1012D000691CCDB204F10F010A549DF80C20284678
:1012E000691CCDB204F10F010A549DF82120284653
:1012F000691CCDB204F10F010A549DF82020284644
:10130000691CCDB204F10F010A549DF8252028462E
:10131000691CCDB204F10F010A549DF8242028461F
:10132000691CCDB204F10F010A549DF8292028460A
:10133000691CCDB204F10F010A549DF828202846FB
:10134000691CCDB204F10F010A549DF82D202846E6
:10135000691CCDB204F10F010A549DF82C202846D7
:10136000691CCDB204F10F010A549DF831202846C2
:10137000691CCDB204F10F010A549DF830202846B3
:10138000691CCDB204F10F010A54281FA074002675
:1013900000200AE04C04002000007A4404F10F0110
:1013A000095C3144CEB2411CC8B2A842F6DB2846E3
:1013B000691CCDB204F10F010E542A462046FFF7F6
:1013C000C9FB7FBD7FB504460025AA2229466D1CB6
:1013D00004F10F00425429466D1C42540322294651
:1013E0006D1C4254002229466D1C42549DF8052074
:1013F00029466D1C42549DF8042029466D1C425418
:101400009DF8092029466D1C42549DF80820284665
:10141000691CCDB204F10F010A549DF80D20284635
:10142000691CCDB204F10F010A549DF80C20284626
:10143000691CCDB204F10F010A549DF82120284601
:10144000691CCDB204F10F010A549DF820202846F2
:10145000691CCDB204F10F010A549DF825202846DD
:10146000691CCDB204F10F010A549DF824202846CE
:10147000691CCDB204F10F010A549DF829202846B9
:10148000691CCDB204F10F010A549DF828202846AA
:10149000691CCDB204F10F010A549DF82D20284695
:1014A000691CCDB204F10F010A549DF82C20284686
:1014B000691CCDB204F10F010A549DF83120284671
:1014C000691CCDB204F10F010A549DF83020284662
:1014D000691CCDB204F10F010A549DF8352028464D
:1014E000691CCDB204F10F010A549DF8342028463E
:1014F000691CCDB204F10F010A549DF83920284629
:10150000691CCDB204F10F010A549DF83820284619
:10151000691CCDB204F10F010A54281FA0740026E3
:10152000002006E004F10F01095C3144CEB2411CF9
:10153000C8B2A842F6DB2846691CCDB204F10F01FF
:101540000E542A462046FFF705FB7FBD2DE9F843E0
:1015500004460E4617460025AA2229466D1C04F1B2
:101560000F00425429466D1C4254072229466D1C27
:101570004254002229466D1C425400969DF80320D7
:1015800029466D1C42549DF8022029466D1C425488
:101590009DF8012029466D1C42549DF800202846E4
:1015A000691CCDB204F10F010A5400979DF8012087
:1015B0002846691CCDB204F10F010A549DF80020A1
:1015C0002846691CCDB204F10F010A54281FA074EB
:1015D0004FF00008002007E004F10F01095C4144CE
:1015E00001F0FF08411CC8B2A842F5DB2846691C7F
:1015F000CDB204F10F0101F800802A462046FFF722
:10160000A9FABDE8F8832DE9F84F04460E461746BF
:101610009846DDE90AAB0025AA2229466D1C04F193
:101620000F00425429466D1C4254022229466D1C6B
:101630004254002229466D1C425400969DF8012018
:1016400029466D1C42549DF8002029466D1C4254C9
:1016500000979DF8012029466D1C42549DF80020FA
:101660002846691CCDB204F10F010A54CDF8008060
:101670009DF801202846691CCDB204F10F010A54DF
:101680009DF800202846691CCDB204F10F010A54D0
:10169000CDF800A09DF801202846691CCDB204F1C8
:1016A0000F010A549DF800202846691CCDB204F1B0
:1016B0000F010A54CDF800B09DF801202846691C9E
:1016C000CDB204F10F010A549DF800202846691C90
:1016D000CDB204F10F010A540C9800909DF801203E
:1016E0002846691CCDB204F10F010A549DF8002070
:1016F0002846691CCDB204F10F010A540D980090E0
:101700009DF801202846691CCDB204F10F010A544E
:101710009DF800202846691CCDB204F10F010A543F
:101720000E9800909DF801202846691CCDB204F166
:101730000F010A549DF800202846691CCDB204F11F
:101740000F010A540F9800909DF801202846691C4B
:10175000CDB204F10F010A549DF800202846691CFF
:10176000CDB204F10F010A54281FA0744FF00009F4
:10177000002007E004F10F01095C494401F0FF0972
:10178000411CC8B2A842F5DB2846691CCDB204F161
:101790000F0101F800902A462046FFF7DBF9BDE86B
:1017A000F88F2DE9FE4F04460E4617469846DDE9B0
:1017B0000CAB0025CDF804A0AA2229466D1C04F12B
:1017C0000F00425429466D1C4254012229466D1CCB
:1017D0004254002229466D1C4254FE49304608F00E
:1017E0008BFA009008F0C2F900B202909DF809202F
:1017F00029466D1C04F10F0042549DF8082029462B
:101800006D1C4254F349384608F076FA009008F00F
:10181000ADF900B202909DF8092029466D1C04F133
:101820000F0042549DF808202846691CCDB204F1EF
:101830000F010A54E749404608F05EFA009008F0AC
:1018400095F900B202909DF809202846691CCDB296
:1018500004F10F010A549DF808202846691CCDB2F6
:1018600004F10F010A549DF807202846691CCDB2E7
:1018700004F10F010A549DF806202846691CCDB2D8
:1018800004F10F010A549DF805202846691CCDB2C9
:1018900004F10F010A549DF804202846691CCDB2BA
:1018A00004F10F010A542846691CCDB204F10F015E
:1018B00001F800B029466A1CD5B204F10F020E9857
:1018C0005054281FA0744FF00009002007E004F1D5
:1018D0000F01095C494401F0FF09411CC8B2A8424C
:1018E000F5DB2846691CCDB204F10F0101F8009028
:1018F0002A462046FFF72EF9BDE8FE8F2DE9FF416D
:1019000004460E460025AA2229466D1C04F10F004C
:10191000425429466D1C4254002229466D1C4254F3
:1019200029466D1C425429466D1C46549DF80920D9
:1019300029466D1C42549DF8082029466D1C4254CE
:101940009DF80D202846691CCDB204F10F010A5400
:101950009DF80C202846691CCDB204F10F010A54F1
:101960009DF829202846691CCDB204F10F010A54C4
:101970009DF828202846691CCDB204F10F010A54B5
:101980009DF82D202846691CCDB204F10F010A54A0
:101990009DF82C202846691CCDB204F10F010A5491
:1019A000281FA0740027002006E004F10F01095C45
:1019B0003944CFB2411CC8B2A842F6DB2846691CA4
:1019C000CDB204F10F010F542A462046FFF7C2F8AA
:1019D000BDE8FF812DE9F04F87B004467E480078CE
:1019E0007E49097890FBF1F201FB12017B480078F7
:1019F000401E814201D10120A070774800787849CB
:101A0000097890FBF1F201FB120175480078401E45
:101A1000814201D10120E0706F4800787149097856
:101A200090FBF1F201FB12016E480078401E8142EA
:101A300001D101206073684800786B49097890FBF8
:101A4000F1F201FB120168480078401E814201D189
:101A500001206070604800786449097890FBF1F2D9
:101A600001FB120161480078401E814201D1012032
:101A7000A072594800785E49097890FBF1F201FBA9
:101A800012015B480078401E814201D10120207381
:101A9000514800785749097890FBF1F201FB120197
:101AA00054480078401E814201D10120A0734A4869
:101AB0000078401C48490870207868B100202070E8
:101AC0004FF4C8716E234FF49672CDE900100121D6
:101AD0002046FFF713FF35E1607888B10020607081
:101AE0004548407A002245498968CDE900120290B4
:101AF00043488368426801682046FFF752FE21E1AF
:101B0000607B10B1002060731CE1A078F0B300206E
:101B1000A0703A49086B08F029F805B23749486ABD
:101B200008F024F806B23649486908F01FF807B2F1
:101B30003349086908F01AF80FFA80F83049C86884
:101B400008F014F80FFA80F92D49C86A08F00EF869
:101B50000FFA80FA2A49886A08F008F80FFA80FB21
:101B60002749486A08F002F800B2069023488088A6
:101B700000B253465A46CDE90098CDE90276CDE948
:101B8000040520460699FFF73EFDDBE0FFE7E0781D
:101B900038B10020E070002211462046FFF7D6FC45
:101BA000D0E0A07A80B30020A0721648408A154980
:101BB000098A144AD289134B9B89CDE90332CDE9B6
:101BC0000510104840890F4909890E4A5288CDE90D
:101BD00000211AE00000C84228000020290000204F
:101BE0002F0000202A0000202B0000202C000020C5
:101BF0002D0000202E000020C4000020380300200B
:101C0000E0000020FA01002008E002905A48038812
:101C10008288C1882046FFF7D5FB93E0207B50B334
:101C20000020207305A9554800F0E4F900200AE0DF
:101C300005A931F81010A1F57A7109B205AA22F8A8
:101C40001010411CC8B20428F2DB00200190029061
:101C500003900490BDF81A0080B20090BDF81800FF
:101C600083B2BDF8160082B2BDF8140081B22046DE
:101C7000FFF700FB66E0A07B40B10020A0734FF4AB
:101C8000E4727B212046FFF7A8FA5BE02079E8B1F7
:101C9000002020713A48026CC06B3949896B384B7F
:101CA0005B6ACDE90331CDE905023548006A344964
:101CB000C969334A9268CDE90021029030484368EF
:101CC000012102682046FFF771F93BE0607900B31B
:101CD000002060712A48D0F89420D0F8900028495C
:101CE000D1F88C10264B9B6FCDE90331CDE905026D
:101CF0002348406F2249096F214AD26DCDE9002166
:101D000002901F48836D0221426D2046FFF74EF975
:101D100018E0A079B0B10020A07103900490059064
:101D20000146024606901648D0F8B000CDE90121E0
:101D300000901348D0F8AC300321D0F8A8202046FA
:101D4000FFF734F907B0BDE8F08F0E4909781E2976
:101D50000CDD00210B4A11700B49897A19B9012257
:101D600009498A7202E0002207494A720549097846
:101D7000491C044A11707047FA010020EE0100204E
:101D80003C02002030000020C4000020014600205A
:101D900005E04FF47A7221F81020421CD0B20628D8
:101DA000F7DB70472DE9F04F8FB004460D4616461D
:101DB0009B46DDF86090484607F02FFBCDE90A010D
:101DC000584607F02AFB0746914A924B07F050FB12
:101DD000CDE90601304607F020FB00228E4BCDE90D
:101DE000000107F045FB07468846284607F02CFB14
:101DF0003A464346CDE9020107F038FCCDE904013B
:101E0000DDE9062307F032FACDE90801DDE90A230E
:101E100007F02CFACDE90C0107F0D0FA00B22080CF
:101E2000484607F0FAFACDE90A01584607F0F5FAF4
:101E30000746774A774B07F01BFBCDE90601304692
:101E400007F0EBFA07460022734B07F011FBCDE9D0
:101E50000201284607F0F8FACDE90001DDE9022386
:101E600007F004FCCDE90401DDE9062307F0FEFBE1
:101E7000CDE90801DDE90A2307F0F8F9CDE90C0105
:101E800007F09CFA00B26080484607F0C6FACDE938
:101E90000A01584607F0C1FA07465D4A5D4B07F054
:101EA000E7FACDE90601304607F0B7FA00225A4BAF
:101EB000CDE9000107F0DCFA07468846284607F01E
:101EC000C3FA3A464346CDE9020107F0CFF9CDE91E
:101ED0000401DDE9062307F0C9F9CDE90801DDE9D0
:101EE0000A2307F0C3FBCDE90C0107F067FA00B243
:101EF000A080484607F091FACDE90A01584607F05C
:101F00008CFA0746424A434B07F0B2FACDE9060184
:101F1000304607F082FA074600223F4B07F0A8FA46
:101F2000CDE90201284607F08FFACDE90001DDE98D
:101F3000022307F09BF9CDE90401DDE9062307F050
:101F400095FBCDE90801DDE90A2307F08FFBCDE918
:101F50000C0107F033FA00B2E080A81BA0EB0900E7
:101F600000B22081A819484400B26081B4F900A0F1
:101F7000012007E034F91010514501DD34F910A0BB
:101F8000411CC8B20628F5DB002719E040F26C704E
:101F9000824507DD34F81710AAF26C70081A00B2F7
:101FA00024F8170034F8171088B240F26C7240F22F
:101FB0004C4101F033FB00B224F81700781CC7B283
:101FC000062FE3DB1548407A10B92046FFF7DEFE06
:101FD0001248007B38B91248C088B0F5966F02DA13
:101FE0002046FFF7D3FE21460E4802F0FAFE0FB05E
:101FF000BDE8F08F02880A8042884A8082888A8001
:10200000C288CA8002890A8142894A8170470000D9
:1020100083C0CAA145B6EB3F0000E03FC4000020EA
:10202000FA0100207C00002030B50146002013E0BA
:1020300000FB00F2193A32235A4302F6C41242431B
:102040005A4340F6C41392FBF3F213B201F11C029F
:1020500022F81030421CD0B20728E9DB00202EE025
:1020600000EB80046400A4F132020123002A00DDA9
:102070003223002A00DA3223002503FB03F495FB08
:10208000F4F4643454430A2594FBF5F404F5FA742B
:1020900025B201F12A0424F8105034F910404FF40D
:1020A00048756C434FF47A7594FBF5F404F24C4494
:1020B00025B201F12A0424F81050421CD0B20C2899
:1020C000CEDB30BD10B504462046FFF7ADFF2046FD
:1020D00010BD2DE9F05F0446002060E034F81010D8
:1020E000A1F2DC51002904DD34F81010A1F2DC511A
:1020F00004E034F8101040F2DC52511AB1F5FA7FC6
:1021000010DA34F81010A1F2DC51002904DD34F8A3
:102110001010A1F2DC5107E034F8101040F2DC524C
:10212000511A01E04FF4FA710E4602281FD06421C3
:1021300096FBF1F504F11C016A1C31F9122031F90A
:102140001510511A05EBC50202EB0512A6EB82022F
:102150005143642291FBF2F204F11C0131F8151095
:1021600011440AB204F1140121F8102005E0714273
:102170000AB204F1140121F8102034F8101040F2D2
:10218000DC52914209DA04F1140131F8101049428D
:102190000AB204F1140121F81020411CC8B203282E
:1021A0009CDBE0884FF4FA624FF4966101F036FA56
:1021B0000646A6F596604FF47A7148434FF448718D
:1021C000B0FBF1F6642096FBF0F59248007B08BB6B
:1021D00004F12A00691C30F9111030F91500081AB1
:1021E00005EBC50101EB0511A6EB81014843642114
:1021F00090FBF1F104F12A0030F81500084401B217
:102200006183E0884FF4FA624FF4966101F006FAB8
:1022100001B26183B4F91800002802DDB4F9180096
:1022200002E0B4F918004042462832DAE088B0F5FE
:10223000966F2EDD784AD2F88410906807F01CFF64
:10224000804607F093FC07B217F1B40F02DC07F5E4
:10225000B47007B2B42F02DBA7F5B47007B27842AE
:1022600007B2384607F0E8FC83466C48016F5846D1
:1022700007F042FD8146B4F9180007F0DDFC824604
:10228000494607F0F9FE804607F070FC01B2218351
:1022900004E0614880686049C1F88400BDE8F09FAF
:1022A0000146002033E031F81020B2F5617F04DBF5
:1022B00031F81020B2F5FA6F00DD2AE031F8102075
:1022C000B2F5966F07DA564A125C564B1B781A43E2
:1022D000544B1A7006E0524A135C524A12789A43E1
:1022E000504B1A7031F81020B2F5E16F07DD4E4AFD
:1022F000125C4C4B1B781A434A4B1A7006E04A4A50
:10230000135C484A12789A43464B1A70401C0428C2
:10231000C9DB00BF434A12784AB1444A1278FA2A0C
:102320000ADA424A1278521C404B1A7004E000222A
:102330003E4B1A703B4B1A703C4A1278642A29D1E2
:10234000344A527A6AB1374A127802F01002E2B186
:10235000344A127802F04002BAB100232D4A537277
:1023600013E0304A127802F0200272B12D4A12783E
:1023700002F040024AB1274A127A1AB10123254AD3
:10238000537202E001222A4B5A700022254B1A7028
:10239000264B1A70704727494989002933DD2549A2
:1023A000498940F6340291422DDA224949890029AF
:1023B00009DD2049498940F21452914203DA002292
:1023C00014490A731FE01B494989B1F5AF6F0BDD52
:1023D00018494989B1F5C86F06DA0E49097B91B9E8
:1023E00001220C490A730EE01249498940F2A462A5
:1023F000914208DD0F49498940F63402914202DAE0
:10240000012204490A73704700B50A48FFF75AFED3
:1024100000BD0000C4000020E00000203C020020BD
:1024200042A200083200002046A20008310000202D
:10243000F4030020FA0100202DE9F05F04460E4667
:1024400017460021A06807F05DFB3AD0002138460E
:1024500007F058FB35D0A06920F00041C1F1FF41E1
:10246000C90F19B100250020A06108E06169701A48
:1024700007F0E2FB8046394607F082FA0546284617
:10248000A16907F0F9FD82463946454807F004FA8C
:1024900083465946384607F073FA8146514607F09D
:1024A0002BFC8046A16907F0F7F905466661A56136
:1024B0002946A06807F020FC804607F057FBBDE8DE
:1024C000F09F0020FBE72DE9F04704460E46154635
:1024D0000021606807F016FB22D00021284607F093
:1024E00011FB1DD0304607F0A7FB8146616807F05D
:1024F00003FC8046294607F0FFFB0746216907F0E9
:10250000CBF92061E06880F0004702463946206937
:1025100001F055F82061206907F028FBBDE8F0873D
:102520000020FBE72DE9F04104460D46284607F060
:1025300083FB0746216807F0DFFB064607F016FB22
:10254000BDE8F0812DE9F04104460D4616462946C6
:102550002046FFF7E7FF0746324629462046FFF7A9
:10256000B2FF0744324629462046FFF765FF38444C
:10257000BDE8F0812DE9F04104460D461646294696
:102580002046FFF7CFFF0746324629462046FFF791
:102590009AFF3844BDE8F0810021016170470000D6
:1025A0000361023C38B50446FD48FE4BFE4A114625
:1025B0000090204605F094FCF948FA4BFA4A11467F
:1025C000009004F11C0005F08BFCF5480023F74A4D
:1025D000F749009004F1380005F082FC0020034622
:1025E0000246F449009004F1540005F079FC002003
:1025F000034602464FF08041009004F1700005F060
:102600006FFCED48ED4B4FF07C524FF07F51009046
:1026100004F18C0005F064FCE14800231A464FF0F9
:102620007E51009004F1A80005F05AFC38BD10B5A9
:10263000044607231C22E249204605F078FC0446A4
:1026400004F1D40006F086FCA0F1D40404F1E0000B
:1026500006F080FCA0F1E00404F1EC0006F07AFC46
:10266000A0F1EC04962084F8C400322084F8C50060
:102670002046FFF797FF204610BD2DE9F04188B0B6
:10268000044603A806F066FCCE490868CE4907F068
:1026900033FB0746CD49B1F9141048004FF4AF722F
:1026A000514200F0C6FF804607F0C6FA064639469A
:1026B00007F0E2FC054607F059FA0690C149486860
:1026C000C14907F019FB0746C049B1F91610480087
:1026D0004FF4AF72514200F0ACFF804607F0ACFA05
:1026E0000646394607F0C8FC054607F03FFA079052
:1026F0000221069800F0A8FF06900221079800F03A
:10270000A3FF07904FF08142AE491831684606F0AA
:10271000B4FC9DE8070003AB07C304F1540006991D
:10272000FFF700FF074607F087FA0646039907F010
:10273000A3FC054607F01AFAC4F8C80004F15400D7
:102740000799FFF7EFFE074607F076FA0646049969
:1027500007F092FC054607F009FACC21085194F8DD
:10276000C5009A49B1F9181000FB01F5E91705EB0E
:10277000D161481107F060FA0746059907F07CFC23
:10278000064607F0F3F9D021085108B0BDE8F08102
:102790002DE9FF4705468B494868002107F078FB83
:1027A00002D28848406803E08648406880F00040D4
:1027B000074684490868002107F06AFB02D2814875
:1027C000006803E07F48006880F00040804639469A
:1027D00007F05EFB0DD27B490868002107F058FB2B
:1027E00002D27848006811E07648006880F0004026
:1027F0000CE074494868002107F04AFB02D2714896
:10280000406803E06F48406880F000400446704A2A
:10281000002100F0D4FE064600241AE06B48C08870
:10282000B0F5966F05DAC4EBC40105EB8100FFF744
:10283000B3FE05F1C80252F82410C4EBC40205EB44
:1028400082005E4AFFF77EFE01A941F82400601C69
:10285000C4B2032CE2DB5D4BB3F91830002B03DD6F
:102860005A4BB3F9183003E0584BB3F918305B42B8
:1028700003F59672554BB3F91830002B03DD534B1B
:10288000B3F9183003E0514BB3F918305B42514CA7
:10289000E11A039800F0CDFE404203904E48007BC1
:1028A000D8B9304600F0E1FE824605F0CDFD804605
:1028B0004649B1F91A10A1F57A7007F0BDF98146C1
:1028C000414607F05DF80746444906F0E5FF044637
:1028D00007F04CF901B23D484183039800903B4812
:1028E000408B81B23E48DDE90123FFF75BFABDE88A
:1028F000FF873C49096BC0F8F81070472DE9F04795
:10290000054664263148C088A0F2DC5004B2002C91
:1029100001DD204600E06042B04225DDA6F1500115
:10292000204600F091FE04B2002C0BDD04FB04F005
:102930004FF4FA7190FBF1F8404607F07DF9E82179
:1029400048510AE0604260434FF42F7190FBF1F868
:10295000404607F071F9E82148512846FFF7C9FFC2
:1029600001202149087054E01F48007830B1284602
:10297000FFF7BFFF00201C4908704AE0194A116B9D
:10298000D5F8F80007F078FB814607F0EFF88046AD
:102990004FF4FA72514200F04CFE07460A2125E03E
:1029A000000048430AD7A33C9A99193E6666E63E62
:1029B000CDCC4C3F0000A040000016436F12033BFB
:1029C000EF7E0008E000002000002041FA01002016
:1029D0000000A041D4FEFFFFC400002000007A44A4
:1029E000EE0100203803002034000020384600F0BB
:1029F0002BFE0746394605F1A800FFF793FD8146F7
:102A0000C822514200F015FE804607F015F9E82172
:102A10004851BDE8F0872DE9FE4F044640F20E60B4
:102A200002906B494868002107F032FA02D26848E8
:102A3000406803E06648406880F00040064664490C
:102A40000868002107F024FA02D26148006803E018
:102A50005F48006880F000400746314607F018FAEA
:102A60000DD25B490868002107F012FA02D25848DB
:102A7000006811E05648006880F000400CE05449BE
:102A80004868002107F004FA02D25148406803E088
:102A90004F48406880F0004005464E4A002100F053
:102AA0008EFD834601F0C8F94B490968401A019030
:102AB00006F0CAFC0746494A494B06F0D9FC0546D0
:102AC00006F0A2FB814601F0B7F943490860454A88
:102AD000516AE822105907F0CFFADC210851085951
:102AE00007F044F80746394604F18C00FFF71AFD59
:102AF00006464FF49672514200F09BFD054607F0E2
:102B00009BF8F4210851DC21085907F02FF80746FB
:102B10004A46394604F18C00FFF7D5FC064607F01B
:102B20008BF80546F4200159284606F0B5FEF4213D
:102B30000851DC21085907F019F880464A464146F9
:102B400004F18C00FFF778FC0746C822514200F0E0
:102B500070FD064607F070F80546F4200159284636
:102B600006F09AFEF4210851584600F07EFD0090D0
:102B700005F06AFC80460299A1F57A7007F05CF8CE
:102B80004146019006F0FCFE0746174906F084FE18
:102B90000646F4200159304606F07EFE054606F052
:102BA000E5FF0FFA80FA1148007B48B140F26C72E1
:102BB00040F27E41504600F03CFD01B20C4841839A
:102BC000BDE8FE8F10B50B48FFF731FD10BD0000CA
:102BD000E00000200000A041380000208DEDB5A0ED
:102BE000F7C6B03E3803002000007A44C40000203D
:102BF000FA0100203C02002010B50446FE49088876
:102C0000FE49098802F088FB10BD1CB50446FA494C
:102C10000889694602F0DBF9F74948890DF102019C
:102C200002F0D5F9F449888901A902F0D0F9BDF87C
:102C3000000000B2F2490881BDF8020001B2F0487C
:102C40004181BDF8040001B2ED4881811CBD1CB575
:102C50000446E9494888694602F0B9F9E649888896
:102C60000DF1020102F0B3F9E349C88801A902F0AD
:102C7000AEF9BDF8000000B2E1494880BDF802009D
:102C800001B2DF488180BDF8040001B2DC48C18098
:102C90001CBD38B50446D849C889694602F097F981
:102CA000BDF8000006F0E0FF0546D64906F068FED4
:102CB000D5490860D049088A694602F088F9BDF80C
:102CC000000006F0D1FF0546CE4906F059FECE4978
:102CD0004860C949488A694602F079F9BDF80000A0
:102CE00006F0C2FF0546C94906F04AFEC64988609B
:102CF000C149888A694602F06AF9BDF8000006F009
:102D0000B3FF0546BF4906F03BFEBF49C861BA495B
:102D1000C88A694602F05BF9BDF8000006F0A4FF1E
:102D20000546B84906F02CFEB7490862B249088B3F
:102D3000694602F04CF9BDF8000006F095FF054623
:102D4000B24906F01DFEB0494862AB49488B69465E
:102D500002F03DF9BDF8000006F086FF0546A949DE
:102D600006F00EFEA8498863A349888B694602F0E5
:102D70002EF9BDF8000006F077FF0546A14906F0E0
:102D8000FFFDA149C8639C49C88B694602F01FF941
:102D9000BDF8000006F068FF05469C4906F0F0FD0E
:102DA000994908649449088C694602F010F9BDF805
:102DB000000006F059FF0546924906F0E1FD9249F0
:102DC000C1F8A8008C49488C694602F000F9BDF8AA
:102DD000000006F049FF05468A4906F0D1FD8A4900
:102DE000C1F8AC008449888C694602F0F0F8BDF85F
:102DF000000006F039FF0546844906F0C1FD82490E
:102E0000C1F8B0007C49C88C694602F0E0F8BDF812
:102E1000000006F029FF05467A4906F0B1FD7A491F
:102E200048657549088D694602F0D1F8BDF8000083
:102E300006F01AFF0546734906F0A2FD724988653F
:102E40006D49488D694602F0C2F8BDF8000006F0F1
:102E50000BFF05466D4906F093FD6B49C865664951
:102E6000888D694602F0B3F8BDF8000006F0FCFE5C
:102E70000546644906F084FD634908675E49C88DCC
:102E8000694602F0A4F8BDF8000006F0EDFE054624
:102E90005C4906F075FD5C4948675749088E6946EC
:102EA00002F095F8BDF8000006F0DEFE0546574931
:102EB00006F066FD5449886738BD10B504462046C3
:102EC000FFF7E7FE2046FFF7C2FE2046FFF79DFE14
:102ED00010BD70B505464C4908684A4906F00CFF1C
:102EE000064606F089FE84B24349C889214602F0AD
:102EF00013FA45494868434906F0FEFE064606F0C7
:102F00007BFE84B23C49088A214602F005FA3E491C
:102F100088683E4906F0F0FE064606F06DFE84B273
:102F20003549488A214602F0F7F93749C8693549D9
:102F300006F0E2FE064606F05FFE84B22E49888A5D
:102F4000214602F0E9F93049086A2E4906F0D4FE1C
:102F5000064606F051FE84B22749C88A214602F08F
:102F6000DBF92949486A294906F0C6FE064606F0FB
:102F700043FE84B22049088B214602F0CDF9224954
:102F8000886B204906F0B8FE064606F035FE84B28E
:102F90001949488B214602F0BFF91B49C86B1949F2
:102FA00006F0AAFE064606F027FE84B21249888B78
:102FB000214602F0B1F91449086C144906F09CFE50
:102FC000064606F019FE84B20B49C88B214602F072
:102FD000A3F90D49D1F8A8000A4906F08DFE06466E
:102FE00006F00AFE84B20449088C214602F094F9E6
:102FF0000549D1F8AC000BE04AA200083E000020D1
:10300000F40300200000C8423C02002000007A4483
:103010005E4906F071FE064606F0EEFD84B25C499C
:10302000488C214602F078F95A49D1F8B0005A4943
:1030300006F062FE064606F0DFFD84B25449888C35
:10304000214602F069F95349486D504906F054FE93
:10305000064606F0D1FD84B24D49C88C214602F0E7
:103060005BF94C49886D494906F046FE064606F074
:10307000C3FD84B24649088D214602F04DF9454909
:10308000C86D454906F038FE064606F0B5FD84B227
:103090003F49488D214602F03FF93E49086F3B49C0
:1030A00006F02AFE064606F0A7FD84B23849888D50
:1030B000214602F031F93749486F344906F01CFEC9
:1030C000064606F099FD84B23149C88D214602F0CA
:1030D00023F93049886F304906F00EFE064606F0A7
:1030E0008BFD84B22A49088E214602F015F970BD85
:1030F00038B5044626490888694601F068FFBDF8DE
:10310000000038BD10B504462046FFF7F1FF234903
:103110000988884202D02046FFF7DBFE2046FFF7F1
:10312000CCFE2046FFF768FD10BD10B504461C4AD2
:10313000528891B2164A508802F0EEF8184A9288E6
:1031400091B2134A908802F0E7F8154AD28891B2FA
:103150000F4AD08802F0E0F810BD10B50446104ABE
:10316000128991B20A4A108902F0D6F80C4A5289A3
:1031700091B2074A508902F0CFF8094A928991B278
:10318000034A908902F0C8F810BD00000000C84250
:103190004AA200083C02002000007A443E000020C1
:1031A000F403002010B50446204600BF044604F195
:1031B000100005F0CFFEA0F1100404F11C0005F092
:1031C000C9FEA0F11C0404F1280005F0C3FEA0F123
:1031D000280404F1380004F074FEA0F1380404F16E
:1031E0005C0004F06EFEA0F15C0404F19C0005F0AC
:1031F000B1FEA0F19C04204610BD10B50446CC4899
:1032000002F020F910BD10B5044604F13803C94A94
:10321000C9492046FDF7C4F804F15C03C74AC64912
:103220002046FDF7BDF810BD10B504462046FFF757
:10323000EAFF2046FFF7E1FF10BD2DE9F04F87B010
:103240000446BF4800680A2803D0BE480078022818
:103250006FD10020BB4908705521BA4802F0F8FA36
:103260000020B749086000F0E7FDB7490968A0EB06
:10327000010A504606F0E8F80746B44AB44B06F097
:10328000F7F8054605F0C0FF814600F0D5FDAE49D0
:103290000860E06806F0D0FC05462A4604F15C01AF
:1032A0002046FDF7A0F9A060AA4AA1681268881A12
:1032B00006F0DAFC0646494606F062FB054606F0D3
:1032C00055FC00B26080A349A0680860B4F9020010
:1032D0004FF4FA52514200F0ACF900B26080B4F9F8
:1032E0000200642100F0B0F900B260809949E06802
:1032F0000968884205D198480078401C96490870B2
:1033000002E00020944908709249E0680860A068D3
:1033100000280BDDA068B0F57A7F07DA8E480078C8
:103320001E2803DA012084F8B80002E0002084F8A7
:10333000B80083480068401C8149086087480068DD
:10334000052803D17A4802F092F94FE083480068DB
:103350000A284BD100F070FD81490968A0EB010AF1
:10336000504606F071F80746784A794B06F080F827
:10337000054605F049FF814600F05EFD784908608A
:103380000020764908606A4802F071F9684802F046
:103390008AF9064606F050FC05462A4604F1380133
:1033A0002046FDF7F7F86060D4F8AC206168881A11
:1033B00006F042FC0646494606F0E2FA054606F0EB
:1033C000D5FB00B220806068C4F8AC00B4F90000FE
:1033D0004FF44872514200F02CF900B22080B4F949
:1033E00000000A2100F030F900B220805B4800683C
:1033F000401C5A49086000F01FFD5A490968A0EBBB
:10340000010A504606F020F80546504A504B06F097
:103410002FF8074605F0F8FE814600F00DFD5149F2
:103420000860514901A8FDF7DDFA01A807C804ABFF
:1034300007C3A2614FF08B41A06906F01DFE07464D
:103440004A4906F059FC0646494906F055FC05462E
:103450004FF08B4106F094FAA0614946A06906F04E
:103460004BFC0546616A06F017FA60624946606ADD
:1034700006F042FC0546216B06F00EFA2063606AF6
:1034800006F0DEF905463B4A3B4B05F0F1FF0746E7
:103490008846B4F9000005F0C0FF0546374A384BAE
:1034A00005F0E6FF82463A46434605F0DFFECDE9E9
:1034B000040105F0A9FE6062206B06F0C1F9054623
:1034C0002C4A2D4B05F0D4FF07468846606805F06E
:1034D000A4FF0546294A2A4B05F0CAFF82463A4610
:1034E000434605F0C3FECDE9040105F08DFE2063DF
:1034F00007B0BDE8F08F10B5044600231A46194600
:1035000004F1100005F02BFD00231A46194604F1C2
:103510001C0005F024FD00231A46194604F128007A
:1035200005F01DFD10BD10B51648FFF73BFE10BDA0
:103530004C0600200000A0400AD7A33C00004842EF
:103540004400002095000020500000208DEDB5A023
:10355000F7C6B03E54000020580000204000002074
:103560004C00002048000020E000002014AE1C4168
:103570000000C842D7A3703D0AD7EF3F7B14AE4787
:10358000E17A743F3803002010B50446204604F069
:10359000C7FC08B1002010BD4FF07E51204606F058
:1035A00077FC01D86748F6E76749204606F070FBCC
:1035B00001D86648EFE7204604F084FDEBE72DE9EB
:1035C000F04106460C461546304604F0A9FC50B1C1
:1035D0002946204606F060F907464FF07C5106F078
:1035E0008BFBBDE8F0812146304606F051FB01D24D
:1035F0002046F6E72946304606F04AFC01D2284626
:10360000EFE73046EDE703468B4201DA08467047A4
:10361000934201DD1046FAE71846F8E703468B426D
:1036200001DA08467047934201DD1046FAE7184672
:10363000F8E703468B4201DA08467047934201DD02
:103640001046FAE71846F8E7002801DD024600E0D8
:1036500042428A4201DA002006E0002801DD401AD9
:1036600002E0002800DA0844704710B504463849E3
:10367000204606F041FB10BD10B5044635492046F2
:1036800006F03AFB10BD10B504462146204606F070
:1036900033FB10BD2DE9F04105460C462046FFF7EF
:1036A000F2FF07462846FFF7EEFF8046394606F050
:1036B000F3F8064605F05EFBBDE8F0812DE9F05F0A
:1036C00006460C4615462846FFF7DDFF8146204694
:1036D000FFF7D9FF82463046FFF7D5FF83465146B4
:1036E00006F0DAF88046494606F0D6F8074605F0B7
:1036F00041FBBDE8F09F2DE9FE4F07460C461546FD
:103700001E463046FFF7BFFF02902846FFF7BBFF7B
:1037100001902046FFF7B7FF00903846FFF7B3FF50
:103720008346009906F0B8F88246019906F0B4F88D
:103730008146029906F0B0F8804605F01BFBBDE813
:10374000FE8F0000DB0FC93F000080BFDB0FC9BF49
:1037500034FA8E3CE12E654270B5044694E80F00C1
:10376000FFF7C9FF05462946206806F009F92060E1
:103770002946606806F004F960602946A06806F0F2
:10378000FFF8A0602946E06806F0FAF8E06070BD36
:103790002DE9F04F85B004460D46A168084606F0B5
:1037A000ABFA0746D4E9020106F0A6FA8046616842
:1037B000084606F0A1FA8146D4E9010106F09CFA18
:1037C0008246E168606806F097FA0490D4E9000147
:1037D00006F092FA0390A168206806F08DFA029034
:1037E000E168206806F088FA0190E168084606F072
:1037F00083FA00903846009906F04EF883464FF061
:10380000804106F079FA06464FF07E5106F0A2FBA1
:1038100028605046019906F02FFC06464FF0804183
:1038200006F06AFA68600299049806F035F80646D0
:103830004FF0804106F060FAA8605046019906F00A
:103840002BF806464FF0804106F056FAE8604846ED
:10385000009906F021F883464FF0804106F04CFABB
:1038600006464FF07E5106F075FB286140460399ED
:1038700006F002FC06464FF0804106F03DFA686112
:103880000299049806F0F8FB06464FF0804106F0D6
:1038900033FAA8614046039905F0FEFF06464FF053
:1038A000804106F029FAE8613946484605F0F4FF00
:1038B00083464FF0804106F01FFA06464FF07E51D6
:1038C00006F048FB286205B0BDE8F08F2DE9F0470F
:1038D00004460D46A168206806F00EFA0746E16826
:1038E000606806F009FA8046394606F0C5FB0646D0
:1038F0004FF0804106F000FA2860D4E9020106F09A
:10390000FBF90746D4E9000106F0F6F9804639468E
:1039100005F0C2FF06464FF0804106F0EDF9686001
:10392000A168084606F0E8F980466168084606F096
:10393000E3F98146414605F0AFFF07464FF080416D
:1039400006F0DAF906464FF07E5106F003FBA86058
:10395000BDE8F08770B58CB006460C4603AD28462E
:1039600005F0F8FA054605F10C0005F0F3FAA0F1B0
:103970000C0505F1180005F0EDFAA0F1180500BFDF
:10398000A06880F00040A06003A93046FFF700FF68
:10399000224603A9684605F017FB9DE8070084E866
:1039A0000700A06880F00040A0600CB070BD2DE959
:1039B000F04F8FB0044689469246504605F040FFCE
:1039C000CDE90801D9F80810E06806F095F90490EF
:1039D000D9F80410A06806F08FF90390606880F0B1
:1039E00000400190D9F8001006F086F90290039982
:1039F00006F042FB8346049906F03EFB059005F075
:103A00001FFF07460022F74B05F032FDCDE9060106
:103A1000DDE9082305F02CFD05460E46206805F07B
:103A20000FFF2A463346CDE90A0105F01FFCCDE918
:103A30000C0105F0E9FB2060504605F001FFCDE9DF
:103A40000601D9F80410E06806F056F90490D9F898
:103A50000810A06806F050F90390D9F8001020680B
:103A600006F04AF90290039905F016FF834604997F
:103A700006F002FB059005F0E3FE07460022D94B55
:103A800005F0F6FC0546DDE9062305F0F1FCCDE97D
:103A90000A01606805F0D4FECDE90801DDE90A23DA
:103AA00005F0E4FBCDE90C0105F0AEFB606050468B
:103AB00005F0C6FECDE90801D9F80010E06806F06F
:103AC0001BF90490D9F80810606806F015F9039006
:103AD000D9F80410206806F00FF90290039906F057
:103AE000CBFA8346049905F0D7FE059005F0A8FEB1
:103AF0000022BC4BCDE9060105F0BAFC0746DDE922
:103B0000082305F0B5FCCDE90A01A06805F098FE90
:103B10000546DDE90A2305F0A9FBCDE90C0105F016
:103B200073FBA060504605F08BFECDE90601D9F885
:103B30000010A06806F0E0F80390D9F8041060685F
:103B400006F0DAF88346D9F80810206806F0D4F8B1
:103B50005946029005F0A0FE8046039906F08CFAC3
:103B6000074605F06DFE054600229E4B05F080FCE1
:103B7000CDE90401DDE9062305F07AFCCDE90A016F
:103B8000E06805F05DFECDE90801DDE90A2305F0F6
:103B90006DFBCDE90C0105F037FBE0600FB0BDE82F
:103BA000F08F2DE9F04F85B004460D4616461F46AE
:103BB0004FF07C51284606F09FF8824604F044FC02
:103BC00080464FF07C51304606F096F8824604F06D
:103BD0003BFC81464FF07C51384606F08DF882461A
:103BE00004F032FC04904FF07C51284606F084F833
:103BF000824604F0F9FF03904FF07C51304606F006
:103C00007BF8824604F0F0FF02904FF07C5138467A
:103C100006F072F8824604F0E7FF0190DDE9021039
:103C200006F06AF80090019906F066F88246494667
:103C3000404606F061F80090049906F05DF883466E
:103C4000514605F029FE20604046029906F054F8DE
:103C50000090019906F050F882464946039806F014
:103C60004BF80090049906F047F88346514606F059
:103C700003FA60604946039806F03EF80090019907
:103C800006F03AF882464046029906F035F8009070
:103C9000049906F031F88346514605F0FDFDA06019
:103CA000DDE9021006F028F80090049906F024F8E7
:103CB00082464946404606F01FF80090019906F0FA
:103CC0001BF88346514606F0D7F9E06005B0BDE821
:103CD000F08F2DE9FE4F04460D4616461F468DB364
:103CE000A168084606F008F801906168084606F0E9
:103CF00003F80090019905F0CFFD83464FF0804115
:103D000005F0FAFF82464FF07E5106F023F9814616
:103D1000D4E9020105F0F0FF8346D4E9000105F083
:103D2000EBFF5946019005F0B7FD82464FF0804108
:103D300005F0E2FF4946029004F058FA8046FFF78A
:103D40009BFC2860C6B1E168606805F0D5FF83463A
:103D5000A168206805F0D0FF5946029006F08CF962
:103D600082464FF0804105F0C7FF8146FFF70CFC0B
:103D70008046FFF781FC30608FB36168084605F02C
:103D8000BBFF01902168084605F0B6FF009001993D
:103D900005F082FD83464FF0804105F0ADFF82467D
:103DA0004FF07E5106F068F90290E168206805F056
:103DB000A3FF8346D4E9010105F09EFF5946019017
:103DC00006F05AF982464FF0804105F095FF814692
:103DD000029904F00BFA8046FFF74EFC3860BDE80C
:103DE000FE8F00000000E03F00B585B0684602F09D
:103DF000B4F84F490098B0FBF1F04E49086005B0A7
:103E000000BD4D480068401C4B4908604B48008885
:103E1000401C4A49088008464088401C48800846A3
:103E20008088401C88800846C088401CC88008469E
:103E30000089401C0881704700BF3F4801684FF06F
:103E4000E02082693C4800688142F6D13948006828
:103E500000EB4003C3EBC010C2EBC000354B1B6846
:103E6000B0FBF3F001EB4103C3EBC11300EBC30064
:103E7000704730B50446FFF7DFFF054600BFFFF788
:103E8000DBFF401BA042FAD330BD10B5044603E06F
:103E90004FF47A70FFF7EDFF2000A4F10104F7D191
:103EA00010BD70B54FF4407001F03AFDFFF79CFF74
:103EB000234800684FF47A72B0FBF2F1481EB0F16B
:103EC000807F00D31BE0481E4FF0E0225061501766
:103ED0000F22002807DA13071D0E1A4B00F00F04FB
:103EE000241F1D5503E013071C0E174B1C5400BF65
:103EF00000204FF0E02290610720106100BF00F029
:103F00003EF800F0A1FC59220421104800F073FD96
:103F100045F6C05000F0B6FE4FF4165001F0DEFB3F
:103F200001F014FA03F01BFA01F071F970BD000002
:103F300040420F005C00002060000020D400002000
:103F4000B000002018ED00E000E400E04C04002088
:103F5000704700BFFEE700BFFEE700BFFEE7704707
:103F6000704710B5FFF74DFF10BD704710B5024800
:103F700001F017FC10BD000095000020704708B547
:103F80000121082002F056F84020ADF8000003207F
:103F90008DF8020014208DF803006946E84801F00E
:103FA0008DFD8020ADF8000003208DF80200142064
:103FB0008DF803006946E24801F080FD08BD7047B6
:103FC00000B501464020DE4A143210600846FFF773
:103FD000F6FF8020DA4A143210600846FFF7EFFF40
:103FE0004020D74A103210600846FFF7E8FF8020D3
:103FF000D34A103210600846FFF7E1FF00BD00B55C
:1040000001464020CE4A143210600846FFF7D7FF21
:104010008020CB4A103210600846FFF7D0FF4020C6
:10402000C74A103210600846FFF7C9FFC44808307D
:10403000006800F0800040B14020C14A1432106096
:104040000846FFF7BCFF002000BD4020BC4A1432E8
:1040500010600846FFF7B3FF0120F5E710B50246F0
:1040600008231DE04020B64C143420601046FFF7B2
:10407000A6FF01F0800018B18020241F206003E01B
:104080008020AF4C143420604806010E1046FFF724
:1040900096FF4020AA4C103420601046FFF78FFF97
:1040A0001800A3F10104E3B2DCD14020A44C143485
:1040B000206010BD00B501468020A14A103210607A
:1040C000402010600846FFF77AFF9D4808300068DE
:1040D00008B9012000E0002000F0800008B10020B5
:1040E00000BD8020964A143210600846FFF767FF33
:1040F00093480830006800F0800008B10020EFE726
:1041000080208F4A143210600846FFF758FF0120C4
:10411000E6E7F0B506460F4614461D463046FFF763
:10412000C9FF08B90020F0BD39463046FFF796FFB9
:104130003046FFF764FF20B93046FFF741FF00200B
:10414000F1E721463046FFF789FF3046FFF757FF7A
:1041500029463046FFF782FF3046FFF750FF3046D2
:10416000FFF72EFF0120DEE700B501464020744A2C
:10417000143210600846FFF722FF8020704A103288
:1041800010600846FFF71BFF40206D4A1032106098
:104190000846FFF714FF4020694A143210600846B1
:1041A000FFF70DFF00BD10B5024608230021802057
:1041B000634C1034206016E04806010E4020604C2D
:1041C000143420601046FFF7FAFE4020241F2060C0
:1041D0001046FFF7F4FE5A480830006800F08000EF
:1041E00008B141F001011800A3F10104E3B2E3D1E9
:1041F0004020534C14342060084610BDF0B50646EC
:104200000C4615463046FFF755FF08B90020F0BDB3
:1042100021463046FFF722FF3046FFF7F0FE20B977
:104220003046FFF7CDFE0020F1E729463046FFF784
:1042300015FF3046FFF7E3FE3046FFF73BFF601CFB
:10424000C1B23046FFF70AFF3046FFF7D8FE3046CE
:10425000FFF7A9FF07463046FFF786FF3046FFF716
:10426000AFFE3846D3E700B501464020344A143249
:1042700010600846FFF7A3FE8020314A1432106018
:104280000846FFF79CFE40202D4A10321060084679
:10429000FFF795FE40202A4A143210600846FFF7C7
:1042A0008EFE00BD2DE9F04381460E4617461C46A2
:1042B000DDF81C80B8F1010F02DA0020BDE8F083C0
:1042C0004846FFF7F7FE08B90020F7E731464846B1
:1042D000FFF7C4FE4846FFF792FE20B94846FFF7B5
:1042E0006FFE0020EAE739464846FFF7B7FE48462A
:1042F000FFF785FE4846FFF7DDFE701CC1B2484659
:10430000FFF7ACFE4846FFF77AFE012509E0484674
:10431000FFF749FF04F8010B4846FFF7A4FF681CAC
:10432000C5B24545F3DB4846FFF73DFF04F8010BF6
:104330004846FFF719FF4846FFF742FE0120BDE758
:10434000000C014010B504462046FFF717FE044656
:10435000A01C04F030FE841E04F1080004F02BFEC3
:10436000A0F1080404F11C0004F0F4FDA0F11C0409
:1043700004F1280004F0EEFDA0F1280404F134005B
:1043800004F0E8FDA0F13404204610BD30B503462A
:10439000C822002007E000BF1400A2F10105AAB264
:1043A000FAD1441CE0B28842F5DB30BD2DE9F04182
:1043B00007460D4616462A2E15D006DC052E0CD0D3
:1043C0000A2E0CD0142E16D10BE0622E0DD0BC2E6E
:1043D0000DD0B6F5807F0ED10BE006240DE005244C
:1043E0000BE0042409E0032407E0022405E0012493
:1043F00003E0002401E0022400BF00BF80236B2201
:10440000D0213846FFF785FE05213846FFF7BEFF6D
:104410004FF47A7090FBF5F0401E00F0FF08434621
:104420001922D0213846FFF774FE03236B22D021D6
:104430003846FFF76EFE02233722D0213846FFF7B9
:1044400068FE23461A22D0213846FFF762FE182361
:104450001B22D0213846FFF75CFE10231C22D021FE
:104460003846FFF756FEBDE8F0812DE9F0410446DD
:10447000207800286AD0EA48007800F0010048B9A6
:10448000E74803F066FD28B1E64804F063FDE44820
:10449000AFF30080E448008880B900231A4619462B
:1044A000A01C04F08DFD00231A461946DD4804F0D7
:1044B00056FD0120DC490880BDE8F08104F11C01B3
:1044C000D84804F064FDD8480088C82839D1D648B7
:1044D000008805F0C9FB0646D2490868314605F058
:1044E0004FFA054605F042FB00B26080CE480088D6
:1044F00005F0BAFB0646CB494868314605F040FA5C
:10450000054605F033FB01B2A180C748008805F0DD
:10451000ABFB0746C3498868394605F031FA0646C1
:104520004FF08B4105F0A8FD054605F01FFB01B2D9
:10453000E1800020BC4908802070BC48FEF7F5FDF2
:10454000BAE7B9480088401CB749088000BFB3E704
:104550002DE9FC4104463C22D0212046FFF74EFEC7
:10456000A0733B22D0212046FFF748FEE073A17BD9
:10457000E07B41EA00206188401A00B2ADF80000FB
:104580003E22D0212046FFF739FE20743D22D02163
:104590002046FFF733FE6074217C607C41EA0021F5
:1045A000A088081A00B2ADF802004022D0212046AF
:1045B000FFF724FEA0743F22D0212046FFF71EFE05
:1045C000E074A17CE07C41EA0021E088081A00B296
:1045D000ADF80400BDF9040005F02EFB0546BDF959
:1045E000020005F029FB0646BDF9000005F024FB9A
:1045F00007462B463246394604F11C0004F0AFFC56
:104600002046FFF732FFBDE8FC8170B504466078B4
:1046100000286ED08648007800F0010048B9844830
:1046200003F097FC28B1834804F094FC8048AFF372
:1046300000808148008880B900231A46194604F199
:10464000080004F0BDFC00231A461946794804F01E
:1046500086FC01207849088070BD04F12801754866
:1046600004F095FC74480088C8283DD17248008841
:1046700005F0FAFA06466F490868314605F080F9F8
:10468000054605F073FA00B220816B48008805F0FA
:10469000EBFA064667494868314605F071F9054668
:1046A00005F064FA01B261816348008805F0DCFA24
:1046B000064660498868314605F062F9054605F00E
:1046C00055FA01B2A18100205B49088060705B4807
:1046D000007A28B9012159484172012057490872CE
:1046E0005248FEF73AFDB7E753480088401C52494C
:1046F000088000BFB0E72DE9FC4104464422D021E8
:104700002046FFF77BFD20754322D0212046FFF78E
:1047100075FD6075217D607D41EA00202189401A88
:1047200000B2ADF800004622D0212046FFF766FD1A
:10473000A0754522D0212046FFF760FDE075A17DE0
:10474000E07D41EA00216089081A00B2ADF802005C
:104750004822D0212046FFF751FD20764722D02164
:104760002046FFF74BFD6076217E607E41EA002106
:10477000A089081A00B2ADF80400BDF9040005F0E4
:104780005BFA0546BDF9020005F056FA0646BDF98A
:10479000000005F051FA07462B463246394604F12F
:1047A000280004F0DCFB2046FFF72FFFBDE8FC816A
:1047B00010B5D1E90834CA6980E81C0010BD10B5F5
:1047C000D1E90B348A6A80E81C0010BD0FB470B5C3
:1047D00005460C461A49069805F08EFA0646FEF77D
:1047E00044FF60631649079805F086FA0646FEF70F
:1047F0003CFFA0631249089805F07EFA0646FEF7D2
:1048000034FFE063D4E90E12606B85E8070070BCEA
:104810005DF814FB10B50B48FFF794FD10BD0000C8
:104820006400002034040020680000203C000020C8
:104830006C0000204004002070000020C400002014
:104840008DC1793DF403002000B587B00121082017
:1048500001F0F0FB0121042001F0ECFB01218803B1
:1048600001F0F5FB4FF46040ADF8040001208DF835
:10487000060018208DF8070001A9414801F01EF933
:104880004FF48070ADF8040001208DF80600102070
:104890008DF8070001A93B4801F010F94FF4805052
:1048A000ADF8040001208DF8060010208DF80700F7
:1048B00001A9334801F002F94FF48051304801F06A
:1048C000AAF90020ADF808004FF48270ADF80A0094
:1048D0000020ADF80C00ADF80E00ADF810004FF45C
:1048E0000070ADF812000820ADF814000020ADF8FB
:1048F00016000720ADF8180002A9234803F024F998
:104900000121214803F0C5F907B000BD70B5054687
:104910000C4600BF02211C4803F03FFA0028F9D0E2
:104920002146194803F0E6F900BF0121164803F0BB
:1049300034FA0028F9D0144803F0DEF9C0B270BD93
:1049400010B504464FF480710E4801F064F910BDB3
:1049500010B504464FF480710A4801F05EF910BDAD
:1049600010B504464FF48051054801F054F910BDCC
:1049700010B504464FF48051014801F04EF910BDC6
:10498000000C014000080140003800402DE9F041D2
:1049900005460E4614462846FFF7EAFF31462846EC
:1049A000FFF7B4FF074621462846FFF7AFFF28462A
:1049B000FFF7D6FF3846BDE8F0812DE9F0470746FE
:1049C000884615461E463846FFF7D2FF4146384610
:1049D000FFF79CFF8146002405E0295D3846FFF77C
:1049E00095FF601CC4B2B442F7DB3846FFF7B8FF4E
:1049F0004846BDE8F08770B505460C461646284681
:104A0000FFF7A6FF05239C4A2A212846FFF7D5FF7A
:104A100005239A4A30212846FFF7CFFF01222121A2
:104A20002846FFF7B3FF012222212846FFF7AEFFF9
:104A30001A2224212846FFF7A9FF324625212846BD
:104A4000FFF7A4FF0F2226212846FFF79FFF012C26
:104A50000AD1FF2231212846FFF798FF0F2220219B
:104A60002846FFF793FF51E0022C0AD1FF223121A3
:104A70002846FFF78BFF0E2220212846FFF786FFEE
:104A800044E0032C21D1FF22E1212846FFF77EFFDD
:104A9000FF22E2212846FFF779FF0F222021284636
:104AA000FFF774FF50212846FFF730FF7321284697
:104AB000FFF72CFF01223C212846FFF767FF062263
:104AC0003D212846FFF762FF20E00E2220212846E4
:104AD000FFF75CFFFF22E1212846FFF757FFFF2287
:104AE000E2212846FFF752FF50212846FFF70EFF2C
:104AF00073212846FFF70AFF01223C212846FFF7D1
:104B000045FF06223D212846FFF740FF2846FFF7D4
:104B100017FF70BD70B506460C4615463046FFF7C8
:104B200017FF0523554A2A213046FFF746FF2B463B
:104B30002246A0213046FFF740FF3046FFF700FF36
:104B400070BD70B506460C4615463046FFF700FFAF
:104B50002B462246A8213046FFF72FFF3046FFF7AD
:104B6000EFFE70BD2DE9F0470746884615461E4604
:104B70003846FFF7FDFE41463846FFF7C7FE81463F
:104B8000002406E000213846FFF7C0FE2855601CCF
:104B9000C4B2B442F6DB3846FFF7E2FE4846BDE851
:104BA000F0877CB505460523344A30212846FFF7B7
:104BB00004FF05236A4610212846FFF7D3FF00248F
:104BC00008E01DF804002D49095D884200D003E08B
:104BD000601CC4B2052CF4DB00BF052C01D1012000
:104BE0007CBD0020FCE770B504460D462046FFF76B
:104BF000BFFE29462046FFF789FE00212046FFF729
:104C000085FE06462046FFF7ABFE304670BD70B508
:104C1000054607212846FFF7E6FF044604F040005A
:104C2000C0B160212846FFF7DEFF0646212E0BDAD1
:104C300033462A4661212846FFF794FF324629462B
:104C40000F48FBF7B6FF04E0FF22E2212846FFF7FA
:104C50009DFE00BF04F0100038B104F0010020B147
:104C6000FF22E1212846FFF791FE22462721284610
:104C7000FFF78CFE70BD000077000020720000205E
:104C8000AC01002030B589B0054601210C2001F0AF
:104C9000D1F90F20ADF8040003208DF8060018208C
:104CA0008DF8070001A96D4800F008FF0320ADF85A
:104CB000040001A96A4800F001FF00BF0121084675
:104CC00001F0C5F94FF47A70684366490968B1FB91
:104CD000F0F0401E84B240F2E730ADF81C00ADF8B1
:104CE00018400020ADF81E00ADF81A0006A94FF0DC
:104CF000804001F0D7FA6020ADF808000120ADF83F
:104D00000A000020ADF80E00ADF8100002A94FF027
:104D1000804001F004FB0821C80601F04FFF02A902
:104D20004FF0804001F03DFB0821C80601F04FFF25
:104D300002A94FF0804001F081FB0821C80601F074
:104D400053FF02A94FF0804001F0C3FB0821C806C1
:104D500001F053FF0121880701F000FF01218807BE
:104D600001F0FCFD0121022001F071F93D480068CD
:104D70003D49B0FBF1F0401E84B240F2E730ADF89F
:104D80001C00ADF818400020ADF81E00ADF81A0068
:104D900006A9364801F086FA6020ADF80800012027
:104DA000ADF80A000020ADF80E00ADF8100002A921
:104DB0002E4801F043FB08212C4801F015FF02A901
:104DC0002A4801F086FB0821284801F016FF01213E
:104DD000264801F0C3FE0121244801F0BFFD09B0BF
:104DE00030BD0246002014E031F91030B3F57A7F6F
:104DF00004DA4FF47A7321F8103008E031F91030FA
:104E0000B3F5FA6F03DD4FF4FA6321F81030431C59
:104E1000D8B20628E8DB0888A0F57A704FF0804306
:104E200098864888A0F57A70104B3C3318808888A3
:104E3000A0F57A704FF080439887C888A0F57A7003
:104E40000A4B403318800889A0F57A701B06188732
:104E50004889A0F57A70064B188070470008014019
:104E6000000C0140B000002000366E01000400403C
:104E700040000040034606210622F7480188F74813
:104E80000288ABB1012B1BD13AB94EF6EE608142DC
:104E900001D1002070470120FCE739B94EF6EE60E1
:104EA000824201D10120F5E70020F3E7AB20F1E7D2
:104EB00009B90020EEE70AB90120EBE7AB20E9E7EA
:104EC0000020E7E770B5042600240120FFF7D2FF99
:104ED0000446AB2C06D1E04800EB8420E049086092
:104EE000AB2070BDDC4800EB8420DD490860601C0D
:104EF000D949891E01EB80250CE0D948006800687B
:104F0000401C10B904263046EBE7D5480068001D68
:104F1000D3490860D2480068A842EED38020E0E779
:104F200010B50424CC4802F05FFA0446042C01D0EA
:104F3000204610BD0021C84802F059FB0446042C4D
:104F400001D02046F5E7C54802F04EFA0446204657
:104F5000EFE72DE9F04104460F4604250026DFF86F
:104F600004830120FFF786FF0646AB2E01D1BDE882
:104F7000F081701CB849891E01EB802821E0B848F7
:104F800000680068401CB8B93946B548006802F0AE
:104F90002EFB0546042D01D02846E8E72146B048FF
:104FA0000068801C02F023FB0546AD480068001D28
:104FB000AB4908602846DAE7A9480068001DA849FF
:104FC0000860A74800684045D9D38020CFE72DE985
:104FD000F04706460F46002545F255584FF00109A7
:104FE0009D4CA2460020FFF745FF0546AB2D01D1A1
:104FF000BDE8F087984800EB852A99480068841E30
:105000000AE0B4F80080B04505D134F8020C3880CD
:105010004FF0000904E0241F0AF102008442F0D896
:1050200000BF4846E4E72DE9F0474FF0060A0626A0
:1050300000250027A8464FF0FF398748B0F800A0A8
:10504000864806885FEA0A0075D0A0F56E40EE3803
:1050500058B3A0F58850113800286DD146B97E4864
:1050600002F0C2F90446042C1ED02046BDE8F087A9
:105070004EF6EE60864210D1774802F0B5F904464C
:10508000042C01D02046F1E70021744802F0AFFA69
:105090000446042C08D02046E8E7FFF741FF044609
:1050A000042C01D02046E1E7AEE07EBB002522E0E3
:1050B0006948C0886C4931F81510884201D10FFA4F
:1050C00085F94D4515D0684931F815006749FFF756
:1050D0007EFF8046B8F1010F0BD0634931F815000F
:1050E00062490988FFF735FF0746042F01D038468B
:1050F000BCE7681C85B2192DDADB0021564802F0A6
:1051000076FA0446042C02D02046AFE707E0534865
:1051100002F06AF90446042C1FD02046A6E74FF699
:10512000FF70864212D14D4802F05EF90446042C0D
:1051300003D020469AE711E05EE00021464802F0E5
:1051400056FA0446042C08D020468FE7FFF7E8FE05
:105150000446042C01D0204688E755E036B9FFF715
:10516000DFFE0446042C46D020467FE74FF6FF7052
:10517000864207D1394802F037F90446042C3AD068
:10518000204673E7002523E03448801D0088364917
:1051900031F81510884201D10FFA85F94D4515D027
:1051A000314931F815003149FFF711FF8046B8F158
:1051B000010F0BD02C4931F815002C490988FFF755
:1051C000C8FE0746042F01D038464FE7681C85B259
:1051D000192DD9DB0021214802F009FA0446042CDC
:1051E00001D0204642E71C4802F0FEF80446042C99
:1051F00001D020463AE707E0FFF792FE0446042C70
:1052000001D0204632E700BF00BF04202EE710B5D2
:10521000FFF709FF0446FFF755FE204610BD2DE9B4
:10522000F84F074689460425DFF830A0AAF1010AA5
:10523000094800904FF00008002400264FF0000BB2
:105240000020FFF717FE8046B8F1010F10D1DFF8FC
:1052500008A00248009016E00000010800040108C0
:1052600084000020FF0701084AA2000880000020F7
:10527000B8F1000F04D1DFF8C4A03148009002E07B
:10528000AB20BDE8F88F4EF6EE61504602F0AFF964
:105290000546042D01D02846F3E7FFF713FE4946E3
:1052A0003846FFF756FE0646042E01D03046E8E7A2
:1052B00000241CE0234830F81400B84215D02149DE
:1052C00031F814002049FFF782FE8346BBF1010F3D
:1052D0000BD01C4931F814001B490988FFF739FE2F
:1052E0000646042E01D03046CBE7601C84B2192C50
:1052F000E0DB009802F078F80546042D01D028463E
:10530000BFE70021504602F072F90546042D01D096
:105310002846B6E72846B4E770B505460E46002491
:1053200031462846FFF715FE0446802C04D131464D
:105330002846FFF774FF0446204670BD00040108AC
:10534000000001084AA200088000002008B50121E1
:10535000102000F06FFE0121102000F06BFE1020E5
:105360008DF8030003208DF802004FF48040ADF863
:1053700000006946154800F0A1FB4FF40050ADF85D
:1053800000006946114800F099FB08BD10B50446BD
:105390004FF480410D4800F03EFC10BD10B50446AE
:1053A0004FF40051094800F036FC10BD10B504461A
:1053B0004FF48041054800F030FC10BD10B50446A4
:1053C0004FF40051014800F028FC10BD00100140CE
:1053D00010B5044601235822EE212046FEF799FE1F
:1053E00010BD7CB50546002001900026002418E081
:1053F00002200090A02000EB4400C2B201ABEE21DD
:105400002846FEF74FFF3044C6B29DF805009DF8D0
:10541000041040EA012105F1100020F81410601C6E
:10542000C4B2082CE4DB082E01D101207CBD002091
:10543000FCE710B5044601231E22EE212046FEF7AC
:1054400068FE10BD10B504460A20FEF71EFD20467A
:10545000FFF7EFFF0320FEF718FD2046FFF7C1FF1F
:105460002046FFF7B5FF10BD10B5044601234822C2
:10547000EE212046FEF74DFE10BD38B50446032050
:1054800004F120030022EE2100902046FEF70AFFDF
:1054900038BD2DE9F04F8BB004464FF00008C146EF
:1054A00094F8200001042120005D41EA002022211F
:1054B000095D0843A06094F8230001042420005DE6
:1054C00041EA00202521095D0843E060608BA16866
:1054D000A1EB0025A08A00040022218B4FEAE57C85
:1054E000A1FB05BE02FB05E301FB0C334FEADB1118
:1054F00041EA4361401842EBE312CDE90802608AB9
:105500004FEAC0304246E18A4FEAE57CA1FB05BE86
:1055100002FB05E301FB0C334FEA1B2141EA036167
:10552000401842EB2322CDE90602A08B42464FEA07
:10553000E573A0FB051C02FB05C200FB03204FEA3C
:10554000402242EAD1504FF4FA614718B7F5FA6F9A
:1055500019DAA7F5FA66764306EB86004FEA60088B
:1055600006EB86004FEAA009544887420BDA07F29F
:10557000DC567643072000FB068806EB460000EB6E
:10558000C60009EB6009DDE90801B0EB080061EB3A
:10559000E871CDE90801DDE90601B0EB090061EB36
:1055A000E971CDE906014FF00003E168DDE9062C61
:1055B000A1FB020B03FB02B201FB0C224FEA50518C
:1055C00041EAC22C4FEA6251DDE90802BCEB00005F
:1055D00061EB0201C00B40EA414A504604F02CFB4B
:1055E0003749019004F0CCF983463648029058467A
:1055F000029902F0EBFF4FF07E51039004F0AAFCF9
:105600003149049004F078FB059004F0AFFA82462B
:10561000606818B16068AAEB000020602B48007831
:10562000B0B12A480078401E284908700846007822
:10563000C82804DA264800685044254908602348F1
:10564000007828B922480068C72190FBF1F060601B
:105650000BB0BDE8F08F38B50446032004F12303F6
:105660000022EE2100902046FEF71CFE38BD10B54A
:1056700004461848006860B12046FFF7ECFF20465A
:10568000FFF7A6FE2046FFF704FF0020114908603F
:1056900008E02046FFF7F1FE2046FFF7E5FE012077
:1056A0000C49086010BD01460868704710B50A4CE7
:1056B0002046FEF763FC044600BF10BD24FAFFFF3E
:1056C00080E6C547B1DC423ED048874A94000020BE
:1056D000900000208C0000204C06002010B588B0FF
:1056E00004460121880400F0B2FC0121082000F0EA
:1056F000A1FC4FF48060ADF8040003208DF8060093
:1057000018208DF8070001A97D4800F0D7F94FF463
:105710000060ADF8040003208DF8060004208DF829
:10572000070001A9764800F0C9F904940020ADF8FB
:105730001400ADF81600ADF81800ADF81C000C20F0
:10574000ADF81A000020ADF80800ADF80A004FF4DB
:105750000070ADF80C000020ADF80E0004A96948F7
:1057600001F01DFC02A9674801F08EFC012240F205
:105770002551644801F0ABFC0121624801F09BFC1B
:1057800027208DF8000001208DF8010000208DF801
:10579000020001208DF80300684600F0C6F808B04A
:1057A00010BD10B55749098801F0080121B1554ACB
:1057B000121D1288D1B200BF5249098801F0800140
:1057C000F1B150490C31098801F08001C1B14E4955
:1057D0000A780978491C4C4B19704C49895C494A34
:1057E000121D118019460978494A1278914207D151
:1057F00044490C31098821F08001424A0C32118061
:105800004049098801F0200109B33E4B1B1D1B884C
:10581000DAB203782BB93F4B1A7003785B1C037024
:1058200014E00378012B11D13B4B1A701B78394CD3
:10583000247843EA0421002905DD40F2DC53994233
:1058400001DA364BD96003785B1C037000BF10BDD2
:1058500070B505460C462E4801780078401C2C4A4D
:1058600010702A48445427480C30008800F080000B
:1058700028B9012240F22771224801F028FC70BDAE
:1058800070B505460C4614E020780D2804D10D2192
:105890002846FFF7DDFF0BE020780A2804D10A2113
:1058A0002846FFF7D5FF03E021782846FFF7D0FF11
:1058B000641C20780028E7D170BD2DE9F041064630
:1058C0000C46154600200AE0225C11490B78097845
:1058D000491C0F4F39700D49CA54411CC8B2A84227
:1058E000F2DB08480C30008800F0800028B9012263
:1058F00040F22771034801F0EAFBBDE8F0810000A7
:10590000000C014000480040960000207406002072
:105910009700002099000020980000203803002004
:1059200031490143314A1160704770B500210023AD
:105930000F22C47804B32D4C246804F4E064C4F549
:10594000E064210AC1F10403CA40447804FA03F177
:105950008478144021430901254C0678A155047828
:1059600004F01F050124AC4005786D11AD0005F170
:10597000E025C5F8004109E0047804F01F05012482
:10598000AC401C4D0678761145F8264070BD1A4A89
:105990000A400243154B1B1F1A60704739B1134A66
:1059A000121D12680243114B1B1D1A6006E00F4ABC
:1059B000121D126882430D4B1B1D1A60704704288C
:1059C00008D14FF0E021096941F004014FF0E022D5
:1059D000116107E04FF0E021096921F004014FF067
:1059E000E0221161704700000000FA050CED00E0B4
:1059F00000E400E080E100E080FFFF1F10B50446F6
:105A0000CC48844208D10121042000F02DFB002164
:105A1000042000F029FB46E0C748844208D1012158
:105A2000082000F021FB0021082000F01DFB3AE0D7
:105A3000C248844208D10121102000F015FB00214A
:105A4000102000F011FB2EE0BD48844208D1012156
:105A5000202000F009FB0021202000F005FB22E0BF
:105A6000B848844208D10121402000F0FDFA00210D
:105A7000402000F0F9FA16E0B348844208D1012131
:105A8000802000F0F1FA0021802000F0EDFA0AE019
:105A9000AE48844207D10121801500F0E5FA0021CB
:105AA000A01500F0E1FA10BD10B50121084600F084
:105AB000DBFA0021012000F0D7FA10BD2DE9F041FA
:105AC000024600250026002000230024002791F82C
:105AD00003C00CF00F0591F803C00CF0100CBCF1E2
