:020000040800F2
:10000000180E0020D97C00086D410008E37C000830
:100010006F410008734100087741000800000000AC
:100020000000000000000000000000007B4100080C
:100030007D41000800000000EF7C00087F410008BF
:10004000F37C0008F37C0008F37C0008F37C0008D4
:10005000F37C0008F37C0008F37C0008F37C0008C4
:10006000F37C0008F37C0008F37C0008F37C0008B4
:10007000F37C0008F37C0008F37C0008F37C0008A4
:10008000F37C0008F37C0008F37C0008F37C000894
:10009000F37C0008F37C0008F37C0008F37C000884
:1000A000F37C0008F37C0008F37C0008F37C000874
:1000B000F37C0008F37C0008F37C0008F37C000864
:1000C000F37C0008F37C0008F37C0008F37C000854
:1000D000F37C000887410008F37C00088941000890
:1000E000F37C0008F37C0008F37C000800F002F8C1
:1000F00000F03CF80AA090E8000C82448344AAF186
:100100000107DA4501D100F031F8AFF2090EBAE883
:100110000F0013F0010F18BFFB1A43F0010318473B
:10012000D8A40000F8A40000103A24BF78C878C111
:10013000FAD8520724BF30C830C144BF04680C60ED
:10014000704700000023002400250026103A28BF35
:1001500078C1FBD8520728BF30C148BF0B60704739
:100160001FB507F063FF1FBD10B510BD07F084FF7A
:100170001146FFF7F5FF00F009F807F0A2FF03B4FE
:10018000FFF7F2FF03BC07F0A3FF000003F097FFA7
:10019000064803F0C5F8064800F0E5FA054803F004
:1001A00051F901E000F093F8FCE700004000002066
:1001B000E4000020440300200122C272704710B501
:1001C0000446607AE0B1207BD0B926480078401C14
:1001D0002449087008460078012804D0142806D065
:1001E00028280CD107E0204805F0DEF907E01E487A
:1001F00005F0EAF903E000201A49087000BF2AE080
:10020000607A10B3207B00B318480078401C17496F
:10021000087008460078012804D0142809D028283E
:1002200012D10DE0104805F0BFF90F4805F0D4F9E0
:100230000AE00D4805F0C8F90B4805F0BDF903E0E8
:1002400000200A49087000BF05E0074805F0ACF936
:10025000054805F0B1F910BD00B50548FFF7ACFF42
:1002600000BD0000000000208C00002001000020E4
:10027000C800002010B5334800F094FE314801F06A
:10028000ABFB10BD10B5304800F076FA2E4800F0F8
:100290004FFB2E4802F012FC2D4803F0DCF810BD95
:1002A00010B52A4802F07FFB10BD704710B52948F1
:1002B00002F097F8274802F07BF9264802F0F3F99C
:1002C000204801F041FD2448FFF779FF10BD10B52B
:1002D00022480088012804DBFFF7CCFF00201F49DB
:1002E00008801E484088022804DBFFF7CBFF00206F
:1002F0001A49488019488088052804DBFFF7D0FF99
:100300000020164988801548C0880A2804DBFFF7BA
:10031000CCFF00201149C88010480089142804DB54
:10032000FFF7C4FF00200D49088110BD00210181A5
:10033000C180818041800180704700B50748FFF788
:10034000F5FF00BDBC010020E40000204C020020AD
:10035000440300200A020020C8000020D80000202A
:100360002DE9F04781460C4615462946C34809F059
:10037000D1FD804641464FF07E5009F00FFC074604
:10038000214609F097FB06463146204609F006FC57
:10039000BDE8F0872DE9F84F0F4615461C46294663
:1003A000B64809F0B7FD8146394609F0B3FD8046ED
:1003B00041464FF07E5009F0F1FB06463146B04809
:1003C00009F0A8FD82463146304609F0A3FD834678
:1003D000514609F06FFB81464FF07E5109F06AFBF0
:1003E000804641464FF07E5009F0D8FB20603146F0
:1003F000A34809F08FFD83463146304609F08AFD57
:100400005946009009F056FB82464FF07E5109F0A4
:1004100051FB804631469A4809F07CFD31460090F8
:100420004FF0804009F076FD8346314609F072FDB9
:100430008246009909F03EFB8146414609F0AEFB39
:10044000606031468E4809F065FD8346314630468E
:1004500009F060FD5946009009F02CFB81464FF0F1
:100460007E5109F027FB80463146304609F052FDA7
:100470008246414609F092FBA060BDE8F88F2DE965
:10048000F04107460D4614462146284609F012FB66
:1004900006463146204609F081FBBDE8F0810FB4E5
:1004A000F0B58DB005460F461A9C224617A904A840
:1004B00008F045FF04A807C807AB07C321464FF063
:1004C0007E5009F0E7FE0646324614A901A808F05E
:1004D00036FF01A807C80AAB07C307AA0AA928461E
:1004E00008F049FF0DB0F0BC5DF814FB0FB470B517
:1004F0009EB005460E4614460FA80021816041605B
:10050000016000BF04F10C010CA8A26808F017FFFD
:100510000CA807C812AB07C304F1180109A8626848
:1005200008F00DFF09A807C815AB07C325A906A841
:10053000226808F004FF06A807C818AB07C315AA6D
:1005400018A903A808F017FF03A807C81BAB07C327
:1005500012AA1BA9684608F0BAFE9DE807000FAB77
:1005600007C3D4E90712A069C4E90412E0600FA828
:1005700007C8C4E90712A0610FA807C885E80700EB
:100580001EB070BC5DF814FB2DE9F05F83460C468D
:1005900015463C48A168006809F0BCFC80463A4812
:1005A0006168006809F0B6FC81462846216809F0B8
:1005B000B1FC8246494609F07DFA0746414609F0FA
:1005C00069FE0646304800682E4908602E480660DD
:1005D000304609F0D9FBBDE8F09F2DE9F05F834676
:1005E0000C4615462948A168006809F093FC80462E
:1005F00027486168006809F08DFC8146284621681B
:1006000009F088FC8246494609F054FA07464146FB
:1006100009F040FE06461E4800681C4908601C4858
:100620000660304609F0B0FBBDE8F09F0FB4F0B5AE
:100630008DB005460F461A9C21464FF07E5009F0BA
:1006400029FE0646324617A904A808F078FE04A839
:1006500007C807AB07C3224614A901A808F06FFE1C
:1006600001A807C80AAB07C307AA0AA9284608F0C9
:1006700082FE0DB0F0BC5DF814FB0000DB0FC9403A
:10068000000040400800002004000020100000206E
:100690000C00002010B50446204600BF044620464A
:1006A00008F066FD044604F10C0008F061FDA0F1BD
:1006B0000C0404F1180008F05BFDA0F1180404F12B
:1006C000240008F055FDA0F1240404F1300008F0E6
:1006D0004FFDA0F1300404F13C0008F049FDA0F109
:1006E0003C0404F1480007F0FAFCA0F1480404F1CE
:1006F0006C0007F0F4FCA0F16C0404F194004FF0DE
:100700007E5101600021C1608160416000BFA0F1A5
:100710009404204610BD10B5044662224FF47A714D
:10072000F84803F051FF10BD10B50446F64AF749EA
:100730002046FFF715FEF649086004F14803F24A27
:10074000F2492046FFF726FE04F16C03F14AEF4917
:100750002046FFF71FFEF04AEC492046FFF78FFEC8
:10076000EB49486010BD10B504462046FFF7DCFF9A
:100770002046FFF7D0FF10BD3EB50446E14803F028
:10078000F5FFE04804F0C5F8DE49684604F025F9B5
:100790009DE80700C4E90712A061DA49684604F041
:1007A00015F99DE80700C4E90D1220633EBD3FB571
:1007B00099B00446239DD948007800F0010048B95B
:1007C000D64807F0D4FC28B1D54808F0D1FCD3486E
:1007D000AFF30080D348007800F0010048B9D14859
:1007E00007F0C5FC28B1D04808F0C2FCCD48AFF3F3
:1007F0000080CE48007800F0010068B9CB4807F0CF
:10080000B6FC48B14FF08B4300221146C84808F0AF
:10081000ABFCC648AFF30080C648007800F001008A
:1008200060B9C44807F0A3FC40B100231A46C2498E
:10083000C24808F099FCBF48AFF300800AA808F04E
:1008400041FCB94A1AA907A808F095FD07A807C8EE
:1008500013AB07C34FF07C5213A904A808F06FFD37
:1008600004A807C816AB07C32A4616A901A808F0B2
:1008700066FDAB4801A90EC90EC0AB481AA90EC946
:100880000EC0A7490AA808F099FBA94A0AA907A817
:1008900008F0A8FCA64807A90EC90EC0A74A0AA9D5
:1008A00007A808F09FFCA54807A90EC90EC0B4F818
:1008B000A40080B2322818DDB4F8A40080B29628D3
:1008C00013DA93484068049020A807C801AB07C317
:1008D000974880680090964821460CC807A8FFF703
:1008E000A5FE934807A90EC90EC004F10C0190485B
:1008F00008F004FC04F10C01904808F029FC1DB03C
:1009000030BD2DE9F04782460C468D490968601AD2
:1009100008F0A8FE07468B4A8B4B08F0B7FE054649
:1009200008F080FD8146864804604846BDE8F087AF
:100930002DE9F04395B004460EA808F0D7FB08A8AF
:1009400008F0D4FBD4E90D01CDE9000104F148021F
:10095000214605A8236BFFF7C9FD05A807C8C4E910
:100960001012E063D4E90701CDE9000104F16C0243
:10097000214605A8A369FFF7B9FD05A807C8C4E982
:100980000A12606204F13C052946284608F0BBFCC7
:1009900081466E4909F0BEFA80464FF0974109F052
:1009A000FDF8074609F0F0F9C4F8A40003F052FB83
:1009B000054629462046FFF7A4FF0646E06A009058
:1009C000504905A8D4E9092304F00EF80396D4E9A8
:1009D0001012E06B8DE80700204605A90EC9FFF74D
:1009E000E6FE15B0BDE8F0832DE9F0418CB08046FD
:1009F0000C4603A808F066FB684608F0B9FBE068FF
:100A000002F041FF80F00045206902F03CFF80F0D9
:100A10000046606902F037FF07460095019602978D
:100A200000BF694603A808F0C9FA04F13C0203A913
:100A3000404608F0D7FB0CB0BDE8F081F0B599B0A6
:100A40000446219E0DA808F093FB0AA808F090FB2D
:100A500007A808F08DFB1EAD284608F015FC0746D8
:100A60003946284608F08DFB00BF0DA904F194001B
:100A700003F03AF80DAA1EA904A808F098FC04A8EF
:100A800007C80AAB07C3324A0AA904A808F057FCF2
:100A900004A807C816AB07C316A907A808F085FB6A
:100AA0004FF080420AA904A808F049FC04A807C82E
:100AB00010AB07C307AA10A901A808F05CFC01A8A5
:100AC00007C813AB07C313A904F1180008F06DFBA6
:100AD000324604F1180104F1940003F076F804F1B1
:100AE000940002F047FF04F114031A1F111F04F1D0
:100AF000940003F0FCF919B0F0BD10B51548FFF7EC
:100B0000C9FD10BD00040020000048426F12033BE5
:100B1000C8000020000002436666E63F2400002073
:100B20008C01002020000020980100201C000020E3
:100B3000A40100201800002000004843B00100205C
:100B4000140000208DEDB5A0F7C6B03E0000C842ED
:100B50006F12833AE400002070B504460E46154635
:100B60002A4604F10F01FE4804F0E2F870BD2DE9B9
:100B7000F04104460D461646AA20E073AA212174CE
:100B8000EF2161740221A174E5742675002700200D
:100B900006E004F10F01095C3944CFB2411CC8B230
:100BA0000628F6DB6775082204F10F012046FFF7DF
:100BB000D3FFBDE8F0812DE9F04105460C4616460D
:100BC0000027002004E0215C3944CFB2411CC8B2A8
:100BD000711E8142F7DCA01910F8010CB84201D057
:100BE000BDE8F0812078AA2802D16078AF2800D033
:100BF000F6E70021DB488172A078012811D1207925
:100C0000012801D1D84908702079022802D1012099
:100C1000D54948702079032803D10120D2490870B2
:100C20004870A078022816D12079012805D12871B2
:100C30006871A871E871287268722079A02801D1C2
:100C4000012028702079A12805D1C84801F040FE74
:100C5000C74802F04CFAA07803282FD12079617997
:100C600041EA0020C349C880A079E17941EA002027
:100C7000C0498880207A617A41EA0020BD49088015
:100C8000A07AE17A41EA0020BA494880207B617B62
:100C900041EA0020B7490881A07BE17B41EA0020BE
:100CA000B4494881207C617C41EA0020B1498881B7
:100CB000A07CE17C41EA0020AE49C881A0781028E0
:100CC0007ED12179090209B2627941EA020009F074
:100CD000C1F88046A84908F061FFA4490860A179DD
:100CE000090209B2E27941EA020009F0B3F880464C
:100CF000A14908F053FF9D494860217A090209B2D1
:100D0000627A41EA020009F0A5F880469A4908F0A3
:100D100045FF96498860A17A090209B2E27A41EA60
:100D2000020009F097F88046934908F037FF8F4991
:100D3000C861217B090209B2627B41EA020009F025
:100D400089F880468C4908F029FF88490862A17B10
:100D5000090209B2E27B41EA020009F07BF8804611
:100D6000854908F01BFF81494862217C090209B2CC
:100D7000627C41EA020009F06DF880467E4908F085
:100D80000DFF7A498863A17C090209B2E27C41EA3D
:100D9000020009F05FF88046774908F0FFFE7349CA
:100DA000C863217D090209B2627D41EA020009F0AF
:100DB00051F88046704908F0F1FE6C49086400E083
:100DC00004E0A1783A462846FFF7D1FEA078112822
:100DD0007ED12179090209B2627941EA020009F063
:100DE00039F88046644908F0D9FE60494865A17920
:100DF000090209B2E27941EA020009F02BF88046C3
:100E00005D4908F0CBFE59498865217A090209B28B
:100E1000627A41EA020009F01DF88046564908F05E
:100E2000BDFE5249C865A17A090209B2E27A41EAD7
:100E3000020009F00FF880464F4908F0AFFE4B4919
:100E40000867217B090209B2627B41EA020009F0CE
:100E500001F88046484908F0A1FE44494867A17B53
:100E6000090209B2E27B41EA020008F0F3FF804682
:100E7000414908F093FE3D498867217C090209B287
:100E8000627C41EA020008F0E5FF80463A4908F03A
:100E900085FE3649C1F88C00A17C090209B2E27CCA
:100EA00041EA020008F0D6FF8046334908F076FE9A
:100EB0002E49C1F89000217D090209B2627D41EA04
:100EC000020008F0C7FF80462B4908F067FE00E0EB
:100ED00007E02649C1F89400A1783A462846FFF772
:100EE00046FEA078122834D12179090209B262792C
:100EF00041EA020008F0AEFF80461F4908F04EFEAE
:100F00001A49C1F8A800A179090209B2E27941EAB7
:100F1000020008F09FFF8046174908F03FFE134982
:100F2000C1F8AC00217A090209B2627A41EA0200F2
:100F300008F090FF8046104908F030FE0B49C1F8D8
:100F4000B000A1783A462846FFF711FE084802F0A3
:100F5000CEF8A078132813D1A1783A4628460DE0A0
:100F600058040020C8000020000400204C0200208B
:100F7000400000200A02002000007A44FFF7F7FD3D
:100F8000A078142804D1A1783A462846FFF7EFFD4F
:100F9000A078152804D1A1783A462846FFF7E7FD46
:100FA00000BF1DE610B50446FB4803F03EFF10BD30
:100FB0002DE9FC5F04460E4617469846DDE90CAB6A
:100FC0000025AA2229466D1C04F10F00425429462F
:100FD0006D1C425406F10F00C2B229466D1C04F18B
:100FE0000F004254002229466D1C4254EB493846FA
:100FF00008F090FF009008F0C7FE00B201909DF845
:10100000052029466D1C04F10F0042549DF8042070
:1010100029466D1C4254E149404608F07BFF009090
:1010200008F0B2FE00B201909DF8052029466D1C23
:1010300004F10F0042549DF804202846691CCDB2EB
:1010400004F10F010A54D549504608F063FF00909F
:1010500008F09AFE00B201909DF805202846691C10
:10106000CDB204F10F010A549DF804202846691CF2
:10107000CDB204F10F010A54C849584608F04AFF9E
:10108000009008F081FE00B201909DF805202846EE
:10109000691CCDB204F10F010A549DF804202846C2
:1010A000691CCDB204F10F010A54BC490E9808F036
:1010B00031FF009008F068FE00B201909DF8052015
:1010C0002846691CCDB204F10F010A549DF8042092
:1010D0002846691CCDB204F10F010A54AF490F989C
:1010E00008F018FF009008F04FFE00B201909DF844
:1010F00005202846691CCDB204F10F010A549DF861
:1011000004202846691CCDB204F10F010A54A349FA
:10111000109808F0FFFE009008F036FE00B2019033
:101120009DF805202846691CCDB204F10F010A5430
:101130009DF804202846691CCDB204F10F010A5421
:101140009649119808F0E6FE009008F01DFE00B2E6
:1011500001909DF805202846691CCDB204F10F01CD
:101160000A549DF804202846691CCDB204F10F01F1
:101170000A548A49129808F0CDFE009008F004FE47
:1011800000B201909DF805202846691CCDB204F1FB
:101190000F010A549DF804202846691CCDB204F1C1
:1011A0000F010A54281FA0744FF00009002007E027
:1011B00004F10F01095C494401F0FF09411CC8B268
:1011C000A842F5DB2846691CCDB204F10F0101F8F5
:1011D00000902A462046FFF7BFFCBDE8FC9F2DE9A2
:1011E000F84304460E4617460025AA2229466D1CE0
:1011F00004F10F00425429466D1C42540522294631
:101200006D1C4254002229466D1C425400969DF8E4
:10121000012029466D1C42549DF8002029466D1C72
:10122000425400979DF8012029466D1C42549DF8B8
:1012300000202846691CCDB204F10F010A54281F72
:10124000A0744FF00008002007E004F10F01095CD2
:10125000414401F0FF08411CC8B2A842F5DB284612
:10126000691CCDB204F10F0101F800802A46204626
:10127000FFF772FCBDE8F8837FB504460025AA227B
:1012800029466D1C04F10F00425429466D1C42543E
:10129000062229466D1C4254002229466D1C4254E8
:1012A0009DF8052029466D1C42549DF804202946CE
:1012B0006D1C42549DF8092029466D1C42549DF82E
:1012C00008202846691CCDB204F10F010A549DF88C
:1012D0000D202846691CCDB204F10F010A549DF877
:1012E0000C202846691CCDB204F10F010A549DF868
:1012F00021202846691CCDB204F10F010A549DF843
:1013000020202846691CCDB204F10F010A549DF833
:1013100025202846691CCDB204F10F010A549DF81E
:1013200024202846691CCDB204F10F010A549DF80F
:1013300029202846691CCDB204F10F010A549DF8FA
:1013400028202846691CCDB204F10F010A549DF8EB
:101350002D202846691CCDB204F10F010A549DF8D6
:101360002C202846691CCDB204F10F010A549DF8C7
:1013700031202846691CCDB204F10F010A549DF8B2
:1013800030202846691CCDB204F10F010A54281FF1
:10139000A074002600200AE05804002000007A44CF
:1013A00004F10F01095C3144CEB2411CC8B2A8421D
:1013B000F6DB2846691CCDB204F10F010E542A4613
:1013C0002046FFF7C9FB7FBD7FB504460025AA2252
:1013D00029466D1C04F10F00425429466D1C4254ED
:1013E000032229466D1C4254002229466D1C42549A
:1013F0009DF8052029466D1C42549DF8042029467D
:101400006D1C42549DF8092029466D1C42549DF8DC
:1014100008202846691CCDB204F10F010A549DF83A
:101420000D202846691CCDB204F10F010A549DF825
:101430000C202846691CCDB204F10F010A549DF816
:1014400021202846691CCDB204F10F010A549DF8F1
:1014500020202846691CCDB204F10F010A549DF8E2
:1014600025202846691CCDB204F10F010A549DF8CD
:1014700024202846691CCDB204F10F010A549DF8BE
:1014800029202846691CCDB204F10F010A549DF8A9
:1014900028202846691CCDB204F10F010A549DF89A
:1014A0002D202846691CCDB204F10F010A549DF885
:1014B0002C202846691CCDB204F10F010A549DF876
:1014C00031202846691CCDB204F10F010A549DF861
:1014D00030202846691CCDB204F10F010A549DF852
:1014E00035202846691CCDB204F10F010A549DF83D
:1014F00034202846691CCDB204F10F010A549DF82E
:1015000039202846691CCDB204F10F010A549DF818
:1015100038202846691CCDB204F10F010A54281F57
:10152000A0740026002006E004F10F01095C31449C
:10153000CEB2411CC8B2A842F6DB2846691CCDB227
:1015400004F10F010E542A462046FFF705FB7FBD2C
:101550002DE9F84304460E4617460025AA222946DF
:101560006D1C04F10F00425429466D1C42540722A1
:1015700029466D1C4254002229466D1C4254009697
:101580009DF8032029466D1C42549DF802202946EF
:101590006D1C42549DF8012029466D1C42549DF853
:1015A00000202846691CCDB204F10F010A540097AF
:1015B0009DF801202846691CCDB204F10F010A54A0
:1015C0009DF800202846691CCDB204F10F010A5491
:1015D000281FA0744FF00008002007E004F10F015D
:1015E000095C414401F0FF08411CC8B2A842F5DB88
:1015F0002846691CCDB204F10F0101F800802A468B
:101600002046FFF7A9FABDE8F8832DE9F84F044614
:101610000E4617469846DDE90AAB0025AA22294660
:101620006D1C04F10F00425429466D1C42540222E5
:1016300029466D1C4254002229466D1C42540096D6
:101640009DF8012029466D1C42549DF80020294632
:101650006D1C425400979DF8012029466D1C425490
:101660009DF800202846691CCDB204F10F010A54F0
:10167000CDF800809DF801202846691CCDB204F108
:101680000F010A549DF800202846691CCDB204F1D0
:101690000F010A54CDF800A09DF801202846691CCE
:1016A000CDB204F10F010A549DF800202846691CB0
:1016B000CDB204F10F010A54CDF800B09DF801201D
:1016C0002846691CCDB204F10F010A549DF8002090
:1016D0002846691CCDB204F10F010A540C98009001
:1016E0009DF801202846691CCDB204F10F010A546F
:1016F0009DF800202846691CCDB204F10F010A5460
:101700000D9800909DF801202846691CCDB204F187
:101710000F010A549DF800202846691CCDB204F13F
:101720000F010A540E9800909DF801202846691C6C
:10173000CDB204F10F010A549DF800202846691C1F
:10174000CDB204F10F010A540F9800909DF80120CA
:101750002846691CCDB204F10F010A549DF80020FF
:101760002846691CCDB204F10F010A54281FA07449
:101770004FF00009002007E004F10F01095C494423
:1017800001F0FF09411CC8B2A842F5DB2846691CDC
:10179000CDB204F10F0101F800902A462046FFF770
:1017A000DBF9BDE8F88F2DE9FE4F04460E461746DB
:1017B0009846DDE90CAB0025CDF804A0AA22294605
:1017C0006D1C04F10F00425429466D1C4254012245
:1017D00029466D1C4254002229466D1C4254FE4984
:1017E000304608F097FB009008F0CEFA00B2029065
:1017F0009DF8092029466D1C04F10F0042549DF804
:10180000082029466D1C4254F349384608F082FBF3
:10181000009008F0B9FA00B202909DF8092029461C
:101820006D1C04F10F0042549DF808202846691CE5
:10183000CDB204F10F010A54E749404608F06AFBB3
:10184000009008F0A1FA00B202909DF80920284605
:10185000691CCDB204F10F010A549DF808202846F6
:10186000691CCDB204F10F010A549DF807202846E7
:10187000691CCDB204F10F010A549DF806202846D8
:10188000691CCDB204F10F010A549DF805202846C9
:10189000691CCDB204F10F010A549DF804202846BA
:1018A000691CCDB204F10F010A542846691CCDB25F
:1018B00004F10F0101F800B029466A1CD5B204F109
:1018C0000F020E985054281FA0744FF000090020FA
:1018D00007E004F10F01095C494401F0FF09411CD4
:1018E000C8B2A842F5DB2846691CCDB204F10F014D
:1018F00001F800902A462046FFF72EF9BDE8FE8F3A
:101900002DE9FF4104460E460025AA2229466D1CFA
:1019100004F10F00425429466D1C4254002229460E
:101920006D1C425429466D1C425429466D1C465478
:101930009DF8092029466D1C42549DF8082029462F
:101940006D1C42549DF80D202846691CCDB204F14F
:101950000F010A549DF80C202846691CCDB204F1F1
:101960000F010A549DF829202846691CCDB204F1C4
:101970000F010A549DF828202846691CCDB204F1B5
:101980000F010A549DF82D202846691CCDB204F1A0
:101990000F010A549DF82C202846691CCDB204F191
:1019A0000F010A54281FA0740027002006E004F14C
:1019B0000F01095C3944CFB2411CC8B2A842F6DB22
:1019C0002846691CCDB204F10F010F542A46204667
:1019D000FFF7C2F8BDE8FF812DE9F04F87B004465C
:1019E0007E4800787E49097890FBF1F201FB1201F4
:1019F0007B480078401E814201D10120A0707748C9
:101A000000787849097890FBF1F201FB12017548E2
:101A10000078401E814201D10120E0706F480078BB
:101A20007149097890FBF1F201FB12016E480078D0
:101A3000401E814201D101206073684800786B49E3
:101A4000097890FBF1F201FB120168480078401E12
:101A5000814201D1012060706048007864490978B2
:101A600090FBF1F201FB120161480078401E8142B7
:101A700001D10120A072594800785E49097890FB95
:101A8000F1F201FB12015B480078401E814201D156
:101A900001202073514800785749097890FBF1F2F2
:101AA00001FB120154480078401E814201D10120FF
:101AB000A0734A480078401C48490870207868B1F3
:101AC000002020704FF4C8716E234FF49672CDE958
:101AD000001001212046FFF713FF32E1607888B142
:101AE000002060704548407A002245498968CDE968
:101AF00000120290434843690269C1682046FFF71B
:101B000052FE1EE1607B10B10020607319E1A078E5
:101B1000F0B30020A0703A49086B08F035F905B21F
:101B20003749486A08F030F906B23649086A08F0C1
:101B30002BF907B23349C86908F026F90FFA80F883
:101B40003049486A08F020F90FFA80F92D49886B6E
:101B500008F01AF90FFA80FA2A49486B08F014F9CC
:101B60000FFA80FB2749486808F00EF900B206908A
:101B70002348808800B253465A46CDE90098CDE903
:101B80000276CDE9040520460699FFF73EFDD8E030
:101B9000FFE7E07838B10020E070002211462046CF
:101BA000FFF7D6FCCDE0A07A80B30020A0721648E3
:101BB000418A028AC089144B9B89CDE90330CDE963
:101BC000052111484089104909890F4A5288CDE9F9
:101BD000002102900C481AE00000C84228000020B2
:101BE000290000202F0000202A0000202B000020C8
:101BF0002C0000202D0000202E000020C800002016
:101C000044030020E40000200A02002006E00388CC
:101C10008288C1882046FFF7D7FB92E0207B50B333
:101C20000020207305A9544800F071FB00200AE051
:101C300005A931F81010A1F57A7109B205AA22F8A8
:101C40001010411CC8B20428F2DB00200190029061
:101C500003900490BDF81A0080B20090BDF81800FF
:101C600083B2BDF8160082B2BDF8140081B22046DE
:101C7000FFF702FB65E0A07B40B10020A0734FF4AA
:101C8000E4727B212046FFF7AAFA5AE02079E8B1F6
:101C9000002020713948016CC06B384A926B374B79
:101CA0005B6ACDE90332CDE905013448006A334966
:101CB000C969324A9268CDE9002102902F484368F1
:101CC000012102682046FFF773F93AE06079F8B124
:101CD000002060712948D0F89410D0F89020D0F8F6
:101CE0008C00264B9B6FCDE90330CDE905212348BD
:101CF000406F2249096F214AD26DCDE9002102903F
:101D00001E48836D0221426D2046FFF751F918E00D
:101D1000A079B0B10020A071039004900590014615
:101D2000024606901548D0F8B000CDE90121009098
:101D30001248D0F8AC300321D0F8A8202046FFF795
:101D400037F907B0BDE8F08F0D4909781E290CDD81
:101D500000210B4A11700B49897A19B901220949EE
:101D60008A7202E0002207494A7205490978491C33
:101D7000034A117070470000FE0100204C02002051
:101D800030000020C80000200146002005E04FF48C
:101D90007A7221F81020421CD0B20628F7DB704777
:101DA0002DE9F04704460D4691469A46DDF820801D
:101DB00028B2208028B2608028B2A08028B2E080BB
:101DC00028B2208128B26081B4F90070012007E0B8
:101DD00034F91010B94201DD34F91070411CC8B259
:101DE0000628F5DB002617E040F26C70874207DD1D
:101DF00034F81610A7F26C70081A00B224F8160016
:101E000034F8161088B20022114601F015FD00B218
:101E100024F81600701CC6B2062EE5DBFE48407A98
:101E200010B92046FFF7B0FFFB48007B38B9FB48EC
:101E3000C088B0F5966F02DA2046FFF7A5FF21466D
:101E4000F74803F0DCF8BDE8F0872DE9F0470446D9
:101E50000D4691469A46DDF8208028B2208028B2AF
:101E6000608028B2A08028B2E08028B2208128B209
:101E70006081B4F90070012007E034F91010B94214
:101E800001DD34F91070411CC8B20628F5DB0026CC
:101E900017E040F26C70874207DD34F81610A7F2A5
:101EA0006C70081A00B224F8160034F8161088B2C4
:101EB0002A46294601F0C0FC00B224F81600701C26
:101EC000C6B2062EE5DBD448407A10B92046FFF7AB
:101ED0005BFFD148007B38B9D048C088B0F5966F19
:101EE00002DA2046FFF750FF2146CD4803F087F87D
:101EF000BDE8F0872DE9F04704460E4691469A4624
:101F0000DDF820800020208030B260800020A0809A
:101F100030B2E080002020816081B4F9007001209F
:101F200007E034F91010B94201DD34F91070411C9A
:101F3000C8B20628F5DB002537E040F26C70874216
:101F400007DD34F81510A7F26C70081A00B224F8F7
:101F50001500012D01D0032D0BD134F8151088B2D6
:101F600040F26C72114601F067FC00B224F81500D3
:101F700019E00DB1022D0BD134F8151088B24FF4D1
:101F80009662114601F058FC00B224F815000AE0F0
:101F900034F8151088B240F26C72114601F04CFC16
:101FA00000B224F81500681CC5B2062DC5DB9A489E
:101FB000407A10B92046FFF7E7FE9748007B38B912
:101FC0009648C088B0F5966F02DA2046FFF7DCFE2F
:101FD0002146934803F013F8BDE8F0872DE9F04758
:101FE00004460E4691469A46DDF8208030B22080A5
:101FF0000020608030B2A0800020E08020816081DD
:10200000B4F90070012007E034F91010B94201DD85
:1020100034F91070411CC8B20628F5DB002528E011
:1020200040F26C70874207DD34F81510A7F26C702F
:10203000081A00B224F81500012D01D0032D0BD190
:1020400034F8151088B24FF49662114601F0F4FB93
:1020500000B224F815000AE034F8151088B240F2F6
:102060006C72114601F0E8FB00B224F81500681C00
:10207000C5B2062DD4DB6848407A10B92046FFF778
:1020800083FE6548007B38B96448C088B0F5966F18
:1020900002DA2046FFF778FE2146614802F0AFFFE2
:1020A000BDE8F0872DE9F04F8FB004460D46164687
:1020B0009B46DDF86090484607F0BDFACDE90A017D
:1020C000584607F0B8FA0746564A574B07F0DEFA6B
:1020D000CDE90601304607F0AEFA0022534BCDE9B8
:1020E000000107F0D3FA07468846284607F0BAFAF7
:1020F0003A464346CDE9020107F0C6FBCDE90401AB
:10210000DDE9062307F0C0F9CDE90801DDE90A237E
:1021100007F0BAF9CDE90C0107F05EFA00B22080B1
:10212000484607F088FACDE90A01584607F083FAD5
:1021300007463C4A3C4B07F0A9FACDE90601304678
:1021400007F079FA07460022384B07F09FFACDE9ED
:102150000201284607F086FACDE90001DDE90223F5
:1021600007F092FBCDE90401DDE9062307F08CFBC3
:10217000CDE90801DDE90A2307F086F9CDE90C0174
:1021800007F02AFA00B26080484607F054FACDE919
:102190000A01584607F04FFA0746224A224B07F039
:1021A00075FACDE90601304607F045FA00221F4BCB
:1021B000CDE9000107F06AFA07468846284607F08D
:1021C00051FA3A464346CDE9020107F05DF9CDE9FF
:1021D0000401DDE9062307F057F9CDE90801DDE93F
:1021E0000A2307F051FBCDE90C0107F0F5F900B225
:1021F000A080484607F01FFACDE90A01584607F0CB
:102200001AFA0746074A084B07F040FACDE90601DB
:10221000304607F010FA0BE0C80000200A02002048
:102220008000002083C0CAA145B6EB3F0000E03F1C
:10223000074600223C4B07F029FACDE90201284667
:1022400007F010FACDE90001DDE9022307F01CF9DF
:10225000CDE90401DDE9062307F016FBCDE908010D
:10226000DDE90A2307F010FBCDE90C0107F0B4F912
:1022700000B2E080A81BA0EB090000B22081A819E1
:10228000484400B26081B4F900A0012007E034F9AD
:102290001010514501DD34F910A0411CC8B20628C8
:1022A000F5DB002719E040F26C70824507DD34F859
:1022B0001710AAF26C70081A00B224F8170034F84C
:1022C000171088B240F26C7240F24C4101F0B4FA3F
:1022D00000B224F81700781CC7B2062FE3DB1348BE
:1022E000407A10B92046FFF74FFD1048407B38B9BF
:1022F0000F48C088B0F5966F02DA2046FFF744FD1C
:1023000021460C4802F07BFE0FB0BDE8F08F02883A
:102310000A8042884A8082888A80C288CA8002896C
:102320000A8142894A8170470000E03FC8000020CE
:102330000A0200208000002030B50146002013E092
:1023400000FB00F2193A32235A4302F6C412424308
:102350005A4340F6C41392FBF3F213B201F11C028C
:1023600022F81030421CD0B20728E9DB00202EE012
:1023700000EB80046400A4F132020123002A00DD96
:102380003223002A00DA3223002503FB03F495FBF5
:10239000F4F4643454430A2594FBF5F404F5FA7418
:1023A00025B201F12A0424F8105034F910404FF4FA
:1023B00048756C434FF47A7594FBF5F404F24C4481
:1023C00025B201F12A0424F81050421CD0B20C2886
:1023D000CEDB30BD10B504462046FFF7ADFF2046EA
:1023E00010BD2DE9F05F0446002060E034F81010C5
:1023F000A1F2DC51002904DD34F81010A1F2DC5107
:1024000004E034F8101040F2DC52511AB1F5FA7FB2
:1024100010DA34F81010A1F2DC51002904DD34F890
:102420001010A1F2DC5107E034F8101040F2DC5239
:10243000511A01E04FF4FA710E4602281FD06421B0
:1024400096FBF1F504F11C016A1C31F9122031F9F7
:102450001510511A05EBC50202EB0512A6EB82021C
:102460005143642291FBF2F204F11C0131F8151082
:1024700011440AB204F1140121F8102005E0714260
:102480000AB204F1140121F8102034F8101040F2BF
:10249000DC52914209DA04F1140131F8101049427A
:1024A0000AB204F1140121F81020411CC8B203281B
:1024B0009CDBE0884FF4FA624FF4966101F0BCF9BE
:1024C0000646A6F596604FF47A7148434FF448717A
:1024D000B0FBF1F6642096FBF0F59948007B08BB51
:1024E00004F12A00691C30F9111030F91500081A9E
:1024F00005EBC50101EB0511A6EB81014843642101
:1025000090FBF1F104F12A0030F81500084401B203
:102510006183E0884FF4FA624FF4966101F08CF920
:1025200001B26183B4F91800002802DDB4F9180083
:1025300002E0B4F918004042462832DAE088B0F5EB
:10254000966F2EDD7F4AD2F89010506907F0A2FEF8
:10255000804607F019FC07B217F1B40F02DC07F54B
:10256000B47007B2B42F02DBA7F5B47007B278429B
:1025700007B2384607F06EFC83467348016F584631
:1025800007F0C8FC8146B4F9180007F063FC8246E6
:10259000494607F07FFE804607F0F6FB01B2218333
:1025A00004E0684840696749C1F89000BDE8F09FC1
:1025B0000146002033E031F81020B2F5617F04DBE2
:1025C00031F81020B2F5FA6F00DD2AE031F8102062
:1025D000B2F5966F07DA5D4A125C5D4B1B781A43C1
:1025E0005B4B1A7006E0594A135C594A12789A43B9
:1025F000574B1A7031F81020B2F5E16F07DD554ADC
:10260000125C534B1B781A43514B1A7006E0514A27
:10261000135C4F4A12789A434D4B1A70401C0428A1
:10262000C9DB00BF4A4A12784AB14B4A1278FA2AEB
:102630000ADA494A1278521C474B1A7004E0002209
:10264000454B1A70424B1A70434A1278642A29D1BA
:102650003B4A527A6AB13E4A127802F01002E2B165
:102660003B4A127802F04002BAB10023344A537256
:1026700013E0374A127802F0200272B1344A12781D
:1026800002F040024AB12E4A127A1AB101232C4AB2
:10269000537202E00122314B5A7000222C4B1A7007
:1026A0002D4B1A7070472E494989002942DD2C496B
:1026B000498940F6340291423CDA29494989002986
:1026C0000CDD2749498940F21452914206DA002272
:1026D0001B490A734A738A73CA732BE020494989DC
:1026E000B1F5AF6F16DD1E494989B1F5C86F11DA32
:1026F0001349897B012903D11149C97B012902D0E2
:1027000001220F494A730E49097B99B901220C49EC
:102710000A730FE01249498940F2A462914209DD2F
:102720000F49498940F63402914203DA01220449F3
:102730000A734A73704700B50948FFF74BFE00BDA6
:10274000C8000020E40000204C0200205EA4000825
:102750003200002062A400083100002000040020A4
:102760000A0200202DE9F05F04460E4617460021BC
:10277000A06807F0D5FA3AD00021384607F0D0FA21
:1027800035D0A06920F00041C1F1FF41C90F19B156
:1027900000250020A06108E06169701A07F05AFB6B
:1027A0008046394607F0FAF905462846A16907F040
:1027B00071FD82463946454807F07CF98346594603
:1027C000384607F0EBF98146514607F0A3FB8046F7
:1027D000A16907F06FF905466661A5612946A06801
:1027E00007F098FB804607F0CFFABDE8F09F002085
:1027F000FBE72DE9F04704460E46154600216068C8
:1028000007F08EFA22D00021284607F089FA1DD061
:10281000304607F01FFB8146616807F07BFB80466E
:10282000294607F077FB0746216907F043F9206145
:10283000E06880F0004702463946206900F0CDFF8D
:102840002061206907F0A0FABDE8F0870020FBE7CF
:102850002DE9F04104460D46284607F0FBFA0746ED
:10286000216807F057FB064607F08EFABDE8F081B5
:102870002DE9F04104460D46164629462046FFF74D
:10288000E7FF0746324629462046FFF7B2FF0744D6
:10289000324629462046FFF765FF3844BDE8F081FF
:1028A0002DE9F04104460D46164629462046FFF71D
:1028B000CFFF0746324629462046FFF79AFF3844A5
:1028C000BDE8F08100210161704700000361023C16
:1028D00038B50446FD48FE4BFE4A1146009020469E
:1028E00005F00CFCF948FA4BFA4A1146009004F145
:1028F0001C0005F003FCF5480023F74AF749009057
:1029000004F1380005F0FAFB002003460246F449C2
:10291000009004F1540005F0F1FB0020034602464C
:102920004FF08041009004F1700005F0E7FBED48A6
:10293000ED4B4FF07C524FF07F51009004F18C0032
:1029400005F0DCFBE14800231A464FF07E51009071
:1029500004F1A80005F0D2FB38BD10B504460723EA
:102960001C22E249204605F0F0FB044604F1D400A5
:1029700006F0FEFBA0F1D40404F1E00006F0F8FB41
:10298000A0F1E00404F1EC0006F0F2FBA0F1EC048D
:10299000962084F8C400322084F8C5002046FFF752
:1029A00097FF204610BD2DE9F04188B0044603A8EA
:1029B00006F0DEFBCE49C868CE4907F0ABFA074601
:1029C000CD49B1F9141048004FF4AF72514200F0F4
:1029D0003EFF804607F03EFA0646394607F05AFCAD
:1029E000054607F0D1F90690C1490869C14907F0C9
:1029F00091FA0746C049B1F9161048004FF4AF727A
:102A0000514200F024FF804607F024FA064639467A
:102A100007F040FC054607F0B7F907900221069839
:102A200000F020FF06900221079800F01BFF07909E
:102A30004FF08142AE492431684606F02CFC9DE8F7
:102A4000070003AB07C304F154000699FFF700FF2A
:102A5000074607F0FFF90646039907F01BFC0546F9
:102A600007F092F9C4F8C80004F154000799FFF781
:102A7000EFFE074607F0EEF90646049907F00AFC58
:102A8000054607F081F9CC21085194F8C5009A4910
:102A9000B1F9181000FB01F5E91705EBD1614811F8
:102AA00007F0D8F90746059907F0F4FB064607F04A
:102AB0006BF9D021085108B0BDE8F0812DE9FF5F26
:102AC000054601F0C7FA8D490968441A204606F008
:102AD000C9FD80468A4A8B4B06F0D8FD064606F0B3
:102AE000A1FC834601F0B6FA844908608049086970
:102AF000002107F0DBFA02D27D48006903E07C4840
:102B0000006980F0004006467949C868002107F056
:102B1000CDFA02D27648C06803E07548C06880F0FC
:102B200000400746314607F0C1FA0DD27049C86827
:102B3000002107F0BBFA02D26D48C06811E06C4872
:102B4000C06880F000400CE069490869002107F086
:102B5000ADFA02D26648006903E06548006980F07A
:102B600000400446684A002100F037FE82460024F7
:102B70001AE06148C088B0F5966F05DAC4EBC4016D
:102B800005EB8100FFF79EFE05F1C80252F8241004
:102B9000C4EBC40205EB8200534AFFF769FE01A9AA
:102BA00041F82400601CC4B2032CE2DB524BB3F9A1
:102BB0001830002B03DD504BB3F9183003E04E4BB7
:102BC000B3F918305B4203F596724B4BB3F91830EA
:102BD000002B03DD484BB3F9183003E0464BB3F943
:102BE00018305B42494CE11A039800F030FE404235
:102BF00003904748407B60BB504600F044FE81464E
:102C000005F030FD07463C49B1F91A10A1F57A707C
:102C100007F020F98046394606F0C0FF06463D49D8
:102C200006F048FF044607F0AFF801B2324841838E
:102C3000039800903048408B81B23748DDE901238A
:102C4000FFF730FA00203549086035490860284907
:102C500048602F48407B002817D02D48807B98BBC8
:102C60002B48C07B80BB2D48006832280EDA2B48E9
:102C70000068401C2949086000200346024640F2D3
:102C80006C7100902448FFF7E0F8AFE018494868FD
:102C9000002107F00BFA02D21548406803E01448FF
:102CA000406880F0004004461E4907F0FFF83ED817
:102CB0000F49886A594607F02DF904460C484168C7
:102CC000204606F0F7FE2FE03EE0000000004843FB
:102CD0000AD7A33C9A99193E6666E63ECDCC4C3F96
:102CE0000000A040000016436F12033B0B81000858
:102CF000E4000020000020410A0200203C000020E7
:102D00008DEDB5A0F7C6B03E0000A041D4FEFFFF98
:102D1000C800002000007A44FE010020340000209A
:102D2000380000200000AF443449486002E001212F
:102D30003348817300200346024640F26C710090D4
:102D40003048FFF74BF951E02D48807B01282FD107
:102D50002B48C07B60BB29494868002107F0A6F9D1
:102D600002D22648406803E02448406880F00040D2
:102D70000446254907F09AF80DD82049886A594633
:102D800007F0C8F804461D484168204606F092FE48
:102D90001A49486002E001211948C1730020034626
:102DA000024640F26C7100901648FFF7A3F81DE050
:102DB0001348807B012819D11148C07B012815D107
:102DC0001248006800280EDA10480068401C0F49BD
:102DD00008600020034602464FF4E1610090094874
:102DE000FFF733F802E0002105484173BDE8FF9F7B
:102DF00010B50748FFF7B1FD10BD0000E40000204A
:102E0000C8000020FE01002000C08F4538000020CF
:102E10004C02002010B50446FE490888FE49098886
:102E200002F088FB10BD1CB50446FA4908896946C2
:102E300002F0DBF9F74948890DF1020102F0D5F9FA
:102E4000F449888901A902F0D0F9BDF8000000B268
:102E5000F2490881BDF8020001B2F0484181BDF895
:102E6000040001B2ED4881811CBD1CB50446E9494E
:102E70004888694602F0B9F9E64988880DF10201EF
:102E800002F0B3F9E349C88801A902F0AEF9BDF830
:102E9000000000B2E1494880BDF8020001B2DF48FD
:102EA0008180BDF8040001B2DC48C1801CBD38B58A
:102EB0000446D849C889694602F097F9BDF8000070
:102EC00006F0E0FF0546D64906F068FED5490860E1
:102ED000D049088A694602F088F9BDF8000006F07A
:102EE000D1FF0546CE4906F059FECE494860C94992
:102EF000488A694602F079F9BDF8000006F0C2FF81
:102F00000546C94906F04AFEC6498860C149888A13
:102F1000694602F06AF9BDF8000006F0B3FF054605
:102F2000BF4906F03BFEBF49C861BA49C88A694635
:102F300002F05BF9BDF8000006F0A4FF0546B849B1
:102F400006F02CFEB7490862B249088B694602F0C8
:102F50004CF9BDF8000006F095FF0546B24906F0B1
:102F60001DFEB0494862AB49488B694602F03DF905
:102F7000BDF8000006F086FF0546A94906F00EFEE2
:102F8000A8498863A349888B694602F02EF9BDF8E9
:102F9000000006F077FF0546A14906F0FFFDA149B4
:102FA000C8639C49C88B694602F01FF9BDF8000050
:102FB00006F068FF05469C4906F0F0FD9949086453
:102FC0009449088C694602F010F9BDF8000006F03B
:102FD00059FF0546924906F0E1FD9249C1F8A80063
:102FE0008C49488C694602F000F9BDF8000006F0F3
:102FF00049FF05468A4906F0D1FD8A49C1F8AC006F
:103000008449888C694602F0F0F8BDF8000006F0AB
:1030100039FF0546844906F0C1FD8249C1F8B00078
:103020007C49C88C694602F0E0F8BDF8000006F063
:1030300029FF05467A4906F0B1FD7A494865754988
:10304000088D694602F0D1F8BDF8000006F01AFFBD
:103050000546734906F0A2FD724988656D49488DA1
:10306000694602F0C2F8BDF8000006F00BFF054605
:103070006D4906F093FD6B49C8656649888D6946C0
:1030800002F0B3F8BDF8000006F0FCFE0546644906
:1030900006F084FD634908675E49C88D694602F001
:1030A000A4F8BDF8000006F0EDFE05465C4906F008
:1030B00075FD5C4948675749088E694602F095F8E6
:1030C000BDF8000006F0DEFE0546574906F066FD35
:1030D0005449886738BD10B504462046FFF7E7FE1F
:1030E0002046FFF7C2FE2046FFF79DFE10BD70B5DB
:1030F00005464C4908684A4906F00CFF064606F0AA
:1031000089FE84B24349C889214602F013FA454931
:103110004868434906F0FEFE064606F07BFE84B290
:103120003C49088A214602F005FA3E4988683E4932
:1031300006F0F0FE064606F06DFE84B23549488A78
:10314000214602F0F7F93749C869354906F0E2FE31
:10315000064606F05FFE84B22E49888A214602F0B8
:10316000E9F93049086A2E4906F0D4FE064606F011
:1031700051FE84B22749C88A214602F0DBF9294969
:10318000486A294906F0C6FE064606F043FE84B2A8
:103190002049088B214602F0CDF92249886B20494D
:1031A00006F0B8FE064606F035FE84B21949488B93
:1031B000214602F0BFF91B49C86B194906F0AAFE67
:1031C000064606F027FE84B21249888B214602F09B
:1031D000B1F91449086C144906F09CFE064606F045
:1031E00019FE84B20B49C88B214602F0A3F90D49A0
:1031F000D1F8A8000A4906F08DFE064606F00AFE40
:1032000084B20449088C214602F094F90549D1F8AA
:10321000AC000BE066A4000842000020000400207F
:103220000000C8424C02002000007A445E4906F0CB
:1032300071FE064606F0EEFD84B25C49488C2146DC
:1032400002F078F95A49D1F8B0005A4906F062FE06
:10325000064606F0DFFD84B25449888C214602F010
:1032600069F95349486D504906F054FE064606F088
:10327000D1FD84B24D49C88C214602F05BF94C491E
:10328000886D494906F046FE064606F0C3FD84B245
:103290004649088D214602F04DF94549C86D45491A
:1032A00006F038FE064606F0B5FD84B23F49488D6B
:1032B000214602F03FF93E49086F3B4906F02AFEDD
:1032C000064606F0A7FD84B23849888D214602F0F3
:1032D00031F93749486F344906F01CFE064606F0BE
:1032E00099FD84B23149C88D214602F023F9304955
:1032F000886F304906F00EFE064606F08BFD84B25C
:103300002A49088E214602F015F970BD38B50446E9
:1033100026490888694601F068FFBDF8000038BDFD
:1033200010B504462046FFF7F1FF2349098888427B
:1033300002D02046FFF7DBFE2046FFF7CCFE2046FA
:10334000FFF768FD10BD10B504461C4A528891B2C3
:10335000164A508802F0EEF8184A928891B2134A41
:10336000908802F0E7F8154AD28891B20F4AD088C7
:1033700002F0E0F810BD10B50446104A128991B26F
:103380000A4A108902F0D6F80C4A528991B2074ACB
:10339000508902F0CFF8094A928991B2034A908984
:1033A00002F0C8F810BD00000000C84266A4000882
:1033B0004C02002000007A4442000020000400205B
:1033C00010B50446204600BF044604F1100005F085
:1033D000CFFEA0F1100404F11C0005F0C9FEA0F11D
:1033E0001C0404F1280005F0C3FEA0F1280404F138
:1033F000380004F074FEA0F1380404F15C0004F01D
:103400006EFEA0F15C0404F19C0005F0B1FEA0F199
:103410009C04204610BD10B50446CC4802F020F9AB
:1034200010BD10B5044604F13803C94AC949204605
:10343000FCF7B0FF04F15C03C74AC6492046FCF71D
:10344000A9FF10BD10B504462046FFF7EAFF20464D
:10345000FFF7E1FF10BD2DE9F04F87B00446BF48EC
:1034600000680A2803D0BE48007802286FD10020E7
:10347000BB4908705521BA4802F0F8FA0020B74954
:10348000086000F0E7FDB7490968A0EB010A504663
:1034900006F0E8F80746B44AB44B06F0F7F80546DC
:1034A00005F0C0FF814600F0D5FDAE490860E06838
:1034B00006F0D0FC05462A4604F15C012046FDF7E3
:1034C0008CF8A060AA4AA1681268881A06F0DAFC93
:1034D0000646494606F062FB054606F055FC00B27A
:1034E0006080A349A0680860B4F902004FF4FA5262
:1034F000514200F0ACF900B26080B4F902006421DE
:1035000000F0B0F900B260809949E068096888422B
:1035100005D198480078401C9649087002E00020C8
:10352000944908709249E0680860A06800280BDDA3
:10353000A068B0F57A7F07DA8E4800781E2803DA93
:10354000012084F8B80002E0002084F8B800834825
:103550000068401C8149086087480068052803D13D
:103560007A4802F092F94FE0834800680A284BD16C
:1035700000F070FD81490968A0EB010A504606F091
:1035800071F80746784A794B06F080F8054605F051
:1035900049FF814600F05EFD7849086000207649C9
:1035A00008606A4802F071F9684802F08AF9064634
:1035B00006F050FC05462A4604F138012046FCF787
:1035C000E3FF6060D4F8AC206168881A06F042FC22
:1035D0000646494606F0E2FA054606F0D5FB00B27B
:1035E00020806068C4F8AC00B4F900004FF4487261
:1035F000514200F02CF900B22080B4F900000A21F9
:1036000000F030F900B220805B480068401C5A4945
:10361000086000F01FFD5A490968A0EB010A5046F6
:1036200006F020F80546504A504B06F02FF80746A2
:1036300005F0F8FE814600F00DFD51490860514942
:1036400001A8FDF7D1F901A807C804AB07C3A2611F
:103650004FF08B41A06906F01DFE07464A4906F06F
:1036600059FC0646494906F055FC05464FF08B418A
:1036700006F094FAA0614946A06906F04BFC0546A5
:10368000616A06F017FA60624946606A06F042FC19
:103690000546216B06F00EFA2063606A06F0DEF93B
:1036A00005463B4A3B4B05F0F1FF07468846B4F917
:1036B000000005F0C0FF0546374A384B05F0E6FF2D
:1036C00082463A46434605F0DFFECDE9040105F0A7
:1036D000A9FE6062206B06F0C1F905462C4A2D4B0D
:1036E00005F0D4FF07468846606805F0A4FF05464C
:1036F000294A2A4B05F0CAFF82463A46434605F05E
:10370000C3FECDE9040105F08DFE206307B0BDE8DE
:10371000F08F10B5044600231A46194604F1100034
:1037200005F02BFD00231A46194604F11C0005F094
:1037300024FD00231A46194604F1280005F01DFD5A
:1037400010BD10B51648FFF73BFE10BD580600200F
:103750000000A0400AD7A33C0000484248000020D7
:1037600099000020540000208DEDB5A0F7C6B03EB2
:10377000580000205C000020440000205000002081
:103780004C000020E400002014AE1C410000C842A0
:10379000D7A3703D0AD7EF3F7B14AE47E17A743F61
:1037A0004403002010B50446204604F0C7FC08B1CD
:1037B000002010BD4FF07E51204606F077FC01D866
:1037C0006748F6E76749204606F070FB01D866486F
:1037D000EFE7204604F084FDEBE72DE9F0410646D3
:1037E0000C461546304604F0A9FC50B12946204647
:1037F00006F060F907464FF07C5106F08BFBBDE800
:10380000F0812146304606F051FB01D22046F6E712
:103810002946304606F04AFC01D22846EFE73046FA
:10382000EDE703468B4201DA08467047934201DD1B
:103830001046FAE71846F8E703468B4201DA0846D5
:103840007047934201DD1046FAE71846F8E7034651
:103850008B4201DA08467047934201DD1046FAE7D1
:103860001846F8E7002801DD024600E042428A429D
:1038700001DA002006E0002801DD401A02E00028FD
:1038800000DA0844704710B504463849204606F06F
:1038900041FB10BD10B504463549204606F03AFB01
:1038A00010BD10B504462146204606F033FB10BD7E
:1038B0002DE9F04105460C462046FFF7F2FF07468A
:1038C0002846FFF7EEFF8046394606F0F3F8064635
:1038D00005F05EFBBDE8F0812DE9F05F06460C4681
:1038E00015462846FFF7DDFF81462046FFF7D9FF42
:1038F00082463046FFF7D5FF8346514606F0DAF898
:103900008046494606F0D6F8074605F041FBBDE87B
:10391000F09F2DE9FE4F07460C4615461E463046E1
:10392000FFF7BFFF02902846FFF7BBFF019020463C
:10393000FFF7B7FF00903846FFF7B3FF83460099C3
:1039400006F0B8F88246019906F0B4F8814602996B
:1039500006F0B0F8804605F01BFBBDE8FE8F0000C6
:10396000DB0FC93F000080BFDB0FC9BF34FA8E3CBC
:10397000E12E654270B5044694E80F00FFF7C9FFD9
:1039800005462946206806F009F920602946606846
:1039900006F004F960602946A06806F0FFF8A06010
:1039A0002946E06806F0FAF8E06070BD2DE9F04FB6
:1039B00085B004460D46A168084606F0ABFA0746F6
:1039C000D4E9020106F0A6FA80466168084606F0CE
:1039D000A1FA8146D4E9010106F09CFA8246E16829
:1039E000606806F097FA0490D4E9000106F092FAB4
:1039F0000390A168206806F08DFA0290E1682068C3
:103A000006F088FA0190E168084606F083FA009013
:103A10003846009906F04EF883464FF0804106F094
:103A200079FA06464FF07E5106F0A2FB2860504618
:103A3000019906F02FFC06464FF0804106F06AFA25
:103A400068600299049806F035F806464FF0804108
:103A500006F060FAA8605046019906F02BF8064679
:103A60004FF0804106F056FAE8604846009906F0AB
:103A700021F883464FF0804106F04CFA06464FF09D
:103A80007E5106F075FB28614046039906F002FC62
:103A900006464FF0804106F03DFA686102990498AD
:103AA00006F0F8FB06464FF0804106F033FAA861B5
:103AB0004046039905F0FEFF06464FF0804106F0B0
:103AC00029FAE8613946484605F0F4FF83464FF08D
:103AD000804106F01FFA06464FF07E5106F048FB83
:103AE000286205B0BDE8F08F2DE9F04704460D4689
:103AF000A168206806F00EFA0746E168606806F0E3
:103B000009FA8046394606F0C5FB06464FF080416B
:103B100006F000FA2860D4E9020106F0FBF9074636
:103B2000D4E9000106F0F6F98046394605F0C2FFF7
:103B300006464FF0804106F0EDF96860A16808463E
:103B400006F0E8F980466168084606F0E3F9814628
:103B5000414605F0AFFF07464FF0804106F0DAF925
:103B600006464FF07E5106F003FBA860BDE8F087E3
:103B700070B58CB006460C4603AD284605F0F8FA41
:103B8000054605F10C0005F0F3FAA0F10C0505F16E
:103B9000180005F0EDFAA0F1180500BFA06880F04C
:103BA0000040A06003A93046FFF700FF224603A9AA
:103BB000684605F017FB9DE8070084E80700A06849
:103BC00080F00040A0600CB070BD2DE9F04F8FB0C8
:103BD000044689469246504605F040FFCDE908016B
:103BE000D9F80810E06806F095F90490D9F80410A7
:103BF000A06806F08FF90390606880F000400190A3
:103C0000D9F8001006F086F90290039906F042FBFD
:103C10008346049906F03EFB059005F01FFF07461A
:103C20000022F74B05F032FDCDE90601DDE908235E
:103C300005F02CFD05460E46206805F00FFF2A46CC
:103C40003346CDE90A0105F01FFCCDE90C0105F072
:103C5000E9FB2060504605F001FFCDE90601D9F8E7
:103C60000410E06806F056F90490D9F80810A0682E
:103C700006F050F90390D9F80010206806F04AF9D0
:103C80000290039905F016FF8346049906F002FBA3
:103C9000059005F0E3FE07460022D94B05F0F6FC3F
:103CA0000546DDE9062305F0F1FCCDE90A0160686F
:103CB00005F0D4FECDE90801DDE90A2305F0E4FBB7
:103CC000CDE90C0105F0AEFB6060504605F0C6FE84
:103CD000CDE90801D9F80010E06806F01BF904905E
:103CE000D9F80810606806F015F90390D9F80410A7
:103CF000206806F00FF90290039906F0CBFA83468C
:103D0000049905F0D7FE059005F0A8FE0022BC4BF3
:103D1000CDE9060105F0BAFC0746DDE9082305F008
:103D2000B5FCCDE90A01A06805F098FE0546DDE97D
:103D30000A2305F0A9FBCDE90C0105F073FBA06097
:103D4000504605F08BFECDE90601D9F80010A068B9
:103D500006F0E0F80390D9F80410606806F0DAF88D
:103D60008346D9F80810206806F0D4F85946029026
:103D700005F0A0FE8046039906F08CFA074605F090
:103D80006DFE054600229E4B05F080FCCDE9040146
:103D9000DDE9062305F07AFCCDE90A01E06805F0CB
:103DA0005DFECDE90801DDE90A2305F06DFBCDE9F3
:103DB0000C0105F037FBE0600FB0BDE8F08F2DE996
:103DC000F04F85B004460D4616461F464FF07C5115
:103DD000284606F09FF8824604F044FC80464FF0E7
:103DE0007C51304606F096F8824604F03BFC814652
:103DF0004FF07C51384606F08DF8824604F032FCD4
:103E000004904FF07C51284606F084F8824604F076
:103E1000F9FF03904FF07C51304606F07BF8824664
:103E200004F0F0FF02904FF07C51384606F072F833
:103E3000824604F0E7FF0190DDE9021006F06AF81F
:103E40000090019906F066F882464946404606F021
:103E500061F80090049906F05DF88346514605F03C
:103E600029FE20604046029906F054F8009001991E
:103E700006F050F882464946039806F04BF8009049
:103E8000049906F047F88346514606F003FA60604D
:103E90004946039806F03EF80090019906F03AF87A
:103EA00082464046029906F035F80090049906F0E3
:103EB00031F88346514605F0FDFDA060DDE90210B2
:103EC00006F028F80090049906F024F88246494646
:103ED000404606F01FF80090019906F01BF8834653
:103EE000514606F0D7F9E06005B0BDE8F08F2DE946
:103EF000FE4F04460D4616461F468DB3A168084680
:103F000006F008F801906168084606F003F8009092
:103F1000019905F0CFFD83464FF0804105F0FAFF8F
:103F200082464FF07E5106F023F98146D4E9020122
:103F300005F0F0FF8346D4E9000105F0EBFF594698
:103F4000019005F0B7FD82464FF0804105F0E2FF99
:103F50004946029004F058FA8046FFF79BFC28601F
:103F6000C6B1E168606805F0D5FF8346A1682068A6
:103F700005F0D0FF5946029006F08CF982464FF0CA
:103F8000804105F0C7FF8146FFF70CFC8046FFF734
:103F900081FC30608FB36168084605F0BBFF01907B
:103FA0002168084605F0B6FF0090019905F082FDF2
:103FB00083464FF0804105F0ADFF82464FF07E51C1
:103FC00006F068F90290E168206805F0A3FF8346D7
:103FD000D4E9010105F09EFF5946019006F05AF917
:103FE00082464FF0804105F095FF8146029904F02A
:103FF0000BFA8046FFF74EFC3860BDE8FE8F0000EC
:104000000000E03F00B585B0684602F0B4F84F49C3
:104010000098B0FBF1F04E49086005B000BD4D4876
:104020000068401C4B4908604B480088401C4A49C6
:10403000088008464088401C488008468088401C0C
:1040400088800846C088401CC88008460089401CFB
:104050000881704700BF3F4801684FF0E020826947
:104060003C4800688142F6D13948006800EB4003C3
:10407000C3EBC010C2EBC000354B1B68B0FBF3F0C4
:1040800001EB4103C3EBC11300EBC300704730B534
:104090000446FFF7DFFF054600BFFFF7DBFF401BCD
:1040A000A042FAD330BD10B5044603E04FF47A7055
:1040B000FFF7EDFF2000A4F10104F7D110BD70B5AA
:1040C0004FF4407001F03AFDFFF79CFF2348006871
:1040D0004FF47A72B0FBF2F1481EB0F1807F00D34A
:1040E0001BE0481E4FF0E022506150170F220028BD
:1040F00007DA13071D0E1A4B00F00F04241F1D557D
:1041000003E013071C0E174B1C5400BF00204FF098
:10411000E02290610720106100BF00F03EF800F03F
:10412000A1FC59220421104800F073FD45F6C0504F
:1041300000F0B6FE4FF4165001F0DEFB01F014FA69
:1041400003F01BFA01F071F970BD000040420F004E
:104150006000002064000020D8000020B40000208F
:1041600018ED00E000E400E058040020704700BFB4
:10417000FEE700BFFEE700BFFEE77047704710B5DF
:10418000FFF74DFF10BD704710B5024801F017FC56
:1041900010BD000099000020704708B501210820DB
:1041A00002F056F84020ADF8000003208DF8020020
:1041B00014208DF803006946E84801F08DFD802049
:1041C000ADF8000003208DF8020014208DF80300E4
:1041D0006946E24801F080FD08BD704700B5014620
:1041E0004020DE4A143210600846FFF7F6FF8020B8
:1041F000DA4A143210600846FFF7EFFF4020D74A32
:10420000103210600846FFF7E8FF8020D34A1032D2
:1042100010600846FFF7E1FF00BD00B501464020F1
:10422000CE4A143210600846FFF7D7FF8020CB4AF1
:10423000103210600846FFF7D0FF4020C74A103206
:1042400010600846FFF7C9FFC4480830006800F056
:10425000800040B14020C14A143210600846FFF788
:10426000BCFF002000BD4020BC4A1432106008464C
:10427000FFF7B3FF0120F5E710B5024608231DE064
:104280004020B64C143420601046FFF7A6FF01F022
:10429000800018B18020241F206003E08020AF4CF4
:1042A000143420604806010E1046FFF796FF4020A8
:1042B000AA4C103420601046FFF78FFF1800A3F1BE
:1042C0000104E3B2DCD14020A44C1434206010BDC2
:1042D00000B501468020A14A1032106040201060D5
:1042E0000846FFF77AFF9D480830006808B90120AA
:1042F00000E0002000F0800008B1002000BD802018
:10430000964A143210600846FFF767FF934808305A
:10431000006800F0800008B10020EFE780208F4A9D
:10432000143210600846FFF758FF0120E6E7F0B5A9
:1043300006460F4614461D463046FFF7C9FF08B92A
:104340000020F0BD39463046FFF796FF3046FFF7B4
:1043500064FF20B93046FFF741FF0020F1E7214616
:104360003046FFF789FF3046FFF757FF29463046B2
:10437000FFF782FF3046FFF750FF3046FFF72EFF72
:104380000120DEE700B501464020744A1432106077
:104390000846FFF722FF8020704A1032106008465E
:1043A000FFF71BFF40206D4A103210600846FFF7F0
:1043B00014FF4020694A143210600846FFF70DFFD1
:1043C00000BD10B50246082300218020634C103444
:1043D000206016E04806010E4020604C1434206036
:1043E0001046FFF7FAFE4020241F20601046FFF71A
:1043F000F4FE5A480830006800F0800008B141F02F
:1044000001011800A3F10104E3B2E3D14020534CB1
:1044100014342060084610BDF0B506460C4615461B
:104420003046FFF755FF08B90020F0BD2146304661
:10443000FFF722FF3046FFF7F0FE20B93046FFF7C6
:10444000CDFE0020F1E729463046FFF715FF304644
:10445000FFF7E3FE3046FFF73BFF601CC1B230467A
:10446000FFF70AFF3046FFF7D8FE3046FFF7A9FFF7
:1044700007463046FFF786FF3046FFF7AFFE384667
:10448000D3E700B501464020344A14321060084694
:10449000FFF7A3FE8020314A143210600846FFF770
:1044A0009CFE40202D4A103210600846FFF795FE12
:1044B00040202A4A143210600846FFF78EFE00BDE5
:1044C0002DE9F04381460E4617461C46DDF81C8058
:1044D000B8F1010F02DA0020BDE8F0834846FFF78B
:1044E000F7FE08B90020F7E731464846FFF7C4FE5B
:1044F0004846FFF792FE20B94846FFF76FFE0020BE
:10450000EAE739464846FFF7B7FE4846FFF785FE1B
:104510004846FFF7DDFE701CC1B24846FFF7ACFE0F
:104520004846FFF77AFE012509E04846FFF749FFB4
:1045300004F8010B4846FFF7A4FF681CC5B24545C7
:10454000F3DB4846FFF73DFF04F8010B4846FFF751
:1045500019FF4846FFF742FE0120BDE7000C01406D
:1045600010B504462046FFF717FE0446A01C04F0D1
:1045700030FE841E04F1080004F02BFEA0F10804B4
:1045800004F11C0004F0F4FDA0F11C0404F1280067
:1045900004F0EEFDA0F1280404F1340004F0E8FD7D
:1045A000A0F13404204610BD30B50346C8220020D7
:1045B00007E000BF1400A2F10105AAB2FAD1441C21
:1045C000E0B28842F5DB30BD2DE9F04107460D46EB
:1045D00016462A2E15D006DC052E0CD00A2E0CD03D
:1045E000142E16D10BE0622E0DD0BC2E0DD0B6F5D8
:1045F000807F0ED10BE006240DE005240BE004249F
:1046000009E0032407E0022405E0012403E000247C
:1046100001E0022400BF00BF80236B22D021384676
:10462000FFF785FE05213846FFF7BEFF4FF47A708D
:1046300090FBF5F0401E00F0FF0843461922D02100
:104640003846FFF774FE03236B22D0213846FFF76C
:104650006EFE02233722D0213846FFF768FE23463C
:104660001A22D0213846FFF762FE18231B22D021E0
:104670003846FFF75CFE10231C22D0213846FFF796
:1046800056FEBDE8F0812DE9F0410446207800286F
:104690006AD0EA48007800F0010048B9E74803F022
:1046A00066FD28B1E64804F063FDE448AFF30080FE
:1046B000E448008880B900231A461946A01C04F07B
:1046C0008DFD00231A461946DD4804F056FD0120F1
:1046D000DC490880BDE8F08104F11C01D84804F0F1
:1046E00064FDD8480088C82839D1D648008805F02C
:1046F000C9FB0646D2490868314605F04FFA05461F
:1047000005F042FB00B26080CE48008805F0BAFB9D
:104710000646CB494868314605F040FA054605F0A3
:1047200033FB01B2A180C748008805F0ABFB074608
:10473000C3498868394605F031FA06464FF08B4187
:1047400005F0A8FD054605F01FFB01B2E180002041
:10475000BC4908802070BC48FEF7F5FDBAE7B948AF
:104760000088401CB749088000BFB3E72DE9FC4131
:1047700004463C22D0212046FFF74EFEA0733B2288
:10478000D0212046FFF748FEE073A17BE07B41EAA1
:1047900000206188401A00B2ADF800003E22D0210E
:1047A0002046FFF739FE20743D22D0212046FFF736
:1047B00033FE6074217C607C41EA0021A088081AE5
:1047C00000B2ADF802004022D0212046FFF724FEBF
:1047D000A0743F22D0212046FFF71EFEE074A17C8A
:1047E000E07C41EA0021E088081A00B2ADF804003C
:1047F000BDF9040005F02EFB0546BDF9020005F0E9
:1048000029FB0646BDF9000005F024FB07462B46B0
:104810003246394604F11C0004F0AFFC2046FFF795
:1048200032FFBDE8FC8170B50446607800286ED088
:104830008648007800F0010048B9844803F097FCEE
:1048400028B1834804F094FC8048AFF3008081488D
:10485000008880B900231A46194604F1080004F0C4
:10486000BDFC00231A461946794804F086FC012055
:104870007849088070BD04F12801754804F095FC62
:1048800074480088C8283DD17248008805F0FAFABB
:1048900006466F490868314605F080F9054605F07F
:1048A00073FA00B220816B48008805F0EBFA0646E7
:1048B00067494868314605F071F9054605F064FA24
:1048C00001B261816348008805F0DCFA0646604960
:1048D0008868314605F062F9054605F055FA01B2DF
:1048E000A18100205B49088060705B48007A28B98C
:1048F0000121594841720120574908725248FEF778
:104900003AFDB7E753480088401C5249088000BF71
:10491000B0E72DE9FC4104464422D0212046FFF7B0
:104920007BFD20754322D0212046FFF775FD607581
:10493000217D607D41EA00202189401A00B2ADF856
:1049400000004622D0212046FFF766FDA0754522D3
:10495000D0212046FFF760FDE075A17DE07D41EAB2
:1049600000216089081A00B2ADF802004822D02167
:104970002046FFF751FD20764722D0212046FFF741
:104980004BFD6076217E607E41EA0021A089081AF5
:1049900000B2ADF80400BDF9040005F05BFA05466D
:1049A000BDF9020005F056FA0646BDF9000005F013
:1049B00051FA07462B463246394604F1280004F0E6
:1049C000DCFB2046FFF72FFFBDE8FC8110B5D1E9E5
:1049D0000834CA6980E81C0010BD10B5D1E90B3459
:1049E0008A6A80E81C0010BD0FB470B505460C46FD
:1049F0001A49069805F08EFA0646FEF744FF6063F2
:104A00001649079805F086FA0646FEF73CFFA063B4
:104A10001249089805F07EFA0646FEF734FFE06377
:104A2000D4E90E12606B85E8070070BC5DF814FBDA
:104A300010B50B48FFF794FD10BD00006800002082
:104A4000400400206C000020400000207000002086
:104A50004C04002074000020C80000208DC1793D66
:104A60000004002000B587B00121082001F0F0FB10
:104A70000121042001F0ECFB0121880301F0F5FB8A
:104A80004FF46040ADF8040001208DF806001820B6
:104A90008DF8070001A9414801F01EF94FF480701C
:104AA000ADF8040001208DF8060010208DF80700F5
:104AB00001A93B4801F010F94FF48050ADF8040013
:104AC00001208DF8060010208DF8070001A9334859
:104AD00001F002F94FF48051304801F0AAF90020AA
:104AE000ADF808004FF48270ADF80A000020ADF870
:104AF0000C00ADF80E00ADF810004FF40070ADF8EA
:104B000012000820ADF814000020ADF816000720B0
:104B1000ADF8180002A9234803F024F90121214827
:104B200003F0C5F907B000BD70B505460C4600BFDF
:104B300002211C4803F03FFA0028F9D02146194809
:104B400003F0E6F900BF0121164803F034FA00280B
:104B5000F9D0144803F0DEF9C0B270BD10B50446B8
:104B60004FF480710E4801F064F910BD10B5044691
:104B70004FF480710A4801F05EF910BD10B504468B
:104B80004FF48051054801F054F910BD10B50446AA
:104B90004FF48051014801F04EF910BD000C014066
:104BA00000080140003800402DE9F04105460E465E
:104BB00014462846FFF7EAFF31462846FFF7B4FFC0
:104BC000074621462846FFF7AFFF2846FFF7D6FFE6
:104BD0003846BDE8F0812DE9F0470746884615467E
:104BE0001E463846FFF7D2FF41463846FFF79CFF86
:104BF0008146002405E0295D3846FFF795FF601CDB
:104C0000C4B2B442F7DB3846FFF7B8FF4846BDE808
:104C1000F08770B505460C4616462846FFF7A6FFF6
:104C200005239C4A2A212846FFF7D5FF05239A4AE7
:104C300030212846FFF7CFFF012221212846FFF728
:104C4000B3FF012222212846FFF7AEFF1A222421BA
:104C50002846FFF7A9FF324625212846FFF7A4FF83
:104C60000F2226212846FFF79FFF012C0AD1FF22A1
:104C700031212846FFF798FF0F2220212846FFF711
:104C800093FF51E0022C0AD1FF2231212846FFF781
:104C90008BFF0E2220212846FFF786FF44E0032CDD
:104CA00021D1FF22E1212846FFF77EFFFF22E221EA
:104CB0002846FFF779FF0F2220212846FFF774FFCF
:104CC00050212846FFF730FF73212846FFF72CFFBD
:104CD00001223C212846FFF767FF06223D21284696
:104CE000FFF762FF20E00E2220212846FFF75CFF3D
:104CF000FF22E1212846FFF757FFFF22E221284645
:104D0000FFF752FF50212846FFF70EFF7321284678
:104D1000FFF70AFF01223C212846FFF745FF062244
:104D20003D212846FFF740FF2846FFF717FF70BDDB
:104D300070B506460C4615463046FFF717FF0523AB
:104D4000554A2A213046FFF746FF2B462246A0212E
:104D50003046FFF740FF3046FFF700FF70BD70B5EB
:104D600006460C4615463046FFF700FF2B46224606
:104D7000A8213046FFF72FFF3046FFF7EFFE70BD4A
:104D80002DE9F0470746884615461E463846FFF788
:104D9000FDFE41463846FFF7C7FE8146002406E087
:104DA00000213846FFF7C0FE2855601CC4B2B4424B
:104DB000F6DB3846FFF7E2FE4846BDE8F0877CB5F3
:104DC00005460523344A30212846FFF704FF052312
:104DD0006A4610212846FFF7D3FF002408E01DF89B
:104DE00004002D49095D884200D003E0601CC4B274
:104DF000052CF4DB00BF052C01D101207CBD002077
:104E0000FCE770B504460D462046FFF7BFFE294675
:104E10002046FFF789FE00212046FFF785FE064663
:104E20002046FFF7ABFE304670BD70B50546072142
:104E30002846FFF7E6FF044604F04000C0B16021B9
:104E40002846FFF7DEFF0646212E0BDA33462A46B8
:104E500061212846FFF794FF324629460F48FBF7A9
:104E6000AAFE04E0FF22E2212846FFF79DFE00BFD4
:104E700004F0100038B104F0010020B1FF22E1215C
:104E80002846FFF791FE224627212846FFF78CFE91
:104E900070BD00007B00002076000020BC010020D7
:104EA00030B589B0054601210C2001F0D1F90F2061
:104EB000ADF8040003208DF8060018208DF80700D7
:104EC00001A96D4800F008FF0320ADF8040001A916
:104ED0006A4800F001FF00BF0121084601F0C5F952
:104EE0004FF47A70684366490968B1FBF0F0401EE0
:104EF00084B240F2E730ADF81C00ADF81840002055
:104F0000ADF81E00ADF81A0006A94FF0804001F080
:104F1000D7FA6020ADF808000120ADF80A000020A3
:104F2000ADF80E00ADF8100002A94FF0804001F07E
:104F300004FB0821C80601F04FFF02A94FF0804092
:104F400001F03DFB0821C80601F04FFF02A94FF018
:104F5000804001F081FB0821C80601F053FF02A93F
:104F60004FF0804001F0C3FB0821C80601F053FF59
:104F70000121880701F000FF0121880701F0FCFDF5
:104F80000121022001F071F93D4800683D49B0FB64
:104F9000F1F0401E84B240F2E730ADF81C00ADF8ED
:104FA00018400020ADF81E00ADF81A0006A93648DA
:104FB00001F086FA6020ADF808000120ADF80A0083
:104FC0000020ADF80E00ADF8100002A92E4801F047
:104FD00043FB08212C4801F015FF02A92A4801F0E3
:104FE00086FB0821284801F016FF0121264801F020
:104FF000C3FE0121244801F0BFFD09B030BD0246C7
:10500000002014E031F91030B3F57A7F04DA4FF460
:105010007A7321F8103008E031F91030B3F5FA6FE7
:1050200003DD4FF4FA6321F81030431CD8B2062890
:10503000E8DB0888A0F57A704FF0804398864888AE
:10504000A0F57A70104B3C3318808888A0F57A70F0
:105050004FF080439887C888A0F57A700A4B403398
:1050600018800889A0F57A701B0618874889A0F572
:105070007A70064B1880704700080140000C014010
:10508000B400002000366E010004004040000040E3
:10509000034606210622F7480188F7480288ABB18B
:1050A000012B1BD13AB94EF6EE60814201D10020AE
:1050B00070470120FCE739B94EF6EE60824201D11B
:1050C0000120F5E70020F3E7AB20F1E709B9002064
:1050D000EEE70AB90120EBE7AB20E9E70020E7E7BC
:1050E00070B5042600240120FFF7D2FF0446AB2C44
:1050F00006D1E04800EB8420E0490860AB2070BD99
:10510000DC4800EB8420DD490860601CD949891E19
:1051100001EB80250CE0D94800680068401C10B9FC
:1051200004263046EBE7D5480068001DD3490860E7
:10513000D2480068A842EED38020E0E710B50424EE
:10514000CC4802F05FFA0446042C01D0204610BD82
:105150000021C84802F059FB0446042C01D0204627
:10516000F5E7C54802F04EFA04462046EFE72DE980
:10517000F04104460F4604250026DFF80483012091
:10518000FFF786FF0646AB2E01D1BDE8F081701C0B
:10519000B849891E01EB802821E0B8480068006802
:1051A000401CB8B93946B548006802F02EFB0546E8
:1051B000042D01D02846E8E72146B0480068801C4D
:1051C00002F023FB0546AD480068001DAB490860AE
:1051D0002846DAE7A9480068001DA8490860A748E2
:1051E00000684045D9D38020CFE72DE9F047064637
:1051F0000F46002545F255584FF001099D4CA24637
:105200000020FFF745FF0546AB2D01D1BDE8F08733
:10521000984800EB852A99480068841E0AE0B4F893
:105220000080B04505D134F8020C38804FF00009F9
:1052300004E0241F0AF102008442F0D800BF48466F
:10524000E4E72DE9F0474FF0060A0626002500277F
:10525000A8464FF0FF398748B0F800A08648068876
:105260005FEA0A0075D0A0F56E40EE3858B3A0F59D
:105270008850113800286DD146B97E4802F0C2F935
:105280000446042C1ED02046BDE8F0874EF6EE60A2
:10529000864210D1774802F0B5F90446042C01D0BB
:1052A0002046F1E70021744802F0AFFA0446042CCE
:1052B00008D02046E8E7FFF741FF0446042C01D060
:1052C0002046E1E7AEE07EBB002522E06948C088C9
:1052D0006C4931F81510884201D10FFA85F94D4516
:1052E00015D0684931F815006749FFF77EFF804601
:1052F000B8F1010F0BD0634931F8150062490988F4
:10530000FFF735FF0746042F01D03846BCE7681C7D
:1053100085B2192DDADB0021564802F076FA0446F0
:10532000042C02D02046AFE707E0534802F06AF9A8
:105330000446042C1FD02046A6E74FF6FF70864295
:1053400012D14D4802F05EF90446042C03D02046E9
:105350009AE711E05EE00021464802F056FA044662
:10536000042C08D020468FE7FFF7E8FE0446042C03
:1053700001D0204688E755E036B9FFF7DFFE044646
:10538000042C46D020467FE74FF6FF70864207D1B7
:10539000394802F037F90446042C3AD0204673E726
:1053A000002523E03448801D0088364931F8151067
:1053B000884201D10FFA85F94D4515D0314931F8B0
:1053C00015003149FFF711FF8046B8F1010F0BD0EE
:1053D0002C4931F815002C490988FFF7C8FE07460B
:1053E000042F01D038464FE7681C85B2192DD9DB50
:1053F0000021214802F009FA0446042C01D020467D
:1054000042E71C4802F0FEF80446042C01D0204676
:105410003AE707E0FFF792FE0446042C01D020464D
:1054200032E700BF00BF04202EE710B5FFF709FFE9
:105430000446FFF755FE204610BD2DE9F84F0746FC
:1054400089460425DFF830A0AAF1010A0948009036
:105450004FF00008002400264FF0000B0020FFF75B
:1054600017FE8046B8F1010F10D1DFF808A00248FE
:10547000009016E0000001080004010888000020E8
:10548000FF07010866A4000884000020B8F1000F9F
:1054900004D1DFF8C4A03148009002E0AB20BDE8A1
:1054A000F88F4EF6EE61504602F0AFF90546042D36
:1054B00001D02846F3E7FFF713FE49463846FFF7C9
:1054C00056FE0646042E01D03046E8E700241CE0D4
:1054D000234830F81400B84215D0214931F814009F
:1054E0002049FFF782FE8346BBF1010F0BD01C4918
:1054F00031F814001B490988FFF739FE0646042ECF
:1055000001D03046CBE7601C84B2192CE0DB009858
:1055100002F078F80546042D01D02846BFE70021A7
:10552000504602F072F90546042D01D02846B6E730
:105530002846B4E770B505460E4600243146284695
:10554000FFF715FE0446802C04D131462846FFF7AC
:1055500074FF0446204670BD0004010800000108E5
:1055600066A400088400002008B50121102000F086
:105570006FFE0121102000F06BFE10208DF803005B
:1055800003208DF802004FF48040ADF8000069461A
:10559000154800F0A1FB4FF40050ADF8000069463B
:1055A000114800F099FB08BD10B504464FF4804146
:1055B0000D4800F03EFC10BD10B504464FF40051FC
:1055C000094800F036FC10BD10B504464FF4804188
:1055D000054800F030FC10BD10B504464FF40051F2
:1055E000014800F028FC10BD0010014010B5044631
:1055F00001235822EE212046FEF799FE10BD7CB50E
:105600000546002001900026002418E002200090AA
:10561000A02000EB4400C2B201ABEE212846FEF709
:105620004FFF3044C6B29DF805009DF8041040EAD3
:10563000012105F1100020F81410601CC4B2082CE0
:10564000E4DB082E01D101207CBD0020FCE710B571
:10565000044601231E22EE212046FEF768FE10BDFF
:1056600010B504460A20FEF71EFD2046FFF7EFFFA7
:105670000320FEF718FD2046FFF7C1FF2046FFF785
:10568000B5FF10BD10B5044601234822EE21204687
:10569000FEF74DFE10BD38B50446032004F120038B
:1056A0000022EE2100902046FEF70AFF38BD2DE9CA
:1056B000F04F8BB004464FF00008C14694F820002C
:1056C00001042120005D41EA00202221095D0843F8
:1056D000A06094F8230001042420005D41EA00202A
:1056E0002521095D0843E060608BA168A1EB0025DE
:1056F000A08A00040022218B4FEAE57CA1FB05BEB5
:1057000002FB05E301FB0C334FEADB1141EA436185
:10571000401842EBE312CDE90802608A4FEAC0303C
:105720004246E18A4FEAE57CA1FB05BE02FB05E3A8
:1057300001FB0C334FEA1B2141EA0361401842EBA5
:105740002322CDE90602A08B42464FEAE573A0FB77
:10575000051C02FB05C200FB03204FEA402242EA7F
:10576000D1504FF4FA614718B7F5FA6F19DAA7F577
:10577000FA66764306EB86004FEA600806EB860081
:105780004FEAA009544887420BDA07F2DC56764309
:10579000072000FB068806EB460000EBC60009EB7D
:1057A0006009DDE90801B0EB080061EBE871CDE9C3
:1057B0000801DDE90601B0EB090061EBE971CDE913
:1057C00006014FF00003E168DDE9062CA1FB020BA6
:1057D00003FB02B201FB0C224FEA505141EAC22CFA
:1057E0004FEA6251DDE90802BCEB000061EB020107
:1057F000C00B40EA414A504604F02CFB3749019067
:1058000004F0CCF98346364802905846029902F0DB
:10581000EBFF4FF07E51039004F0AAFC3149049055
:1058200004F078FB059004F0AFFA8246606818B186
:105830006068AAEB000020602B480078B0B12A48CD
:105840000078401E2849087008460078C82804DA05
:10585000264800685044254908602348007828B944
:1058600022480068C72190FBF1F060600BB0BDE8F2
:10587000F08F38B50446032004F123030022EE2103
:1058800000902046FEF71CFE38BD10B504461848AF
:10589000006860B12046FFF7ECFF2046FFF7A6FE48
:1058A0002046FFF704FF00201149086008E0204669
:1058B000FFF7F1FE2046FFF7E5FE01200C490860E6
:1058C00010BD01460868704710B50A4C2046FEF727
:1058D00063FC044600BF10BD24FAFFFF80E6C54705
:1058E000B1DC423ED048874A980000209400002056
:1058F000900000205806002010B588B00446012111
:10590000880400F0B2FC0121082000F0A1FC4FF453
:105910008060ADF8040003208DF8060018208DF893
:10592000070001A97D4800F0D7F94FF40060ADF8F9
:10593000040003208DF8060004208DF8070001A95B
:10594000764800F0C9F904940020ADF81400ADF8D1
:105950001600ADF81800ADF81C000C20ADF81A00C8
:105960000020ADF80800ADF80A004FF40070ADF863
:105970000C000020ADF80E0004A9694801F01DFCE0
:1059800002A9674801F08EFC012240F225516448CB
:1059900001F0ABFC0121624801F09BFC27208DF84F
:1059A000000001208DF8010000208DF80200012088
:1059B0008DF80300684600F0C6F808B010BD10B5B9
:1059C0005749098801F0080121B1554A121D128872
:1059D000D1B200BF5249098801F08001F1B15049AC
:1059E0000C31098801F08001C1B14E490A7809786B
:1059F000491C4C4B19704C49895C494A121D118055
:105A000019460978494A1278914207D144490C3124
:105A1000098821F08001424A0C32118040490988EE
:105A200001F0200109B33E4B1B1D1B88DAB203783D
:105A30002BB93F4B1A7003785B1C037014E003789A
:105A4000012B11D13B4B1A701B78394C247843EA57
:105A50000421002905DD40F2DC53994201DA364B7E
:105A6000D96003785B1C037000BF10BD70B505469C
:105A70000C462E4801780078401C2C4A10702A48A9
:105A8000445427480C30008800F0800028B90122D7
:105A900040F22771224801F028FC70BD70B5054620
:105AA0000C4614E020780D2804D10D212846FFF77C
:105AB000DDFF0BE020780A2804D10A212846FFF7F1
:105AC000D5FF03E021782846FFF7D0FF641C20783B
:105AD0000028E7D170BD2DE9F04106460C46154679
