:020000040800F2
:10000000600B0020C53E0008BD130008CF3E00086D
:10001000BF130008C3130008C71300080000000046
:10002000000000000000000000000000CB130008EA
:10003000CD13000800000000DB3E0008CF130008CD
:10004000DF3E0008DF3E0008DF3E0008DF3E00081C
:10005000DF3E0008DF3E0008DF3E0008DF3E00080C
:10006000DF3E0008DF3E0008DF3E0008DF3E0008FC
:10007000DF3E0008DF3E0008DF3E0008DF3E0008EC
:10008000DF3E0008DF3E0008DF3E0008DF3E0008DC
:10009000DF3E0008DF3E0008DF3E0008DF3E0008CC
:1000A000DF3E0008DF3E0008DF3E0008DF3E0008BC
:1000B000DF3E0008DF3E0008DF3E0008DF3E0008AC
:1000C000DF3E0008DF3E0008DF3E0008DF3E00089C
:1000D000DF3E0008D7130008DF3E0008DF3E0008BF
:1000E000DF3E0008DF3E0008DF3E000800F002F8B7
:1000F00000F03CF80AA090E8000C82448344AAF186
:100100000107DA4501D100F031F8AFF2090EBAE883
:100110000F0013F0010F18BFFB1A43F0010318473B
:100120006863000088630000103A24BF78C878C173
:10013000FAD8520724BF30C830C144BF04680C60ED
:10014000704700000023002400250026103A28BF35
:1001500078C1FBD8520728BF30C148BF0B60704739
:100160001FB504F0ABFB1FBD10B510BD04F0CCFBF8
:100170001146FFF7F5FF00F009F804F0EAFB03B4BD
:10018000FFF7F2FF03BC04F0EBFB000001F0C0F846
:10019000044800F09EFD044800F0D5FE01E000F0A8
:1001A00056F8FCE7040000200401002001224272FE
:1001B000704710B50446A07AD0B112480078401CB0
:1001C0001049087008460078012804D0022806D09B
:1001D00004280CD107E00C4802F0A2FC07E00A4812
:1001E00002F0A6FC03E000200649087000BF02E010
:1001F000054802F095FC10BD00B50448FFF7D6FF96
:1002000000BD000000000020420000206C00002023
:1002100010B52E4800F05FF910BD10B52C4800F065
:100220009BFE2B4800F043FF10BD10B5274800F09F
:10023000E1F910BD10B5254800F0DEFA2548FFF7BA
:10024000B8FF10BD10B5244800F010F910BD10B56E
:10025000214800F045F821480088012804DBFFF719
:10026000D7FF00201D4908801C484088022804DB75
:10027000FFF7D3FF002019494880184880880528D7
:1002800004DBFFF7D2FF0020144988801348C088A0
:100290000A2804DBFFF7CEFF00201049C8800F4872
:1002A00000891E2804DBFFF7CDFF00200B490881E1
:1002B00010BD00210181C180818041800180704793
:1002C00000B50648FFF7F5FF00BD0000B8000020AC
:1002D000040100206C000020820000207800002033
:1002E00010B504466D48007850B100206B49087085
:1002F0006B48C078401DC2B269496A4801F0E9F90B
:100300006948007860B1002067490870644890F837
:100310002300401DC2B262492031624801F0D9F980
:10032000604801F03CFA10BD70B504460E46154613
:100330002A46611C5B4801F0B5F970BD70B50446F2
:100340000025AA2229466D1C601C4254AF22294672
:100350006D1C4254032229466D1C4254002229463A
:100360006D1C42545148C27929466D1C601C425490
:100370004E48827929466D1C601C42544B48427994
:1003800029466D1C601C4254484802792846691C65
:10039000CDB2611C0A54454842782846691CCDB24A
:1003A000611C0A54414802782846691CCDB2611C80
:1003B0000A543E48C2782846691CCDB2611C0A54D2
:1003C0003A4882782846691CCDB2611C0A543748E5
:1003D000427A2846691CCDB2611C0A543348027A1D
:1003E0002846691CCDB2611C0A543048C27A28469E
:1003F000691CCDB2611C0A542C48827A2846691CBB
:10040000CDB2611C0A542948427B2846691CCDB2F2
:10041000611C0A542548027B2846691CCDB2611C28
:100420000A542248C27B2846691CCDB2611C0A547A
:100430001E48827B2846691CCDB2611C0A54281FC5
:1004400020710026002005E0611C095C3144CEB219
:10045000411CC8B2A842F7DB2846691CCDB2611C1A
:100460000E542A462046FFF75FFF70BD10B50446C4
:100470000F480078012800D102E00120207000BF61
:1004800000BF0B480078401C09490870207820B153
:10049000002020702046FFF751FF10BD30000020E3
:1004A000560400205801002031000020B800002030
:1004B00001000020FE4901620A464262826240F267
:1004C0004C4101814181704700B503461846FFF752
:1004D000F1FF184600BD2DE9FC5F0446F549C888C8
:1004E00005F0C4FC834605F00BFB0746F24AF34BCC
:1004F00005F01EF981468A46206A05F001FB074691
:10050000EF4AF04B05F014F905464A46534605F00C
:1005100023F8CDE9000104F0EDFF2062E549888869
:1005200005F0A4FC834605F0EBFA0746E24AE34BEC
:1005300005F0FEF805460E46606A05F0E1FA07464A
:10054000DF4AE04B05F0F4F82A463346CDE90001D6
:1005500005F002F8814604F0CDFF6062D549488875
:1005600005F084FC834605F0CBFA0746D24AD34B0C
:1005700005F0DEF805460E46A06A05F0C1FA07460A
:10058000CF4AD04B05F0D4F82A463346CDE90001D6
:1005900004F0E2FF814604F0ADFFA062C54908887F
:1005A00005F064FC834605F0ABFA0746C24AC34B2C
:1005B00005F0BEF881468A46E06A05F0A1FA0746D2
:1005C000BF4AC04B05F0B4F805464A46534604F00E
:1005D000C3FFCDE9000104F08DFFE062B549488911
:1005E00005F044FC6064B349888905F03FFCA064D1
:1005F000BDE8FC9F2DE9FC5F8246B348407A0028A5
:1006000052D04FF08041DAF8200005F019FB064681
:10061000AE4905F0A1FD0546AC4905F09DFA04463A
:1006200005F0ECFBBAF81010401AAAF80000BAF86E
:100630000010A1F2DC5005F064F88046A44AA54BF6
:1006400005F076F806460022A34B04F085FF044629
:1006500005F02AF8AAF800004FF08041DAF82400EB
:1006600005F0EEFA0546994905F076FA044605F0DC
:10067000C5FBBAF81210401AAAF80200BAF8021024
:10068000A1F2DC5005F03DF88046914A914B05F00F
:100690004FF806460022904B04F05EFF044605F03A
:1006A00003F8AAF8020047E08748807A002843D080
:1006B0008A4908688A4905F021FC834605F082FBD7
:1006C0000FFA80F94FF4FA725142484600F073FD78
:1006D000804605F016F806467D4A7E4B05F028F860
:1006E00000227D4BCDE9000104F036FF044604F002
:1006F000DBFFAAF8000079494868794905F0FEFB5C
:10070000009005F05FFB00B24FF4FA725142019085
:1007100000F051FD834604F0F4FF80466C4A6D4BB7
:1007200005F006F8064600226B4B04F015FF044660
:1007300004F0BAFFAAF802004FF08041DAF828006E
:1007400005F07EFA0646614905F006FD05465F495B
:1007500005F002FA044605F051FBBAF81410401AED
:10076000AAF80400BAF80410A1F2DC5004F0C9FFA2
:100770000646574A574B04F0DBFF04460022564B0F
:1007800004F0EAFE804604F08FFFAAF804004FF060
:100790008041DAF82C0005F053FA05464B4905F084
:1007A000DBF9044605F02AFBBAF81610401AAAF83D
:1007B0000600BAF80610A1F2DC5004F0A2FF804651
:1007C000434A444B04F0B4FF06460022424B04F077
:1007D000C3FE044604F068FFAAF80600DAF84400F5
:1007E00005F00CFBAAF84000DAF8480005F006FB1B
:1007F000AAF84200BDE8FC9F10B5044639480078CD
:1008000020B138480078401E36490870B4F84000DE
:1008100064281FDA34480078E0B13248007810B913
:100820000A2030490870B4F84000642811DA2E48D4
:10083000007800280DD02B480078012809D1E08AE3
:10084000801E01B2E182294800F049FA00202649C1
:100850000870EBE0B4F8400040F29E7188424BDD36
:10086000B4F8400040F63401884245DA1E4800786A
:10087000F0B31C48007810B90A201A490870B4F87F
:10088000400040F29E718842E3DDB4F8400040F63B
:1008900034018842DDDA134800780128D9D1A08AD2
:1008A000801C01B2A182114800F019FA002020E05A
:1008B0000080BB44960400207B14AE47E17A843F5D
:1008C000AE47E17A14AEEF3F6C00002000007A449E
:1008D000CDCCCCCCCCCCEC3F0070974004010020B8
:1008E000000020410300002002000020040000203E
:1008F00002E0DD49087099E0B4F8400040F65A2162
:10090000884229DDB4F8400040F6BE21884223DA4F
:10091000D548007800B3D548007810B90A20D349EB
:100920000870B4F8400040F65A2188427EDDB4F8E1
:10093000400040F6BE21884278DACC480078012891
:1009400074D1E08A801C01B2E182C94800F0C7F985
:100950000020C549087069E0B4F8400040F6B8319D
:10096000884229DDB4F8400040F61C41884223DA71
:10097000BD48007800B3BD48007810B90A20BB49D3
:100980000870B4F8400040F6B83188424EDDB4F843
:10099000400040F61C41884248DAB44800780128FB
:1009A00044D1A08A801E01B2A182B14800F097F91B
:1009B0000020AD49087039E0B4F84000B0F5486F48
:1009C00034DDB4F8400040F6E44188422EDAA6480F
:1009D000007858B3A548007810B90A20A3490870D8
:1009E000B4F84000B0F5486F20DDB4F8400040F6A0
:1009F000E44188421ADA9C480078B8B19B480078F4
:100A0000012813D19B48407A28B1002199484172AE
:100A10000121817207E09748807A20B10121954831
:100A200041720021817200208F490870B4F84200A1
:100A300064281FDA8C480078E0B18C48007810B93F
:100A40000A208A490870B4F84200642811DA8648FE
:100A5000007800280DD085480078012809D1608AE7
:100A6000801E01B26182824800F039F900207E497F
:100A70000870E5E0B4F8420040F26C7188422DDD68
:100A8000B4F8420040F63401884227DA764800780C
:100A900020B37648007810B90A2074490870B4F879
:100AA000420040F26C718842E3DDB4F8420040F647
:100AB00034018842DDDA6C4800780028D9D06B48D0
:100AC00000780128D5D1208A801E00B22082684893
:100AD00000F005F9002064490870B1E0B4F8420064
:100AE00040F6282188422BDDB4F84200B0F52F6F84
:100AF00026DA5D48007818B35C48007810B90A20FF
:100B00005A490870B4F8420040F62821884216DDA0
:100B1000B4F84200B0F52F6F11DA5348007800287E
:100B20000DD052480078012809D1608A801C01B29A
:100B300061824F4800F0D3F800204B4908707FE0F5
:100B4000B4F8420040F6863188422CDDB4F8420009
:100B500040F64E41884226DA4348007818B34348AD
:100B6000007810B90A2041490870B4F8420040F6F4
:100B70008631884264DDB4F8420040F64E41884236
:100B80005EDA39480078E8B338480078012857D150
:100B9000208A801C00B22082354800F0A0F8002096
:100BA000314908704CE0B4F84200B0F5486F31DDCF
:100BB000B4F8420040F6E44188422BDA2A48007833
:100BC00040B32A48007810B90A2028490870B4F8C0
:100BD0004200B0F5486F33DDB4F8420040F6E4411E
:100BE00088422DDA2048007860B12048007801283A
:100BF00026D1608940F24C41884204D140F2DC5059
:100C0000608103E01CE040F24C4060810020164906
:100C1000087015E0B4F8420040F6165188420FDD26
:100C2000B4F8420040F67A51884209DA0E4800785A
:100C300030B10E48007810B90A200C49087000BF86
:100C4000B4F8420040F6D271884206DDB4F84000A4
:100C5000884202DD01200449087010BD00B5064835
:100C6000FFF732FC00BD000002000020030000205E
:100C7000040000206C000020B80000201CB50446D1
:100C800028494888694600F06CFE264988880DF19D
:100C9000020100F066FE2349C88801A900F061FE48
:100CA000204908890DF1060100F05BFE002007E0F5
:100CB0003DF810100AB21C4921F81020411CC8B29E
:100CC0000428F5DB1CBD10B504462046FFF7D6FF0F
:100CD00010BD10B504462046FFF7F5FF10BD10B556
:100CE0000446114A103A128A91B20E4A508800F016
:100CF000DDFF0D4A103A528A91B20A4A908800F0FC
:100D0000D5FF094A103A928A91B2064AD08800F07B
:100D1000CDFF054A103AD28A91B2024A108900F0FA
:100D2000C5FF10BD46640008C80000202DE9F0474B
:100D300081460C4615462946634805F0DFF8804693
:100D400041464FF07E5004F07BFF0746214604F0F9
:100D500003FF06463146204604F072FFBDE8F087E7
:100D60005A4A0A605A4A4A605A4A8A6070472DE9CC
:100D7000F04107460D4614462146284604F0ECFE95
:100D800006463146204604F05BFFBDE8F0810FB413
:100D9000F0B58DB005460F461A9C224617A904A847
:100DA00004F06FFB04A807C807AB07C321464FF048
:100DB0007E5005F063FA0646324614A901A804F0F5
:100DC00060FB01A807C80AAB07C307AA0AA92846FF
:100DD00004F073FB0DB0F0BC5DF814FB0FB470B5FC
:100DE0009EB005460E4614460FA800218160416062
:100DF000016000BF04F10C010CA8A26804F041FBE3
:100E00000CA807C812AB07C304F1180109A862684F
:100E100004F037FB09A807C815AB07C325A906A826
:100E2000226804F02EFB06A807C818AB07C315AA52
:100E300018A903A804F041FB03A807C81BAB07C30C
:100E400012AA1BA9684604F000FB9DE807000FAB3F
:100E500007C3D4E90712A069C4E90412E0600FA82F
:100E600007C8C4E90712A0610FA807C885E80700F2
:100E70001EB070BC5DF814FB0FB4F0B58DB0054624
:100E80000F461A9C21464FF07E5005F0F7F90646B2
:100E9000324617A904A804F0F4FA04A807C807AB5F
:100EA00007C3224614A901A804F0EBFA01A807C859
:100EB0000AAB07C307AA0AA9284604F0FEFA0DB038
:100EC000F0BC5DF814FB0000DB0FC9404FE2403E70
:100ED0006808833FA725593E10B50446204600BF49
:100EE0000446204604F039FA044604F10C0004F0EC
:100EF00034FAA0F10C0404F1180004F02EFAA0F169
:100F0000180404F1240004F028FAA0F12404204677
:100F100010BD10B5044662224FF47A717A4801F090
:100F2000B1FB10BD10B50446784A79492046FFF759
:100F3000FDFE78490860784A75492046FFF717FF9B
:100F40007449486010BD10B504462046FFF7EAFF1B
:100F50002046FFF7DEFF10BD3EB504466A4801F0AB
:100F600061FC694801F026FD6749684601F08DFD86
:100F70009DE80700C4E90412E0606349684601F097
:100F800076FD9DE80700C4E90712A0613EBD7FB56C
:100F900098B00546239E6148007800F0010048B9EA
:100FA0005E4803F0FDFC28B15D4804F0D6F95B48CB
:100FB000AFF300805B48007800F0010048B9594861
:100FC00003F0EEFC28B1584804F0C7F95548AFF3D8
:100FD00000805648007800F0010078B9534803F0CB
:100FE000DFFC58B15248002213464FF08B4102609B
:100FF0004360816000BF4D48AFF3008009AC2046DC
:1010000004F0ABF9044604F10C0004F0A6F9A0F1D9
:101010000C0404F1180004F0A0F9A0F1180400BFBA
:10102000414A19A906A804F048FA06A807C812AB55
:1010300007C34FF07C5212A903A804F022FA03A8B8
:1010400007C815AB07C3324615A9684604F019FA5C
:1010500033489DE80E000EC0334819A90EC90EC0D2
:101060002F4909A804F0B6F8314A09A906A804F0E6
:101070009AF92F4806A90EC90EC026484068049068
:1010800020A807C801AB07C32948806800902848FA
:1010900029460CC806A8FFF7EFFE254806A90EC989
:1010A0000EC029460C3804F019F91CB070BD10B5FB
:1010B00088B00446174800680490D4E90702A16983
:1010C000CDE902020191E06A0090214605A8D4E929
:1010D0000923FFF75CFE05A807C8C4E90A1260628D
:1010E0000B480390D4E90A12606A8DE80700204695
:1010F000D4E90423E168FFF74AFF08B010BD10B53A
:101100000C48FFF7E9FE10BDA40400200000F041E8
:101110006F12033B6C0000209A99993F1000002049
:10112000340100200C0000204001002008000020B5
:101130004C0100200401002010B50446204603F0B5
:1011400028FC08B1002010BD4FF07E51204604F06D
:10115000A1FF01D85E48F6E75E49204604F09AFEFA
:1011600001D85D48EFE7204603F0D4FCEBE72DE91A
:10117000F04106460C461546304603F00AFC50B1D5
:101180002946204604F0E8FC07464FF07C5104F065
:10119000B5FEBDE8F0812146304604F07BFE01D269
:1011A0002046F6E72946304604F074FF01D228466F
:1011B000EFE73046EDE703468B4201DA0846704719
:1011C000934201DD1046FAE71846F8E703468B42E2
:1011D00001DA08467047934201DD1046FAE71846E7
:1011E000F8E703468B4201DA08467047934201DD77
:1011F0001046FAE71846F8E710B504463749204686
:1012000004F07CFE10BD10B504463549204604F0BC
:1012100075FE10BD10B504462146204604F06EFE52
:1012200010BD2DE9F04105460C462046FFF7F2FFC0
:1012300007462846FFF7EEFF8046394604F08CFC4F
:10124000064603F0B1FFBDE8F0812DE9F05F0646E8
:101250000C4615462846FFF7DDFF81462046FFF77E
:10126000D9FF82463046FFF7D5FF8346514604F04A
:1012700073FC8046494604F06FFC074603F094FF78
:10128000BDE8F09F2DE9FE4F07460C4615461E4669
:101290003046FFF7BFFF02902846FFF7BBFF0190E3
:1012A0002046FFF7B7FF00903846FFF7B3FF8346AD
:1012B000009904F051FC8246019904F04DFC8146EE
:1012C000029904F049FC804603F06EFFBDE8FE8FF2
:1012D000DB0FC93F000080BFDB0FC9BF34FA8E3C73
:1012E000E12E65422F480088401C2E4908800846A0
:1012F0004088401C488008468088401C88800846FA
:10130000C088401CC88008460089401C088170477E
:1013100070B54FF4A06001F015FC234800684FF44D
:101320007A72B0FBF2F1481EB0F1807F00D31BE06F
:10133000481E4FF0E022506150170F22002807DAB4
:1013400013071D0E194B00F00F04241F1D5503E059
:1013500013071C0E164B1C5400BF00204FF0E02258
:1013600090610720106100BF00F059FF114800F0A4
:10137000B7FC00F035F8592203210F4800F003F9BB
:101380000D4800F0D6F920B106480089401C0549F7
:10139000088100F032FF01F0AFFB02F0E4F900F049
:1013A00000FC70BD780000205800002018ED00E01F
:1013B00000E400E020A1070058010020704700BFB2
:1013C000FEE700BFFEE700BFFEE77047704710B5BD
:1013D000FFF788FF10BD10B500F0E5FC10BD000060
:1013E00000B587B00121082001F036FF0121082057
:1013F00001F032FF0121880301F03BFF4FF4604010
:10140000ADF8040001208DF8060018208DF80700C3
:1014100001A9404801F064FC2020ADF8040001203F
:101420008DF8060010208DF8070001A9394801F059
:1014300057FC4FF48050ADF8040001208DF80600F1
:1014400010208DF8070001A9324801F049FC4FF443
:101450008051304801F0F1FC0020ADF808004FF455
:101460008270ADF80A000020ADF80C00ADF80E0057
:10147000ADF810004FF40070ADF812000820ADF880
:1014800014000020ADF816000720ADF8180002A9DE
:10149000214802F05DFD01211F4802F0FEFD07B06A
:1014A00000BD70B505460C4600BF02211A4802F087
:1014B00078FE0028F9D02146174802F01FFE00BF31
:1014C0000121154802F06DFE0028F9D0124802F003
:1014D00017FEC0B270BD10B5044620210D4801F0C2
:1014E000ACFC10BD10B5044620210A4801F0A7FC51
:1014F00010BD10B504464FF48051064801F09DFC24
:1015000010BD10B504464FF48051024801F097FC1D
:1015100010BD0000000C0140003800402DE9F041F2
:1015200005460E4614462846FFF7EBFF314628468F
:10153000FFF7B7FF074621462846FFF7B2FF2846C8
:10154000FFF7D7FF3846BDE8F0812DE9F0470746A1
:10155000884615461E463846FFF7D3FF41463846B3
:10156000FFF79FFF8146002405E0295D3846FFF71D
:1015700098FF601CC4B2B442F7DB3846FFF7B9FFEE
:101580004846BDE8F08770B505460C461646284625
:10159000FFF7A8FF05239A4A2A212846FFF7D5FF1F
:1015A0000523984A30212846FFF7CFFF0122212149
:1015B0002846FFF7B3FF012222212846FFF7AEFF9E
:1015C0001A2224212846FFF7A9FF32462521284662
:1015D000FFF7A4FF0F2226212846FFF79FFF012CCB
:1015E0000AD1FF2231212846FFF798FF0F22202140
:1015F0002846FFF793FF51E0022C0AD1FF22312148
:101600002846FFF78BFF0E2220212846FFF786FF92
:1016100044E0032C21D1FF22E1212846FFF77EFF81
:10162000FF22E2212846FFF779FF0F2220212846DA
:10163000FFF774FF50212846FFF733FF7321284638
:10164000FFF72FFF01223C212846FFF767FF062204
:101650003D212846FFF762FF20E00E222021284688
:10166000FFF75CFFFF22E1212846FFF757FFFF222B
:10167000E2212846FFF752FF50212846FFF711FFCD
:1016800073212846FFF70DFF01223C212846FFF772
:1016900045FF06223D212846FFF740FF2846FFF779
:1016A0001AFF70BD70B506460C4615463046FFF76A
:1016B00019FF0523534A2A213046FFF746FF2B46E0
:1016C0002246A0213046FFF740FF3046FFF703FFD8
:1016D00070BD70B506460C4615463046FFF702FF52
:1016E0002B462246A8213046FFF72FFF3046FFF752
:1016F000F2FE70BD2DE9F0470746884615461E46A6
:101700003846FFF7FEFE41463846FFF7CAFE8146DF
:10171000002406E000213846FFF7C3FE2855601C70
:10172000C4B2B442F6DB3846FFF7E3FE4846BDE8F4
:10173000F0877CB505460523324A30212846FFF75D
:1017400004FF05236A4610212846FFF7D3FF002433
:1017500008E01DF804002B49095D884200D003E031
:10176000601CC4B2052CF4DB00BF052C01D10120A4
:101770007CBD0020FCE770B504460D462046FFF70F
:10178000C0FE29462046FFF78CFE00212046FFF7C9
:1017900088FE06462046FFF7ACFE304670BD70B5A9
:1017A000054607212846FFF7E6FF044604F04000FF
:1017B00078B160212846FFF7DEFF064633462A4609
:1017C00061212846FFF796FF3146284600F030FC9D
:1017D00000BF04F0100038B104F0010020B1FF2276
:1017E000E1212846FFF79AFE224627212846FFF7E7
:1017F00095FE07212846FFF7BEFF044670BD000096
:101800001900002014000020034606210622F74894
:101810000188F7480288ABB1012B1BD13AB94EF6CB
:10182000EE60814201D1002070470120FCE739B908
:101830004EF6EE60824201D10120F5E70020F3E789
:10184000AB20F1E709B90020EEE70AB90120EBE788
:10185000AB20E9E70020E7E770B50426002401206B
:10186000FFF7D2FF0446AB2C06D1E04800EB842002
:10187000E0490860AB2070BDDC4800EB8420DD4906
:101880000860601CD949891E01EB80250CE0D9480D
:1018900000680068401C10B904263046EBE7D548C4
:1018A0000068001DD3490860D2480068A842EED302
:1018B0008020E0E710B50424CC4801F099FF0446ED
:1018C000042C01D0204610BD0021C84802F093F836
:1018D0000446042C01D02046F5E7C54801F088FFF6
:1018E00004462046EFE72DE9F04104460F46042563
:1018F0000026DFF804830120FFF786FF0646AB2EA3
:1019000001D1BDE8F081701CB849891E01EB802827
:1019100021E0B84800680068401CB8B93946B548AD
:10192000006802F068F80546042D01D02846E8E773
:101930002146B0480068801C02F05DF80546AD48BD
:101940000068001DAB4908602846DAE7A94800682E
:10195000001DA8490860A74800684045D9D38020E9
:10196000CFE72DE9F04706460F46002545F25558CA
:101970004FF001099D4CA2460020FFF745FF0546A8
:10198000AB2D01D1BDE8F087984800EB852A994836
:101990000068841E0AE0B4F80080B04505D134F830
:1019A000020C38804FF0000904E0241F0AF1020005
:1019B0008442F0D800BF4846E4E72DE9F0474FF0F5
:1019C000060A062600250027A8464FF0FF3987485B
:1019D000B0F800A0864806885FEA0A0075D0A0F536
:1019E0006E40EE3858B3A0F58850113800286DD1FC
:1019F00046B97E4801F0FCFE0446042C1ED0204669
:101A0000BDE8F0874EF6EE60864210D1774801F0CF
:101A1000EFFE0446042C01D02046F1E70021744873
:101A200001F0E9FF0446042C08D02046E8E7FFF760
:101A300041FF0446042C01D02046E1E7AEE07EBB26
:101A4000002522E06948C0886C4931F815108842A9
:101A500001D10FFA85F94D4515D0684931F81500C7
:101A60006749FFF77EFF8046B8F1010F0BD063494D
:101A700031F8150062490988FFF735FF0746042F42
:101A800001D03846BCE7681C85B2102DDADB002196
:101A9000564801F0B0FF0446042C02D02046AFE7C0
:101AA00007E0534801F0A4FE0446042C1FD0204652
:101AB000A6E74FF6FF70864212D14D4801F098FE1E
:101AC0000446042C03D020469AE711E05EE0002192
:101AD000464801F090FF0446042C08D020468FE7CA
:101AE000FFF7E8FE0446042C01D0204688E755E0C5
:101AF00036B9FFF7DFFE0446042C46D020467FE7C8
:101B00004FF6FF70864207D1394801F071FE044656
:101B1000042C3AD0204673E7002523E03448801D8A
:101B20000088364931F81510884201D10FFA85F93D
:101B30004D4515D0314931F815003149FFF711FFF6
:101B40008046B8F1010F0BD02C4931F815002C4913
:101B50000988FFF7C8FE0746042F01D038464FE733
:101B6000681C85B2102DD9DB0021214801F043FF0C
:101B70000446042C01D0204642E71C4801F038FE00
:101B80000446042C01D020463AE707E0FFF792FE16
:101B90000446042C01D0204632E700BF00BF0420D9
:101BA0002EE710B5FFF709FF0446FFF755FE204664
:101BB00010BD2DE9F84F074689460425DFF830A00F
:101BC000AAF1010A094800904FF0000800240026FD
:101BD0004FF0000B0020FFF717FE8046B8F1010F11
:101BE00010D1DFF808A00248009016E000000108BC
:101BF0000004010824000020FF07010846640008D3
:101C000020000020B8F1000F04D1DFF8C4A0314853
:101C1000009002E0AB20BDE8F88F4EF6EE61504632
:101C200001F0E9FE0546042D01D02846F3E7FFF751
:101C300013FE49463846FFF756FE0646042E01D0ED
:101C40003046E8E700241CE0234830F81400B8428E
:101C500015D0214931F814002049FFF782FE834650
:101C6000BBF1010F0BD01C4931F814001B49098846
:101C7000FFF739FE0646042E01D03046CBE7601C44
:101C800084B2102CE0DB009801F0B2FD0546042D73
:101C900001D02846BFE70021504601F0ACFE0546C2
:101CA000042D01D02846B6E72846B4E770B50546AE
:101CB0000E46002431462846FFF715FE0446802CC8
:101CC00004D131462846FFF774FF0446204670BD14
:101CD00000040108000001084664000820000020FC
:101CE00010B588B004460121880301F0B5FA01213E
:101CF000042001F0B1FA25208DF8040002208DF8AF
:101D0000050000208DF8060001208DF8070001A8CD
:101D100000F01DFF4FF40070ADF8000003208DF8B7
:101D2000020018208DF803006946D14800F0D8FF62
:101D30004FF48060ADF8000003208DF8020004200D
:101D40008DF803006946CA4800F0CAFF04940020D9
:101D5000ADF81400ADF81600ADF81800ADF81C0091
:101D60000C20ADF81A000020ADF80800ADF80A000C
:101D70004FF40070ADF80C000020ADF80E0004A97F
:101D8000BC4801F010FB02A9BA4801F081FB012216
:101D900040F22551B74801F09EFB0121B54801F002
:101DA0008EFB08B010BDB348008800F0080020B1D9
:101DB000B049091D0988C8B200BFAE48008800F0CC
:101DC0008000F0B1AB480C30008800F08000C0B15A
:101DD000A94801780078401CA74A1070A748405CC9
:101DE000A449091D088010460078A5490978884251
:101DF00007D1A0480C30008820F080009D490C31AC
:101E000008809C48008800F0200000286DD0994987
:101E1000091D0988C8B29B49097859B9AA2846D131
:101E200099499A4A127801EB421108700121954AAA
:101E300011703CE09349097801290FD1AF2809D1ED
:101E40009149924A127801EB4211487002218D4A61
:101E500011702CE000218B4A117028E08949097823
:101E6000022909D18849894A127801EB4211887008
:101E70000321844A11701AE082490978032909D1A3
:101E80008149824A127801EB4211C87004217D4ACF
:101E900011700CE07C497D4A127801EB4211794ABD
:101EA0001278885477490978491C764A1170764926
:101EB000764A127801EB4211C978491D714A1278AD
:101EC000914211D100216F4A11707049097831B1E6
:101ED00000216E4A117001216D4A117004E0012148
:101EE0006A4A11706B4A117000BF704710B5044602
:101EF000634801780078401C614A10705F48445480
:101F00005C480C30008800F0800028B9012240F2C3
:101F10002771584801F0DFFA204610BD31B5002482
:101F20009DF80110564802780078401C544B1870F8
:101F3000524881549DF80020184601780078401CD2
:101F400018704E4842544B480C30008800F0800016
:101F500028B9012240F22771464801F0BCFA9DF8E9
:101F600001002044C4B29DF800002044C4B22046C1
:101F700038BD31B500244849009808600846C1784A
:101F80003F4802780078401C3D4B18703B48815414
:101F900041488178184602780078401C187037480C
:101FA00081543D484278184601780078401C1870EA
:101FB0003248425438480178184602780078401C6C
:101FC00018702E4881542B480C30008800F0800097
:101FD00028B9012240F22771264801F07CFA9DF8C9
:101FE00003002044C4B29DF802002044C4B29DF80E
:101FF00001002044C4B29DF800002044C4B2204631
:1020000038BD10B504460FE020780D2802D1FFF747
:102010006DFF08E020780A2802D1FFF767FF02E091
:102020002078FFF763FF641C20780028ECD110BDF6
:1020300070B504460D4600200AE0225C10490B787A
:102040000978491C0E4E31700C49CA54411CC8B263
:10205000A842F2DB07480C30008800F0800028B965
:10206000012240F22771034801F035FA70BD0000EB
:1020700000080140003801402C00002056030020D9
:102080002D0000202F000020560400202E000020EC
:1020900031000020300000202800002008B5012178
:1020A000084601F0CCF801214FF4037001F0D4F898
:1020B0000320ADF8000000208DF803006946524867
:1020C00000F00EFE1F20ADF8000069464F4800F0FA
:1020D00007FE08BD00B591B04D4802F0C1FA4D4869
:1020E00006904D4807900020089007200990002096
:1020F0000A9080200B9040000C9080000D902020D2
:102100000E9000020F900020109006A9404802F0A7
:1021100049FB01213E4802F070FB002001900120A4
:102120008DF808008DF809004FF46020039000201E
:10213000049007208DF8140001A936484C3802F0AD
:102140008EF84FF4004000F0EBFF05230122002140
:1021500030484C3802F01BF90523022201212D489A
:102160004C3802F014F905230322022129484C3887
:1021700002F00DF905230422032126484C3802F011
:1021800006F905231A46042122484C3802F0FFF8CC
:102190000523062208211F484C3802F0F8F80523D1
:1021A000072209211B484C3802F0F1F80121194897
:1021B0004C3802F08BF8012116484C3802F07BF8BD
:1021C00014484C3802F099F800BF12484C3802F01D
:1021D00099F80028F9D10F484C3802F09DF800BF5B
:1021E0000C484C3802F09DF80028F9D1012109482B
:1021F0004C3802F0A0F811B000BD10B5FFF74EFF4B
:10220000FFF768FF10BD0000000C0140000801400E
:10221000080002404C24014096040020704708B595
:102220000121042001F018F84FF48050ADF80000AF
:1022300003208DF8020014208DF803006946F6484B
:1022400000F04EFD4FF40060ADF8000003208DF863
:10225000020014208DF803006946EF4800F040FDAD
:1022600008BD704700B501464FF48050EA4A143269
:1022700010600846FFF7F5FF4FF40060E64A14329D
:1022800010600846FFF7EDFF4FF48050E24A10322D
:1022900010600846FFF7E5FF4FF40060DE4A103299
:1022A00010600846FFF7DDFF00BD00B501464FF4A2
:1022B0008050D94A143210600846FFF7D2FF4FF41D
:1022C0000060D54A103210600846FFF7CAFF4FF48D
:1022D0008050D14A103210600846FFF7C2FFCE4846
:1022E0000830006800F4006048B14FF48050CA4ADA
:1022F000143210600846FFF7B4FF002000BD4FF411
:102300008050C54A143210600846FFF7AAFF01202A
:10231000F4E710B50246082320E04FF48050BE4C8D
:10232000143420601046FFF79CFF01F0800018B1C4
:10233000E014241F206004E04FF40060B64C143415
:1023400020604806010E1046FFF78BFF4FF48050C7
:10235000B14C103420601046FFF783FF1800A3F142
:102360000104E3B2D9D14FF48050AB4C1434206057
:1023700010BD00B501464FF40060A74A103210604E
:10238000400010600846FFF76CFFA3480830006863
:1023900008B9012000E0002000F4006008B100202E
:1023A00000BD4FF400609C4A143210600846FFF7ED
:1023B00058FF99480830006800F4006008B1002018
:1023C000EEE74FF40060944A143210600846FFF7BD
:1023D00048FF0120E4E7F0B506460F4614461D46C7
:1023E0003046FFF7C6FF08B90020F0BD3946304639
:1023F000FFF78FFF3046FFF758FF20B93046FFF751
:1024000031FF0020F1E721463046FFF782FF3046DA
:10241000FFF74BFF29463046FFF77BFF3046FFF7BB
:1024200044FF3046FFF71EFF0120DEE700B50146FE
:102430004FF48050784A143210600846FFF711FFBD
:102440004FF40060744A103210600846FFF709FF2D
:102450004FF48050704A103210600846FFF701FFB9
:102460004FF480506C4A143210600846FFF7F9FEB2
:1024700000BD10B50246082300211802664C103436
:10248000206017E04806010E4FF48050624C14346F
:1024900020601046FFF7E5FEA014241F20601046C0
:1024A000FFF7DFFE5C480830006800F4006008B108
:1024B00041F001011800A3F10104E3B2E2D14FF4AD
:1024C0008050554C14342060084610BDF0B50646C7
:1024D0000C4615463046FFF74CFF08B90020F0BD0A
:1024E00021463046FFF715FF3046FFF7DEFE20B9E4
:1024F0003046FFF7B7FE0020F1E729463046FFF7E8
:1025000008FF3046FFF7D1FE3046FFF732FF601C70
:10251000C1B23046FFF7FDFE3046FFF7C6FE30463B
:10252000FFF7A7FF07463046FFF780FF3046FFF76B
:1025300099FE3846D3E700B501464FF48050364A3D
:10254000143210600846FFF78CFE4FF40060324AE8
:10255000143210600846FFF784FE4FF480502E4A74
:10256000103210600846FFF77CFE4FF480502A4A74
:10257000143210600846FFF774FE00BD2DE9F043E9
:1025800081460E4617461C46DDF81C80B8F1010F47
:1025900002DA0020BDE8F0834846FFF7EAFE08B9FA
:1025A0000020F7E731464846FFF7B3FE4846FFF7FD
:1025B0007CFE20B94846FFF755FE0020EAE7394681
:1025C0004846FFF7A6FE4846FFF76FFE4846FFF76E
:1025D000D0FE701CC1B24846FFF79BFE4846FFF78D
:1025E00064FE012509E04846FFF743FF04F8010BAC
:1025F0004846FFF7A0FF681CC5B24545F3DB4846D7
:10260000FFF737FF04F8010B4846FFF70FFF484676
:10261000FFF728FE0120BDE70008014010B5044681
:102620002046FFF7FBFD0446A01C02F0B3FE841E0B
:1026300004F1080002F0AEFEA0F1080404F11C0051
:1026400002F08BFEA0F11C0404F1280002F085FECC
:10265000A0F1280404F1340002F07FFEA0F134045C
:10266000204610BD30B50346C822002007E000BF59
:102670001400A2F10105AAB2FAD1441CE0B28842CA
:10268000F5DB30BD2DE9F04107460D4616462A2EF2
:1026900015D006DC052E0CD00A2E0CD0142E16D127
:1026A0000BE0622E0DD0BC2E0DD0B6F5807F0ED182
:1026B0000BE006240DE005240BE0042409E00324CC
:1026C00007E0022405E0012403E0002401E00224E5
:1026D00000BF00BF80236B22D0213846FFF77BFE6E
:1026E00005213846FFF7BEFF4FF47A7090FBF5F0F6
:1026F000401E00F0FF0843461922D0213846FFF75C
:102700006AFE03236B22D0213846FFF764FE0223C2
:102710003722D0213846FFF75EFE23461A22D02109
:102720003846FFF758FE18231B22D0213846FFF702
:1027300052FE10231C22D0213846FFF74CFEBDE884
:10274000F0812DE9F04104462078002868D0E24865
:10275000007800F0010048B9DF4802F021F928B103
:10276000DE4802F0FAFDDC48AFF30080DC48008868
:1027700080B900231A461946A01C02F010FE00235F
:102780001A461946D54802F0EDFD0120D4490880CB
:10279000BDE8F08104F11C01D04802F0E7FDD0480B
:1027A0000088B0F5C87F36D1CD48008803F05EFBC5
:1027B0000646CA490868314603F042FA054603F066
:1027C00001FB00B26080C648008803F04FFB06465C
:1027D000C2494868314603F033FA054603F0F2FA7D
:1027E00001B2A180BE48008803F040FB0746BB4908
:1027F0008868394603F024FA06464FF08B4103F00F
:102800003DFD054603F0DEFA01B2E1800020B44947
:1028100008802070BCE7B2480088401CB04908809E
:1028200000BFB5E72DE9FC4104463C22D0212046FB
:10283000FFF74CFEA0733B22D0212046FFF746FE57
:10284000E073A17BE07B41EA00206188401A00B27E
:10285000ADF800003E22D0212046FFF737FE20745D
:102860003D22D0212046FFF731FE6074217C607C40
:1028700041EA0021A088081A00B2ADF80200402207
:10288000D0212046FFF722FEA0743F22D02120460F
:10289000FFF71CFEE074A17CE07C41EA0021E088A7
:1028A000081A00B2ADF80400BDF9040003F0C6FA3E
:1028B0000546BDF9020003F0C1FA0646BDF9000065
:1028C00003F0BCFA07462B463246394604F11C0099
:1028D00002F048FD2046FFF734FFBDE8FC8170B5EB
:1028E00004466078002863D07E48007800F001003C
:1028F00048B97C4802F054F828B17B4802F02DFD1D
:102900007848AFF300807948008880B900231A46E0
:10291000194604F1080002F042FD00231A46194648
:10292000714802F01FFD01207049088070BD04F15C
:1029300028016D4802F01AFD6C480088B0F57A7FD6
:1029400031D16A48008803F091FA06466649086862
:10295000314603F075F9054603F034FA00B22081E0
:102960006248008803F082FA06465F4948683146AB
:1029700003F066F9054603F025FA01B261815B4870
:10298000008803F073FA064657498868314603F019
:1029900057F9054603F016FA01B2A1810020534908
:1029A00008806070C2E751480088401C4F49088089
:1029B00000BFBBE72DE9FC4104464422D02120465C
:1029C000FFF784FD20754322D0212046FFF77EFDCE
:1029D0006075217D607D41EA00202189401A00B2A6
:1029E000ADF800004622D0212046FFF76FFDA0750C
:1029F0004522D0212046FFF769FDE075A17DE07DED
:102A000041EA00216089081A00B2ADF802004822AC
:102A1000D0212046FFF75AFD20764722D0212046BC
:102A2000FFF754FD6076217E607E41EA0021A08997
:102A3000081A00B2ADF80400BDF9040003F0FEF975
:102A40000546BDF9020003F0F9F90646BDF900009C
:102A500003F0F4F907462B463246394604F12800C4
:102A600002F080FC2046FFF73AFFBDE8FC8110B57C
:102A7000D1E90834CA6980E81C0010BD10B5D1E95D
:102A80000B348A6A80E81C0010BD70B505460C4600
:102A90001749A06A03F032FA0646FEF7ADFB606301
:102AA0001349E06A03F02AFA0646FEF7A5FBA06385
:102AB0000F49206B03F022FA0646FEF79DFBE06308
:102AC000D4E90E12606B85E8070070BD10B50948A7
:102AD000FFF7A4FD10BD000034000020E404002036
:102AE000380000203C000020F004002040000020BE
:102AF0008DC1793DA404002008B50121102000F00B
:102B0000ABFB10208DF8030003208DF802004FF47A
:102B10000050ADF800006946094800F0E1F808BD32
:102B200010B504464FF40051054800F088F910BD77
:102B300010B504464FF40051014800F07EF910BD75
:102B40000010014031490143314A1160704770B5AE
:102B5000002100230F22C47804B32D4C246804F410
:102B6000E064C4F5E064210AC1F10403CA4044787A
:102B700004FA03F18478144021430901254C0678B6
:102B8000A155047804F01F050124AC4005786D11AF
:102B9000AD0005F1E025C5F8004109E0047804F036
:102BA0001F050124AC401C4D0678761145F82640DF
:102BB00070BD1A4A0A400243154B1B1F1A6070472A
:102BC00039B1134A121D12680243114B1B1D1A60C2
:102BD00006E00F4A121D126882430D4B1B1D1A603E
:102BE0007047042808D14FF0E021096941F0040141
:102BF0004FF0E022116107E04FF0E021096921F078
:102C000004014FF0E0221161704700000000FA0556
:102C10000CED00E000E400E080E100E080FFFF1F39
:102C200010B50446CC48844208D10121042000F0AC
:102C30002DFB0021042000F029FB46E0C748844218
:102C400008D10121082000F021FB0021082000F01C
:102C50001DFB3AE0C248844208D10121102000F057
:102C600015FB0021102000F011FB2EE0BD4884422E
:102C700008D10121202000F009FB0021202000F0D4
:102C800005FB22E0B848844208D10121402000F031
:102C9000FDFA0021402000F0F9FA16E0B348844222
:102CA00008D10121802000F0F1FA0021802000F0FD
:102CB000EDFA0AE0AE48844207D10121801500F008
:102CC000E5FA0021A01500F0E1FA10BD10B50121D0
:102CD000084600F0DBFA0021012000F0D7FA10BD11
:102CE0002DE9F041024600250026002000230024A3
:102CF000002791F803C00CF00F0591F803C00CF009
:102D0000100CBCF1000F03D091F802C04CEA05058D
:102D100091F800C0BCF1000F31D0146800202BE006
:102D20004FF0010C0CFA00F3B1F800C00CEA0306F6
:102D30009E4220D183004FF00F0C0CFA03F7BC43E6
:102D400005FA03FC4CEA040491F803C0BCF1280F17
:102D500006D14FF0010C0CFA00FCC2F814C00AE0D6
:102D600091F803C0BCF1480F05D14FF0010C0CFAEB
:102D700000FCC2F810C0401C0828D1D31460B1F880
:102D800000C0BCF1FF0F34DD546800202EE000F1DC
:102D9000080C4FF0010808FA0CF3B1F800C00CEA77
:102DA00003069E4221D183004FF00F0C0CFA03F76B
:102DB000BC4305FA03FC4CEA040491F803C0BCF1DF
:102DC000280F05D100F1080C08FA0CF8C2F814809D
:102DD00091F803C0BCF1480F07D100F1080C4FF087
:102DE000010808FA0CF8C2F81080401C0828CED35D
:102DF0005460BDE8F0814FF6FF71018002218170BF
:102E00000421C17070470246002093680B400BB14B
:102E1000012000E0002070470146886880B27047BA
:102E200002460020D3680B400BB1012000E00020D7
:102E300070470146C86880B27047016170474161C0
:102E400070470AB1016100E041617047C16070479D
:102E50004FF480320A4382618161826182698269B2
:102E6000704702460020434B18684FF680731840A5
:102E700040EA021008433F4B186070473E49C86162
:102E80007047F0B50A46002300240021002500F019
:102E90000046B6F1004F02D1364EF16901E0354EE1
:102EA0007168C0F3034583B200F44016B6F5401FC5
:102EB00008D121F070612F4E766826F070662D4F94
:102EC0007E6012E000F48016B6F5801F06D103265E
:102ED00006FA05F4A14341F0706106E0460D3601A3
:102EE00003FA06F6B14341F0706122B1460D360196
:102EF00003FA06F6314300F00046B6F1004F02D166
:102F00001C4EF16101E01B4E7160F0BD30B5002236
:102F10008B071C0F0F2303FA04F2164B08338C1097
:102F200053F824309343134C08348D1044F8253063
:102F300023468C1053F824308C07240F00FA04F435
:102F400023430C4C08348D1044F8253030BD0A4919
:102F5000DC3108607047000000080140000C0140AF
:102F6000001001400014014000180140001C014005
:102F7000002001400000014000002042DF480068BE
:102F800040F00100DD49086008464068DC4908401F
:102F9000DA49486008460068DA490840D7490860BD
:102FA0000846006820F4802008600846406820F445
:102FB000FE0048604FF41F0088607047CF490968E1
:102FC00021F48031CD4A11601146096821F4802135
:102FD0001160B0F5803F03D0B0F5802F0ED106E030
:102FE000C649096841F48031C44A116007E0C34909
:102FF000096841F4A021C14A116000E000BF00BF90
:10300000704710B501460022002300204A11012A12
:1030100002D1BA4C236806E0022A02D1B74C236AD7
:1030200001E0B64C636A01F01F02012494401C4089
:103030000CB1012000E0002010BD38B50020009048
:103040000024002500BF3120FFF7DBFF0546009874
:10305000401C00900098B0F5A06F01D0002DF2D078
:103060003120FFF7CEFF08B1012400E00024204604
:1030700038BD01460020A14A106820F0F80040EA5F
:10308000C10010607047A0490860704702460020E8
:103090009A4B586820F47C1042EA01031843974B7E
:1030A0005860704798490866704701460020934A67
:1030B000506820F003000843506070478F48406814
:1030C00000F00C007047014600208C4A506820F048
:1030D000F00008435060704701460020874A50685E
:1030E00020F4E06008435060704701460020834AA6
:1030F000506820F4605040EAC1005060704729B128
:103100007E4A527A02437D4B5A7204E07B4A527ADD
:1031100082437A4B5A7270477B49D83108607047B6
:1031200001460020754A506820F440400843506032
:1031300070470021714A20321170704A82F82010C5
:10314000012802D004280AD104E001216B4A203270
:10315000117005E00521694A2032117000E000BFBE
:1031600000BF70476949086070476449096A0143B4
:10317000624A11627047654944390860704730B54A
:1031800000210022002400235C4D6D6805F00C0135
:1031900021B1042905D0082923D105E05C4D056043
:1031A00022E05B4D05601FE0544D6D6805F4701220
:1031B000524D6D6805F48034022505EB92421CB92E
:1031C000544D554305600BE04C4D6D6805F40035DA
:1031D0001DB1504D5543056002E04D4D554305600E
:1031E00002E04B4D056000BF00BF444D6D6805F027
:1031F000F0010909484D6B5C0568DD4045603F4DB5
:103200006D6805F4E061090A434D6B5C4568DD407B
:1032100085603A4D6D6805F46051C90A3E4D6B5C9E
:103220004568DD40C560354D6D6805F44041890B4A
:103230003A4D6B5CC568B5FBF3F5056130BD29B14E
:103240002E4A526902432D4B5A6104E02B4A5269BF
:1032500082432A4B5A61704729B1284A9269024336
:10326000264B9A6104E0254A92698243234B9A6176
:10327000704729B1214AD2690243204BDA6104E048
:103280001E4AD26982431D4BDA61704729B11B4A3D
:10329000D2680243194BDA6004E0184AD2688243CC
:1032A000164BDA60704729B1144A12690243134B76
:1032B0001A6104E0114A12698243104B1A61704787
:1032C00012494039086070470F49C86470470B497C
:1032D000C87170470948406A40F0807007494862E9
:1032E000704701460020054A92680A400AB1012051
:1032F00000E00020704701498872704700100240CA
:103300000000FFF8FFFFF6FE000042428004424248
:1033100000127A0000093D00430000205300002005
:1033200010B50446FB48844209D101218803FFF708
:10333000ADFF00214FF48040FFF7A8FF32E0F648D0
:10334000844209D101214804FFF7ADFF00214FF469
:103350000030FFF7A8FF25E0F048844209D10121A1
:103360008804FFF7A0FF00214FF48020FFF79BFFA8
:1033700018E0EB48844209D10121C804FFF793FF0C
:1033800000214FF40020FFF78EFF0BE0E548844258
:1033900008D101210805FFF786FF00214FF48010B6
:1033A000FFF781FF10BD2DE9F04786B005460E46B8
:1033B0000024A24600BFA1460027B08900B100BF8B
:1033C0002F462C8A4CF6FF700440F08804432C8270
:1033D000AC894EF6F3100440B088318908437189F6
:1033E00008430443AC81AC8A4FF6FF400440B089E7
:1033F0000443AC8201A8FFF7C2FEC648874202D14F
:10340000DDF810A001E0DDF80CA0A88900F4004070
:1034100040B10AEBCA0000EB0A1031684900B0FB6A
:10342000F1F807E00AEBCA0000EB0A1031688900E6
:10343000B0FBF1F86420B8FBF0F00401200964212E
:1034400001FB1089A88900F4004040B1322000EB54
:10345000C900B0FBF1F000F00700044308E032209F
:1034600000EB09106421B0FBF1F000F00F00044301
:103470002C8106B0BDE8F0874FF4165101600021A1
:103480008180C18001810C214181002181817047AF
:1034900010B502460020108A4FF2FF0318400B8837
:1034A0004C8823438C882343CC88234318431082C1
:1034B00010BD0021018041808180C180704721B111
:1034C000828942F40052828104E082894DF6FF73C2
:1034D0001A4082817047F0B503460024002600257B
:1034E000002040F66A17B94200D100BF1846C1F368
:1034F000421401F01F06012707FA06F5012C01D13D
:103500000C3004E0022C01D1103000E014301AB16C
:1035100007682F43076002E00768AF430760F0BD0C
:103520001AB1838A0B43838202E0838A8B438382AE
:103530007047028A4FF6F0731A400282028A0A43E9
:103540000282704782894FF2FF731A40828182891A
:103550000A438281704721B1828942F0020282814E
:1035600004E082894FF6FD731A4082817047028A17
:103570004FF6DF731A400282028A0A4302827047C2
:1035800021B1028A42F48042028204E0028A4BF6B0
:10359000FF731A4002827047C1F3080282807047AD
:1035A00001468888C0F308007047818941F0010115
:1035B00081817047028BD2B20283028B42EA0122E0
:1035C00002837047028B02F47F420283028B0A431C
:1035D0000283704721B1828A42F02002828204E095
:1035E000828A4FF6DF731A408282704721B1828A45
:1035F00042F01002828204E0828A4FF6EF731A4092
:103600008282704721B1828A42F00802828204E0FD
:10361000828A4FF6F7731A408282704721B18289FD
:1036200042F40042828103E08289C2F30E02828169
:10363000704721B1828A42F40062828204E0828A69
:103640004FF2FF731A4082827047828A4FF6FB73F3
:103650001A408282828A0A438282704721B1828A1A
:1036600042F00202828204E0828A4FF6FD731A4021
:103670008282704702460020B1F5007F00D100BF72
:1036800013880B400BB1012000E00020704701F4CB
:103690000072B2F5007F00D100BFCA4302807047BC
:1036A00070B50246002400230025002040F66A166B
:1036B000B14200D100BFC1F3421501F01F03012642
:1036C00006FA03F3012D02D19689334006E0022D5C
:1036D00002D1168A334001E0968A33400C1201264B
:1036E00006FA04F41688344013B10CB1012000E04E
:1036F000002070BD10B50022002340F66A14A142DC
:1037000000D100BF0A1201249440A3B2DC4304801C
:1037100010BD000000380140004400400048004057
:10372000004C00400050004001460020FE4A106856
:1037300000F03800084310607047FB49096821F029
:103740000801F94A11601146096801431160704788
:10375000F549096821F01001F34A11601146096822
:10376000014311607047F148EF494860F0484860F4
:103770007047EE48EC494860ED4848607047EA48B9
:10378000006940F08000E84908617047E648006938
:1037900040F08000E449086170470420E249C968AC
:1037A00001F0010109B101200EE0DF49C96801F013
:1037B000040109B1022007E0DB49C96801F01001EA
:1037C00009B1032000E00420704700B5024604233D
:1037D000FFF7E3FF034603E0FFF7DFFF0346521E58
:1037E000012B01D1002AF7D102B90523184600BDEB
:1037F00030B5044604254FF43020FFF7E6FF0546B8
:10380000042D17D1C848006940F00200C64908617C
:1038100008464461006940F0400008614FF43020E0
:10382000FFF7D3FF0546C048006941F6FD71084027
:10383000BD490861284630BD10B504244FF430203E
:10384000FFF7C3FF0446042C16D1B748006940F0C7
:103850000400B54908610846006940F0400008616D
:103860004FF43020FFF7B1FF0446AF48006941F63E
:10387000FB710840AC490861204610BD00B5024606
:103880000423FFF78AFF034603E0FFF786FF0346A2
:10389000521E012B01D1002AF7D102B90523184687
:1038A00000BD10B504244FF43020FFF7E7FF0446B5
:1038B000042C16D19C48006940F004009A49086124
:1038C0000846006940F0400008614FF43020FFF7DF
:1038D000D5FF04469448006941F6FB7108409249BF
:1038E0000861204610BD00208F49C96901F002011E
:1038F00009B1012000E00020704730B5A52504245F
:10390000FFF7F1FF00B100254FF43020FFF75DFF16
:103910000446042C3AD185488349886084488860ED
:103920000846006940F0200008610846006940F040
:10393000400008614FF43020FFF747FF0446042C95
:103940001BD17948006941F6DF710840764908616A
:103950000846006940F01000086176480580E002E2
:10396000FFF733FF0446052C10D06F48006941F67D
:10397000EF7108406C49086108E0052C06D06A48E0
:10398000006941F6EF71084067490861204630BD83
:1039900078B506460C46042500200090E802FFF7A3
:1039A00014FF0546042D24D15F48006940F0010052
:1039B0005D4908613480E802FFF707FF0546042DE2
:1039C00010D1B01C0090200C00990880E802FFF78D
:1039D000FCFE05465448006941F6FE710840524914
:1039E000086106E05048006941F6FE7108404E4902
:1039F0000861284678BD70B504460D460426F002DD
:103A0000FFF7E3FE0646042E11D14748006940F057
:103A10000100454908612580F002FFF7D6FE064601
:103A20004148006941F6FE7108403F49086130464F
:103A300070BD70B505460E460424E002FFF7C5FED2
:103A40000446042C17D139483749886038488860C3
:103A50000846006940F0100008612E80E002FFF780
:103A6000B4FE0446052C06D02F48006941F6EF71DC
:103A700008402D490861204670BD2DE9F0430446F9
:103A80004FF6FF763746B046B1460425E443E6B22A
:103A9000C4F30727C4F307484FEA1469E802FFF7A5
:103AA00094FE0546042D49D120481F4988602048CE
:103AB00088600846006940F010000861FF2E06D0BB
:103AC0001C4808300680E802FFF77FFE0546042DFB
:103AD00008D1FF2F06D017480A300780E802FFF709
:103AE00074FE0546042D0AD1B8F1FF0F07D0114826
:103AF0000C30A0F80080E802FFF767FE0546042DB1
:103B00000AD1B9F1FF0F07D00A480E30A0F8009093
:103B1000E802FFF75AFE0546052D0FD0024800695E
:103B200041F6EF71084007E000200240230167459D
:103B3000AB89EFCD00F8FF1F664908612846BDE854
:103B4000F08330B5054604244FF43020FFF73DFEE6
:103B50000446042C41D160485E4988605F48886013
:103B60000846006940F0200008610846006940F0FE
:103B7000400008614FF43020FFF727FE0446042C74
:103B800022D15448006941F6DF710840514908616B
:103B90000846006940F0100008611DB1002050493E
:103BA000088002E0A5204E4908804FF43020FFF73E
:103BB0000CFE0446052C10D04648006941F6EF7112
:103BC00008404449086108E0052C06D041480069D6
:103BD00041F6DF7108403F490861204630BDF0B52D
:103BE00005460E46174604243B483A4988603B4840
:103BF0008860E002FFF7E9FD0446042C19D135483E
:103C0000006940F010003349086147F0F800304384
:103C100028433349891C0880E002FFF7D6FD04469B
:103C2000052C06D02B48006941F6EF710840294960
:103C300008612046F0BD2748C069800870472548C4
:103C4000006A704700202349096801F0200109B18A
:103C5000012000E00020704729B11E4A126902438A
:103C60001C4B1A6104E01B4A12698243194B1A610A
:103C7000704701460020012908D1164AD26902F096
:103C800001020AB1012008E0002006E0114AD268D2
:103C90000A400AB1012000E0002070470D49C860C9
:103CA000704704200B49C96801F0010109B10120E6
:103CB0000EE00849C96801F0040109B1022007E0DB
:103CC0000449C96801F0100109B1032000E0042093
:103CD000704700000020024023016745AB89EFCD0B
:103CE00000F8FF1F0CB50020019000906C480068A0
:103CF00040F480306A49086000BF6948006800F4F9
:103D0000003000900198401C0190009818B901986B
:103D1000B0F5A06FF1D16248006800F4003010B136
:103D20000120009001E0002000900098012843D17C
:103D30005C48006840F010005A4908600846006876
:103D400020F0030008600846006840F002000860A8
:103D500053484068524948600846406848600846F1
:103D6000406840F4806048600846406820F47C1059
:103D700048600846406840F4E8104860084600681B
:103D800040F08070086000BF4548006800F0007097
:103D90000028F9D04248406820F0030040494860BC
:103DA0000846406840F00200486000BF3C48406858
:103DB00000F00C000828F9D10CBD10B5FFF792FFF8
:103DC00010BD10B53648006840F001003449086065
:103DD0000846406834490840314948600846006850
:103DE000324908402E4908600846006820F48020C7
:103DF00008600846406820F4FE0048604FF41F0049
:103E00008860FFF7DAFF4FF000602949086010BDB5
:103E100010B5002100200022214B5B6803F00C014B
:103E200021B1042906D0082928D107E0214B224CD2
:103E3000236027E01F4B204C236023E0184B5B6876
:103E400003F47010164B5B6803F48032022303EB1B
:103E5000904022B9194B4343174C23600DE0104B9F
:103E60005B6803F4003323B1144B4343124C2360CB
:103E700003E0104B4343104C236003E00D4B0E4C0A
:103E8000236000BF00BF064B5B68C3F303130C4CF9
:103E9000E15C094B1B68CB40074C236010BD000060
:103EA00000100240002002400000FFF8FFFFF6FE75
:103EB00008ED00E000127A005800002000093D00E3
:103EC0005C0000200948804709480047FEE7FEE7FC
:103ED000FEE7FEE7FEE7FEE7FEE7FEE7FEE7FEE7BA
:103EE00004480549054A064B70470000C33D0008D9
:103EF000ED00000860050020600B00206007002036
:103F00006007002010B50446BE48844208D1012154
:103F10008014FFF7BBF90021A014FFF7B7F916E0F2
:103F2000B948844208D101210014FFF7BCF90021EF
:103F30002014FFF7B8F90AE0B448844207D1012100
:103F4000C013FFF7B0F90021E013FFF7ACF910BD83
:103F500010B50022028802F441520B884C8823439A
:103F60008C882343CC8823430C8923434C892343E7
:103F70008C892343CC8923431A430280838B4FF2DD
:103F8000FF74234083830B8A038210BD2DE9F04F19
:103F900085B005460C464FF0000902274FF0000897
:103FA0004FF0010B0026B246A88B4FF240010840AB
:103FB000A88302202884B5F81C90A068022801D1AB
:103FC00000BF38E0A08810B94FF0010B01E04FF0BE
:103FD000020B8D48854200D100E000BF6846FFF724
:103FE000CEF8DDF800A0E088B0F5007F0AD14FEAF6
:103FF0001A2000EB80004000A168B0FBF1F0401DEA
:1040000086B20BE04FEA4B10BAFBF0F000EB8000F9
:104010004000A168B0FBF1F0401D86B20A20B6FB5B
:10402000F0F606F00108A6EB0800C0F34F074FF6C4
:10403000FF7000EA0828022F01DBFF2F02DD0227B4
:104040004FF00008E08840EA080038432884A08840
:10405000A1890843618808432188084340F400602F
:1040600040EA0909A5F81C9005B0BDE8F08F0021D1
:10407000018041808180C180018141818181C18134
:104080000721018270470021018041808180C18029
:104090000221816000218181704721B1028842F0B4
:1040A0004002028004E002884FF6BF731A4002808B
:1040B000704721B1828B42F48062828304E0828B5C
:1040C0004FF6FF331A408283704730B50024002337
:1040D0000C110125A540ABB21AB185881D4385801E
:1040E00002E085889D43858030BD1AB183880B43EB
:1040F000838002E083888B4383807047818170478F
:104100000146888970474FF6FF62914204D00288C9
:1041100042F48072028004E002884FF6FF631A4086
:104120000280704721B1828842F00402828004E05C
:1041300082884FF6FB731A408280704702884FF2E4
:10414000FF731A40028002880A4302807047018888
:1041500041F480510180704721B1028842F400523D
:10416000028004E002884DF6FF731A400280704717
:1041700002460020012901D0108B00E0908A704790
:104180000146088A7047B1F5804F04D1028842F495
:104190008042028004E002884BF6FF731A400280DE
:1041A00070470246002013890B400BB1012000E04C
:1041B00000207047CA4302817047F0B502460020D4
:1041C00000240023002501F00F070126BE40B4B2F1
:1041D0000B1101269E40B3B2968806EA03051689A4
:1041E000264016B10DB1012000E00020F0BD10B551
:1041F000002201F00F040123A3409AB2D3430381AC
:1042000010BD00000030014000380040003C00407C
:1042100010B50446FA48844208D101214015FFF741
:1042200035F800216015FFF731F817E0F5488442B2
:1042300008D101210015FFF729F800212015FFF70B
:1042400025F80BE0F048844208D10121C803FFF7AC
:104250001DF800214FF40040FFF718F810BD30B5ED
:104260000246002000235068E84C20400D790C687D
:1042700044EA0524204350609068E54C2040D1E991
:1042800002542C434D7944EA450420439060D06A9F
:1042900020F470000C7C641EE4B2234340EA035017
:1042A000D06230BD00210160017141718160C16047
:1042B00001210174704721B1826842F001028260DD
:1042C00003E0826822F001028260704721B18268B7
:1042D00042F48072826003E0826822F4807282601D
:1042E000704710B50023CBB21AB144681C43446038
:1042F00002E044689C43446010BD816841F00801BD
:1043000081607047014600208A6802F008020AB105
:10431000012000E000207047816841F004018160C5
:104320007047014600208A6802F004020AB10120A9
:1043300000E00020704721B1826842F4A002826050
:1043400003E0826822F4A0028260704701460020E8
:104350008A6802F480020AB1012000E00020704760
:1043600010B50A4600210023416821F46041531E24
:1043700041EA4331416010BD21B1426842F400621C
:10438000426003E0426822F4006242607047F0B588
:1043900004460D4600200021092D11DDE068A5F13D
:1043A0000A0606EB4607072606FA07F18843A5F139
:1043B0000A0606EB460603FA06F10843E0600CE045
:1043C000206905EB4507072606FA07F1884305EB48
:1043D000450603FA06F108432061072A0FDA606BED
:1043E000561E06EB86071F2606FA07F18843561E5F
:1043F00006EB860605FA06F10843606322E00D2A03
:104400000FDA206BD61F06EB86071F2606FA07F188
:104410008843D61F06EB860605FA06F1084320639B
:1044200010E0E06AA2F10D0606EB86071F2606FAE9
:1044300007F18843A2F10D0606EB860605FA06F1A0
:104440000843E062F0BD21B1826842F480128260CC
:1044500003E0826822F48012826070470146C86CD3
:1044600080B2704766484C300068704721B142689E
:1044700042F48062426003E0426822F4806242605B
:10448000704721B1426842F48052426003E04268C2
:1044900022F48052426070470A460021816821F46C
:1044A000E04111438160704721B1826842F40042CB
:1044B000826003E0826822F400428260704721B18A
:1044C000826842F40212826003E0826822F40212DF
:1044D00082607047014600208A6802F400120AB127
:1044E000012000E000207047F0B50446154600208A
:1044F00000220026092911DDE068A1F10A0707EB77
:10450000470C072707FA0CF29043A1F10A0707EBC3
:10451000470703FA07F21043E0600CE0206901EB63
:10452000410C072707FA0CF2904301EB410703FA0D
:1045300007F210432061A06BC0F30156EF1C06F197
:10454000010CA7EB0C0707EB870C1F2707FA0CF2EF
:104550009043EF1C06F1010CA7EB0C0707EB870754
:1045600001FA07F21043A063F0BD10B50A4600211E
:104570000023816B21F44011531E41EA03518163F2
:1045800010BD08B5002300930090009B0B440093DE
:10459000009B1A6008BD08B50246002000900092FA
:1045A00001F12800009B184400900098006880B238
:1045B00008BD0A4600214168164B1940114341606D
:1045C00070474162826270470A460021416821F0CB
:1045D0001F0111434160704740B109490831096822
:1045E00041F40001064A0832116007E0044908312D
:1045F000096821F40001024A083211607047000086
:104600000024014000280140003C0140FFFEF0FF73
:10461000FDF7F1FFFFFD3FFF0246002013680B404E
:104620000BB1012000E000207047CA4302607047D0
:1046300070B502460020002300240B125568CEB24C
:1046400005EA060415681D4015B10CB1012000E013
:10465000002070BD00220A12D3430360704700009F
:1046600001684FF6FE721140016000210160416057
:104670008160C1608D49884208D18C4908394968F8
:1046800041F00F01894A083A51608AE087491431A4
:10469000884208D185490839496841F0F001834AC8
:1046A000083A51607DE081492831884208D17F492C
:1046B0000839496841F470617C4A083A516070E0F9
:1046C0007A493C31884208D178490839496841F42F
:1046D0007041764A083A516063E07449503188422B
:1046E00008D172490839496841F470216F4A083A83
:1046F000516056E06D496431884208D16B490839F0
:10470000496841F47001694A083A516049E06749D3
:104710007831884208D165490839496841F07061AB
:10472000624A083A51603CE06149884206D1011F63
:10473000096841F00F01021F116032E05C49143139
:10474000884208D15A49091F096841F0F001584AC6
:10475000121F116025E056492831884208D154497A
:10476000091F096841F47061514A121F116018E075
:104770004F493C31884208D14D49091F096841F42D
:1047800070414B4A121F11600BE049495031884279
:1047900007D14749091F096841F47021444A121F93
:1047A0001160704710B50022026847F6F0739A4313
:1047B0000C6A8B6823430C6923434C6923438C693F
:1047C0002343CC6923434C6A23438C6A23431A4313
:1047D0000260CB6843600B6883604B68C36010BDA8
:1047E0000021016041608160C160016141618161BE
:1047F000C161016241628162704721B1026842F089
:104800000102026004E002684FF6FE731A40026083
:1048100070471AB103680B43036002E003688B43DF
:1048200003607047416070470146486880B2704736
:1048300001460020002201F080531BB11C4B083BB5
:104840001A6802E0194B083B1A6802EA01030BB12F
:10485000012000E00020704700F0805119B1144998
:10486000091F086002E01149083948607047014695
:104870000020002201F080531BB10D4B083B1A6849
:1048800002E00A4B083B1A6802EA01030BB101205F
:1048900000E00020704700F0805119B10449091F61
:1048A000086002E00149083948607047080002408A
:1048B00008040240704770477047000070B5064C0E
:1048C0007C44064D7D4403E0206820448047241D3D
:1048D000AC42F9D170BD0000E41B0000F41B0000E5
:1048E00010B500F009F8006810BD10B5044600F0DE
:1048F00003F8046010BD000000487047FC0400206D
:1049000000487047FC0400207546FFF7F9FFAE46EB
:1049100005006946534620F00700854618B020B5CB
:10492000FFF7DEFABDE820404FF000064FF0000729
:104930004FF000084FF0000B21F00701AC46ACE847
:10494000C009ACE8C009ACE8C009ACE8C0098D46B4
:1049500070470446AFF300802046FBF710FC704719
:1049600001491820ABBEFEE7260002004100080204
:1049700018BF04200A0E18BF40F001004FF07F421C
:1049800032EA010108BF40F00200012808BF0520FB
:104990007047014621F00040C0F1FF40C00F704752
:1049A000016809B100207047012101600846704785
:1049B0006FF05E01080701F008BD00002DE9F04D21
:1049C0000E4614464FF07F41B1EB440F9EBF4FF0AF
:1049D000FF313160BDE8F08D4FF0004040EA042126
:1049E000C4F3C7507838431100F01F00DFF814C13A
:1049F000C0F12002FC445CF823500CEB830385409B
:104A0000D3F804C02CFA02F72F439D680CFA00FC7F
:104A100025FA02F8DB6805FA00F023FA02F240EA10
:104A200002054CEA080CA7FB0132ACFB01C0A5FB58
:104A3000015101EB0C058D4234BF4FF0010C4FF0DA
:104A4000000CC1186144BCF1000F02D0814202D9B0
:104A500003E0814201D2012000E00020104400F177
:104A600020024FEA92188006CA0C40EA42304F03F7
:104A7000C6F8008001F0E2F98246384601F0F6F906
:104A80006FF0120101F0A1FC0746284601F0EEF993
:104A90006FF0250101F099FC83463946504601F03C
:104AA0005BF8594601F058F800F500656FF30B0507
:104AB0005146284601F0E2FB394601F0DFFB59463A
:104AC00001F04AFB104901F019FA07460F49284640
:104AD00001F014FA394601F03FF807460C49284620
:104AE00001F00CFA394601F037F814F0004F08BF16
:104AF000BDE8F08DC8F1805180F000403160BDE824
:104B0000F08D0000701A0000DB0FC92F22AAFD29CA
:104B10000000C92F2DE9F04104464FF00E4000EB94
:104B20004400B0F1506F204655D84FF0FC41B1EB36
:104B3000440F1CD224F000404FF07E5101F00CFBDA
:104B40004FF0FF3101F041FC074600F02DFB14F05F
:104B5000004F1DBF304E314D80F00040304E08BF39
:104B6000304D4FF0404101F0C9F9044605E0002600
:104B70003546014601F0C2F907462B49384601F097
:104B8000BDF92A4900F0E8FF394601F0B7F9284994
:104B900000F0E2FF394601F0B1F9264900F0DCFFF0
:104BA000394601F0ABF9244900F0D6FF804639467A
:104BB000204601F0A3F9414601F0A0F90746294635
:104BC000204600F0C9FF394600F0C6FF3146BDE877
:104BD000F04100F0C1BF4FF0E441B1EB440F08D900
:104BE000FFF7C4FE042808BFFFF7E2FE2046BDE839
:104BF000F0814FF07F41B1EB440F04D2BDE8F041AA
:104C0000012101F0E2BB0120FFF76FFEBDE8F0419A
:104C10000021084601F014B80000C9BF22AAFDB95E
:104C20000000C93F22AAFD3924FE1C3DC78AD83C9A
:104C30001E67383D1B93993DAFAA2A3E2DE9F047E8
:104C40004FF0684202EB40030C460546B3F1654F56
:104C50003CBF02EB4102B2F1654F7CD2C0F3C753B7
:104C6000C1F3C7529A1A1B2A06DD10F0004F14BF79
:104C700076487748BDE8F08712F11A0F17DA11F07D
:104C8000004F06D010F0004F0CBF72487248BDE8CC
:104C9000F0872146284600F0D3FF0446FFF766FE62
:104CA000042808BFFFF784FE2046BDE8F0874200D5
:104CB000B2EB410F25D910F0004F19BF674F684E76
:104CC000684F694E224685F0004415460A4680F03A
:104CD000004110460A1A5200B2F1807F40D248408B
:104CE0006249DFF88CA110F0004F18D04FF03F4818
:104CF000384601F0C3FA07465146304601F0BEFA85
:104D000017E011F0004F04BF00263746E2D010F044
:104D1000004F19BF574F584E584F594EDAE74FF0D2
:104D20007C58384600F018FF07465146304600F0E0
:104D300013FF06464146284601F0E0F8214600F000
:104D40000BFF82462146404601F0D8F8294601F083
:104D500003FA514600E037E000F072FF044604E039
:104D60002146284600F06CFF0446014601F0C6F8D3
:104D70008046444901F0C2F8434900F0EDFE414647
:104D800001F0BCF8414900F0E7FE414601F0B6F8F9
:104D90003F4900F0E1FE414601F0B0F83D4900F026
:104DA000DBFE05464146204601F0A8F8294601F001
:104DB000A5F8314600F0D0FE214600F0CDFE394680
:104DC000BDE8F04700F0C8BE4FF07F42B2EB400FA5
:104DD00028BFB2EB410F03D2BDE8F04700F0BCBEE4
:104DE00040EA01035B0008BF44F0FF410AD0B2EB88
:104DF000400F08BFB2EB410F06D125F0804024F0F0
:104E0000804105460C4629E7B2EB400F12BF5FEA2E
:104E1000410245F0FF4004F000413FF41FAF4A005B
:104E200092EA40033FF51AAF002AACBF4FF09F460D
:104E30004FF03E56314601F061F8054631462046B6
:104E400001F05CF804462846214607E7DB0FC9BF9E
:104E5000DB0FC93FDB0F4940DB0F49C00000C9BF72
:104E600022AAFDB90000C93F22AAFD390060ED3E2B
:104E7000C30ACE37000049C022AA7DBA00004940CB
:104E800022AA7D3A2DAD65BD8FB8D53D0FB511BEB7
:104E900061C84C3EA8AAAABE2DE9F84304460246C2
:104EA00051486946B0EB420F09D94FF0E640B0EBEC
:104EB000420F94BF00204FF0FF30009030E04B4B8A
:104EC00022F00040834271D94949204601F016F88A
:104ED00001F012F9804600F075FF00F00300009029
:104EE0004449404601F00AF805464349404601F06E
:104EF00005F806464149404601F000F8074640499A
:104F0000404600F0FBFF214601F026F9394601F04A
:104F1000B5F9314601F0B2F9294601F0AFF904467E
:104F20002546009C002C45DB294614F0010F08465D
:104F30001CD000F0E3FF0646324900F0DFFF3249A3
:104F400001F00AF9314600F0D9FF304900F004FEC3
:104F5000314600F0D3FF294600F0D0FF294600F08B
:104F6000FBFD14F0020F1CD0BDE8F88300F0C6FF73
:104F70000546274900F0C2FF264900F0EDFD29460D
:104F800000F0BCFF244900F0E7FD294600F0B6FF21
:104F90004FF07E5100F0E0FD14F0020F08BFBDE8B5
:104FA000F88380F00040BDE8F883FFE71046FFF784
:104FB00005FDB4E76800B0F17F4F3CBF4FF07E5075
:104FC000BDE8F88309D14FF00100FFF78EFCBDE882
:104FD000F8430021084600F033BE2846BDE8F843F8
:104FE000012101F0F2B90000B61F927E490E494638
:104FF00083F9223F1A61342C0020A23300A0FD392E
:105000000000C93F336D4C39DA82083CA0AA2ABEA1
:10501000B93AB2BACA9F2A3DDDFFFFBE2DE9F84377
:105020000446024653486946B0EB420F09D94FF097
:10503000E640B0EB420F94BF00204FF0FF300090ED
:1050400030E04D4B22F00040834271D94B4920465D
:1050500000F054FF01F050F8804600F0B3FE00F07D
:10506000030000904649404600F048FF0546454988
:10507000404600F043FF06464349404600F03EFFED
:1050800007464249404600F039FF214601F064F8E6
:10509000394601F0F3F8314601F0F0F8294601F005
:1050A000EDF804462546009C002C45DB294614F00B
:1050B000010F08461ED000F021FF0546344900F0DC
:1050C0001DFF344900F048FD294600F017FF324922
:1050D00000F042FD294600F011FF4FF07E5100F034
:1050E0003BFD14F0020F08BFBDE8F88380F00040DC
:1050F000BDE8F88300F002FF0646284900F0FEFEF6
:10510000274901F029F8314600F0F8FE254900F062
:1051100023FD314600F0F2FE294600F0EFFE29465D
:1051200000F01AFD14F0020FE0D1BDE8F883FFE7AC
:105130001046FFF743FCB4E76800B0F17F4F09D297
:105140002846FFF713FC042808BFFFF731FC284668
:10515000BDE8F88308D10120FFF7C7FBBDE8F8439D
:105160000021084600F06CBD2846BDE8F843012147
:1051700001F02BB9B61F927E490E494683F9223FB2
:105180001A61342C0020A23300A0FD390000C93F71
:10519000B93AB2BACA9F2A3DDDFFFFBE336D4C3922
:1051A000DA82083CA0AA2ABE70B5054600F0DEFFF0
:1051B000044620F00040C0F1FF40C00F08D025F0A9
:1051C0000040C0F1FF40C00F04BF0120FFF78DFB7E
:1051D000204670BD2DE9FE4F04460D462868FFF7B6
:1051E0001DFF07462868FFF757FE02906868FFF723
:1051F00015FF80466868FFF74FFE0646A868FFF770
:105200000DFF0190A868FFF747FE00903046009917
:1052100000F074FE2060DDE9011000F06FFE8246B0
:105220004146384600F06AFE8346009900F066FE6B
:105230008146514600F090FC60603846019900F0CC
:105240005DFE82464146029800F058FE8346009972
:1052500000F054FE80F000495146484600F07CFCC6
:10526000A06086F000494846019900F047FEE060E2
:105270000099029800F042FE82464146384600F00E
:105280003DFE8346019900F039FE80F00049514609
:10529000484600F061FC20613846009900F02EFE7F
:1052A00082464146029800F029FE8346019900F0AB
:1052B00025FE8146514600F04FFC6061C4F818801D
:1052C00087F000493146484600F018FEE06131465B
:1052D000029800F013FE2062BDE8FE8F2DE9F05F1A
:1052E00004460D46A168084600F008FE8146216884
:1052F000084600F003FE8246494600F02DFC804639
:10530000FFF752FF074639466068FFF797FC0646ED
:10531000FBF779FF2860A168084600F0EFFD8246A0
:105320006168084600F0EAFD8346514600F014FC2F
:105330008146FFF739FF0746206880F0004839466C
:105340004046FFF77BFC0646FBF75DFF6860BDE863
:10535000F09F01604260836070470021816041607E
:1053600001607047016042608360704770B5044619
:105370000D462968206800F0EFFB206069686068CE
:1053800000F0EAFB6060A968A06800F0E5FBA0609F
:10539000204670BD002181804180018070470180DE
:1053A0004280838070472DE9FC5F06460C46154617
:1053B000A968206A00F0A2FD01906968E06900F028
:1053C0009DFD83462968A06900F098FD594600902C
:1053D00000F0C2FB8246019900F0BEFB0746A968B7
:1053E000606900F08BFD01906968206900F086FD1E
:1053F00083462968E06800F081FD5946009000F07E
:10540000ABFB8246019900F0A7FB8046A968A06823
:1054100000F074FD01906968606800F06FFD009015
:105420002968206800F06AFD8346009900F094FB2B
:105430008246019900F090FB81463B464246494630
:105440003046FFF786FFBDE8FC9F2DE9F047064692
:105450000C461546A968A06800F010FF0746696869
:10546000606800F00BFF80462968206800F006FFA6
:1054700081463B46424649463046FFF76AFFBDE853
:10548000F0872DE9F04706460C4615462946A068E8
:1054900000F034FD07462946606800F02FFD804685
:1054A0002946206800F02AFD81463B46424649468F
:1054B0003046FFF74EFFBDE8F0872DE9F04706467E
:1054C0000C461546A968A06800F046FB07466968C7
:1054D000606800F041FB80462968206800F03CFBD2
:1054E00081463B46424649463046FFF732FFBDE81B
:1054F000F087000021F00042A2F16052B2F5801F57
:1055000001F0004328BFD2F17F6C0BD95FEA001C89
:1055100043EAC20242EB507018BF704728BF20F028
:1055200001007047B2F5801FBCBF184670474FEAB4
:10553000410C1CF5001F02D2084600F0A6BD70B554
:1055400000F0A0F900000089FFF7F6BF4FF000401F
:10555000A0F580007047000010B591EA030F48BF26
:1055600083F0004300F1EA81841A71EB030C05D249
:10557000121943EB0C03001B61EB0C01DFF824E173
:105580004FEA1154A4EB135C1EEA430F18BF9EEAC6
:10559000445F73D023EA0E03DCF1200E21EA0451AC
:1055A00043F4801332D322FA0CFE10EB0E0023FAE0
:1055B0000CFE41EB0E01CCF1200E03FA0EFE10EBB7
:1055C0000E0051F10001B1F5801FCCF1200E32D256
:1055D00001EB045112FA0EF2BDE8104058BF7047BB
:1055E000401C38BF5FEA420218BF7047002814BF52
:1055F00020F0010041F100014FEA410313F5001FC3
:1056000038BF7047A1F1C04100F08AB9012A43EBCD
:105610000302ACF1200CDCF11F0E32BF4FF0000E84
:1056200023FA0CF310EB030041EB0451B4EB115FD0
:10563000D0D0A1EB045101F5801149085FEA300098
:1056400001EB04510ED350F1000038BF12FA0EFEE8
:1056500008D1BDE81040C9E7401C38BF5FEA4202EC
:10566000CAD1C3E7BDE810404FEA410313F5001F5C
:1056700038BF7047A1F1C04100F052B99EEA445FC3
:1056800008D011EA5E0FBDE8104004BF01F00041F0
:1056900000207047BDE8104070B500F0F3F800BF7F
:1056A00064FBBE3E0000E0FF4FEA1153A3F58063A8
:1056B000D3F11E03A8BFD3F1200C08DB4FF000424A
:1056C00042EAC12252EA505232FA03F070470942CC
:1056D0000BD4102BC4BF0020704703F5787CBCF1BD
:1056E000FF3F05D04FF0FF3070474FF0000070478C
:1056F00070B500F0C7F800BF4992248000207047C1
:10570000F0E710F0004248BF4042B0FA80F310FAD0
:1057100003F10AD0C3F11D0303F580634FEA415042
:1057200002EB035202EBD12170474FF000007047AB
:10573000DFF848C170B51CEA111E1EBF1CEA131524
:105740009EEA0C0F95EA0C0F00F06F8081EA0304CB
:1057500023EA4C134EEAD47E21EA4C1141F4801125
:1057600043F48013AE44A1FB024CA0FB0365AEF1F1
:105770007F7E361955EB0C05A1FB034C4CF1000361
:10578000A0FB021C16EB0C06654153F10003094215
:1057900018BF46F0010613F4007F0BD14FEA033126
:1057A0004FEA0530340341EA155140EA16506FF0D4
:1057B00003020AE04FEAC3214FEAC520F40241EA9E
:1057C000555140EA56506FF0020202EB2E4201EBB7
:1057D000025585EACE710AD05FEA440C18BF24F066
:1057E000004450F1000041F1000120EAD47040F281
:1057F000FE7C624500D270BDA84214BF4FF08044C9
:105800004FF04044002E08BF0024BEF1806FA8BFB7
:10581000A1F1C041BDE8704080F282804FF00000ED
:1058200001F1C04101F0004170479EEA0C0F0CEA03
:10583000131518BF95EA0C0F06D04FF0000081EA4F
:10584000030E0EF0004170BD00F01CF88900013E0F
:1058500000F007B800F009B84FEA430C5FEA5C5C5F
:1058600008D081EA030100F05BB84FEA410C5FEA1F
:105870005C5CF6D14FF00000014970470000FF0763
:105880000000F87F0EF1020E2EF0030E5EF8046B9E
:10589000364205D4012A43EB030515F5001F12D843
:1058A000012841EB010C1CF5001F0CD80ED14FEA6A
:1058B000D17C15F5001F0CEB4C0C0CF1020C08BF51
:1058C0004CEBD37C04E04FF0080C01E04FEAD37CB2
:1058D0000CEB4C0526FA05F606F00706B6F1040CAB
:1058E00006D20EEB860CBDE870404CF0010C604710
:1058F000DFE80CF0090B02024FF000414FF000000E
:10590000A1F5002170BD19461046012851EB010494
:1059100018BFD4F5001484BF002001F0004170BD11
:105920000808A0F500114FEA3101704710B591EA5F
:10593000030F48BF83F000433FF516AE841A71EBA6
:10594000030C07D212198CF0004C43EB0C03001B24
:1059500061EB0C01DFF8A4E14FEA1154A4EB135CF6
:105960001EEA430F18BF9EEA445F00F0B08023EAAE
:105970006E03524221EA0451C3EB6E0338BF5B1E33
:10598000DCF1200E25D322FA0CFE10EB0E0043FAB8
:105990000CFE41EB0E01CCF1200E03FA0EFE10EBD3
:1059A0000E0051F10001CCF1200E29D412FA0EF2B2
:1059B00001EB0451BDE8104058BF7047401C1CBFAC
:1059C000B2F1004F704700280CBF491C20F00100C5
:1059D000704712EB020E43EB030218BF4FF0010EAB
:1059E0004EEA4202ACF1200CDCF11E0E54D943FA0F
:1059F0000CFE10EB0E0051F1FF31CCF11E0ED5D58F
:105A00000EF1010E12FA0EFE404141EB010101EBD5
:105A1000445C5FEA5C5C10D910EBDE7001EB045172
:105A200038BFBEF1004FBDE8104018BF70470028D6
:105A30000CBF491C20F00100704730D24FEAD42C33
:105A400011F5001124F400641BD0B1FA81F20B3A75
:105A5000A41AA41ED2F12003914030FA03F3194393
:105A6000904001EBCC71002C01EB0451BDE81040DB
:105A7000A8BF704701F1C0414FF0000001F00041A4
:105A80007047B0FA80F310FA03F100D110BDE41AA8
:105A9000173C4805C90AE4E701EB045110BD491061
:105AA00001EB0451BDE810404FEA300002E04FF036
:105AB000000170474A0008BF0042F8D0B2F5001F4D
:105AC00028BF704701F000414FF0000070479EEA88
:105AD000445F07D011EA5E0FBDE8104004BF00210B
